:020000040800F2
:1000000000400220BD520008A5070008A70700080D
:1000100000000000000000000000000000000000E0
:10002000000000000000000000000000A907000818
:100030000000000000000000AB070008AD0700084A
:100040000D5300080D5300080D5300080D53000810
:100050000D5300080D5300080D5300080D53000800
:10006000B50700080D5300080D5300080D53000894
:100070000D5300080D5300080D5300080D530008E0
:100080000D5300080D5300080D5300080D530008D0
:100090000D5300080D5300080D5300080D530008C0
:1000A0000D5300080D5300080D5300080D530008B0
:0C00B0000D5300080D5300080D5300080C
:1000BC00002934D00123002210B488422CD301240F
:1000CC002407A14204D2814202D209011B01F8E7A4
:1000DC00E400A14204D2814202D249005B00F8E75D
:1000EC00884201D3401A1A434C08A04202D3001B89
:1000FC005C0822438C08A04202D3001B9C082243BC
:10010C00CC08A04202D3001BDC082243002803D0F9
:10011C001B0901D00909E3E7100010BC704701B5B9
:10012C00002000F00BF802BD0029F8D003B5FFF752
:10013C00C1FF0EBC4243891A1847C0467047C046DF
:10014C0003B47146490840004900095A49008E44DD
:10015C0003BC70471C2101231B04984201D3000CE3
:10016C0010391B0A984201D3000A08391B0998421E
:10017C0001D30009043902A2105C40187047C04634
:10018C000403020201010101000000000000000054
:10019C0010B5064C2378002B07D1054B002B02D051
:1001AC00044800E000BF0123237010BD5001002063
:1001BC0000000000945D0008044B10B5002B03D028
:1001CC000349044800E000BF10BDC0460000000019
:1001DC0054010020945D0008BFF34F8F034B044A79
:1001EC00DA60BFF34F8FC046FDE7C04600ED00E07C
:1001FC000400FA0510B5044C09220021200005F07A
:10020C00B3F80123237010BD6C01002010B5064B10
:10021C0000221A70054B1A70FFF7ECFF04490548D1
:10022C00092205F028F810BD4D0400204C040020D4
:10023C006C0100207801002010B5022811D0032891
:10024C000AD0012804D00A210A2000F0FBF902E0B0
:10025C000A2100F0F7F910BD0A21022000F0F2F992
:10026C00F9E70A21032000F0EDF9F4E772B6FEE796
:10027C0000B5A7B03C22002117A805F075F8102294
:10028C00002113A805F070F84C220021684605F0F7
:10029C006BF88020800003F0DDFA22231793DE3305
:1002AC001A938023DB031E9300231B9340221C9282
:1002BC003E3A1F92209221930833229380239B0273
:1002CC00239380239B04249380239B05259317A8B9
:1002DC0002F0BCFC002818D107231393053B1493A0
:1002EC00002315931693022113A802F097FF002800
:1002FC000DD1094B0093002307931193684603F02B
:10030C0053F8002805D127B000BDFFF7AFFFFFF76A
:10031C00ADFFFFF7ABFFC0464000000110B586B043
:10032C00FFF774FF704B00221A6003F049FBFFF7D4
:10033C009FFF00F0E9F800F0CFF900F059FA74E0F3
:10034C003221012000F07EF9322003F05FFB3221D4
:10035C00012000F077F900F0B7F9002820D06348AD
:10036C0004F0DEFC002813D05F4A136801331360DD
:10037C005D4B1B68052B53DD5D4B1A6811688023A0
:10038C009B010B431360584B00221A60FFF724FFAC
:10039C00564B1878FFF750FF564B02221A70E7E7BE
:1003AC00544B00221A703BE0012000F033F900F0AE
:1003BC008BF900284CD04D4B1B78022B58D04AD8C7
:1003CC00002B00D18AE0012B00D08AE0684604F0B3
:1003DC0020FD002849D16B461A78803A464BDA70DA
:1003EC006A465278803A1A716A460221525E92101D
:1003FC00803A9A716A460421525E9210803ADA7100
:10040C006A460621525E9210803A1A726A46128926
:10041C005A70120A9A7038493848092204F02BFF96
:10042C000A2003F0F3FA00F03BF9324B1B78012B56
:10043C0086D0022BB8D0002BF2D1002000F0EAF8C5
:10044C0000F042F90028EBD02A4B01221A70E7E7A2
:10045C00FFF7DCFEAFE7032B43D1684604F0FAFD4F
:10046C000028D8D0FFF7D2FED5E7FFF7CFFEB2E7D2
:10047C00684604F06CFD00282DD16B461B785BB2EE
:10048C00203B9B001C4CE3706B465B785BB2203BC3
:10049C009B0023716B4604201856103805F04AFC5B
:1004AC000022174B04F068FF0022164B05F0E6F90A
:1004BC0005F00EFC60716B46DB785BB2103BDB0029
:1004CC00A3716B465A7905335B781B021343637037
:1004DC001B0AA3709FE7FFF799FECEE7FFF78AFE92
:1004EC0099E7FFF793FE96E7480400204C040020A0
:1004FC005C0400204D0400206C01002078010020D9
:10050C000000224000C05F40F0B5C64600B58AB07E
:10051C001422002105A804F027FF374B596B022247
:10052C0011435963596B0A400092009A5A6B042785
:10053C003A435A635A6B3A400192019A596B202202
:10054C0011435963596B0A400292029A5A6B012665
:10055C0032435A635A6B32400392039A596B082206
:10056C00114359635B6B1A400492049B234B9846CE
:10057C0000220121180003F05CF9214B059303259F
:10058C0006950024079405A91E4803F08BF8C02398
:10059C001B0205930695079405A91B4803F082F8E6
:1005AC0005970695079405A9184803F07BF805965E
:1005BC0006940794A027FF0505A9380003F072F8EC
:1005CC00134B05930695079405A9380003F06AF8B8
:1005DC00059606960794089405A9404603F062F820
:1005EC000E2305930695079405A9404603F05AF887
:1005FC000AB080BCB846F0BD00100240000C0050A0
:10060C00C383000000040050000800500014005088
:10061C003E07000010B5431E9841C2B201210248AA
:10062C0003F007F910BDC046000C0050034B1860D6
:10063C005960034B01221A607047C04650040020D9
:10064C005804002070B50400080005F073FB02008C
:10065C000B0000200F4904F08FFE00220E4B05F01A
:10066C000DF900220D4B05F009F905F031FB0500E1
:10067C000CE00120FFF7CEFF280003F0C7F90020A3
:10068C00FFF7C8FF280003F0C1F93400661E002CE8
:10069C00EFD170BD0000F03F00408F400000E03F04
:1006AC0010B5074B1B68002B00D110BD054B5968CA
:1006BC001868FFF7C7FF024B00221A60F5E7C04627
:1006CC00580400205004002010B5A0200121C005C2
:1006DC0003F0A8F810BD000010B51448144B0360CB
:1006EC00144B4360002383600122C26003614361A9
:1006FC008361C361036203F027FB00280CD10B4814
:10070C00002103F0FBFC002809D10848002103F06C
:10071C0021FD002806D110BDFFF7A8FDEFE7FFF77C
:10072C00A5FDF2E7FFF7A2FDF5E7C0465C0400204B
:10073C0000580040BC7D701010B588B00400142225
:10074C00002103A804F010FE2268114B9A4201D03C
:10075C0008B010BD0F4C626B01231A436263626BCD
:10076C0013400193019BC0230393AE3B04930A3BBC
:10077C000793A02003A9C00502F094FFE36B80222D
:10078C00D2031343E363E36B13400293029BDFE753
:10079C000058004000100240FEE7FEE7704770472B
:1007AC0010B503F021F910BD10B5024801F056F850
:1007BC0010BDC046BC06002000B583B00B4B196CB5
:1007CC00012211431964196C0A400092009ADA6BE9
:1007DC00802149050A43DA63DB6B0B400193019BD3
:1007EC00C020C00003F024F903B000BD001002408B
:1007FC0010B50E490E48002203F0D7FC00280BD18F
:10080C000C490B4803F0EBFC002808D1084803F016
:10081C0001FD002806D110BDFFF728FDF0E7FFF71A
:10082C0025FDF3E7FFF722FDF5E7C0463400002075
:10083C00780100201801002012230B80004870471B
:10084C002000002004230B80004870471C0000206F
:10085C0030B500230AE05D0037344C5500015C00D4
:10086C0001340C19002525700133DBB2934206D2FA
:10087C00040F092CEFD85D0030344C55EEE730BD39
:10088C0070B50B4B18680B4B1D680B4B1B68C018D5
:10089C00002800D170BD094C08222100FFF7D8FFB9
:1008AC002100103104222800FFF7D2FFF2E7C046E6
:1008BC009075FF1F9475FF1F9875FF1F0200002095
:1008CC0010B51A230B80FFF7DBFF014810BDC046A3
:1008DC000000002010B50A00002805D10549064883
:1008EC0004F08DF9034810BD0249034804F087F960
:1008FC00F8E7C046A8040020AC5D000810B50A005B
:10090C00034C0448210004F07AF9200010BDC046C5
:10091C00A8040020C45D000810B50A00002805D109
:10092C000549064804F06BF9034810BD0249034819
:10093C0004F065F9F8E7C046A8040020D85D00086B
:10094C0010B50A00002805D10549064804F057F9EE
:10095C00034810BD0249034804F051F9F8E7C046BA
:10096C00A8040020E45D0008022804D005D8002863
:10097C0000D0032070470120FCE70320FAE710B5F4
:10098C00FFF776FC10BD000010B582B00268174B63
:10099C009A4201D002B010BD154BDA6B802189014F
:1009AC000A43DA63DA6B0A400092009ADB6BDB00D5
:1009BC0018D40F4CE36B802252051343E363E36BB3
:1009CC0013400193019B02F03BFFE36B094A134078
:1009DC00E36300220021082002F0B2FF082002F09D
:1009EC00B3FFD7E702F02CFFF3E7C046005C0040F2
:1009FC0000100240FFFFFFEF10B50100C1239B0068
:100A0C00C058403B9C46614403F01EFC10BD10B521
:100A1C000300C122920080588A005218D2009B1801
:100A2C009133FF331A6803F03FFC10BD10B503007F
:100A3C00C122920080588A005218D2009B181A6D5D
:100A4C0003F076FC10BD10B5C1239B00C05803F019
:100A5C0029FD10BD70B50400C368022B09D1C12556
:100A6C00AD006059012103F0FEFC605903F0C6FC97
:100A7C0070BDFFF7FBFBF2E710B50400C1239B0030
:100A8C00C05803F0F3FC236A002B04D0024A13690C
:100A9C0006210B43136110BD00ED00E010B50400FE
:100AAC00036A002B05D1C1239B00E05803F0EAFC3C
:100ABC0010BD044A136906218B431361FFF75FFFD6
:100ACC00F1E7C04600ED00E070B504001948C12301
:100ADC009B00C450403BE050174B0360082343601D
:100AEC008360063BC36083610023C361036243627E
:100AFC008362C3620363436300F068F9002816D174
:100B0C00B125AD00605918230022002101F0B0F886
:100B1C00605958230022802101F0AAF860598023E3
:100B2C005B000022812101F0A3F8002070BDFFF7CB
:100B3C009DFBE5E7BC060020005C004010B5B1232E
:100B4C009B00C05800F0B8F9FFF70EFF10BD10B5B0
:100B5C0014001A00B1239B00C058230000F036FF8C
:100B6C00FFF702FF10BD10B5B1239B00C05800F079
:100B7C0072FFFFF7F9FE10BD10B5B1239B00C058F2
:100B8C0000F0F6FFFFF7F0FE10BD10B5B1239B008F
:100B9C00C05801F02AF8FFF7E7FE10BDB1239B0007
:100BAC00C3584AB2002A09DB7F2211408A0052182E
:100BBC00D2009B187F33FF33187870477F22114087
:100BCC008A005218D2009B183E331878F5E710B5FE
:100BDC00B1239B00C05800F02BFEFFF7C5FE10BDE3
:100BEC0010B5B124A400005900F09BFFFFF7BCFE28
:100BFC0010BD10B5B124A400005900F066FFFFF73A
:100C0C00B3FE10BD10B50400002902D0012911D08B
:100C1C0010BD036A002B05D1C1239B00E05803F0E3
:100C2C0031FCF5E7FFF7ABFE094A136906218B434C
:100C3C001361F1E7C1239B00C05803F017FC236A32
:100C4C00002BE5D0024A136906210B431361DFE741
:100C5C0000ED00E000487047A80600207047000037
:100C6C0082B00A23019302E0019B013B0193019B9B
:100C7C00002BF9D1CB00044A944663445868000C0D
:100C8C008005800D02B070470098004082B00A23A6
:100C9C00019302E0019B013B0193019B002BF9D1D5
:100CAC00CB00044A944663441868000C8005800D00
:100CBC0002B070470098004082B00A23019302E012
:100CCC00019B013B0193019B002BF9D1CB00044A02
:100CDC00944663445868000C8005800D02B0704740
:100CEC0000980040F8B507000C001500530433D5EC
:100CFC0009780068FFF7CAFF03000600A269824268
:100D0C0021D3121AA261A269002A0CD13A68217867
:100D1C008900521811682948014080208001484000
:100D2C002749014311606D0609D53A68217889007D
:100D3C005218106823490840234901431160002EC2
:100D4C0004D13000F8BD0022A261DCE73868E288EB
:100D5C00616901F04FFFF4E709780068FFF7ACFF19
:100D6C0003000600A269824225D3121AA261A2696D
:100D7C00002A0CD13A6821788900521811680F4862
:100D8C0001408020800148400D49014311606D06EF
:100D9C0009D43A682178890052181068094908402A
:100DAC00094901431160002ECBD038682289616952
:100DBC0001F020FFC5E70022A261D8E78FBFFF0733
:100DCC00808000008F8FFF07C080000070B58AB054
:100DDC00041E00D16CE0374BC35C002B09D0354BA3
:100DEC000322E25400232361206800F07BFF0022E1
:100DFC001BE0AF239B000022C254FFF7C5FDEEE7BA
:100E0C0091008B18DB00E31818003D3001250570AC
:100E1C00013802700C3002801D003F350020287014
:100E2C00D864186558650132D2B260688242E7D343
:100E3C00002119E08A005318DB00E3181E007E36EF
:100E4C00FF3600253570013E3170033635700D3696
:100E5C0035609133FF331D605218D200A2189532C1
:100E6C00FF3215600131C9B28842E3D820682300F3
:100E7C0010336A4662CB62C262CB62C262CB62C280
:100E8C001B6813606168A268E36800F041FF3823B7
:100E9C000022E254074B0132E254636A012B02D068
:100EAC0000200AB070BD200000F001FF0020F8E720
:100EBC000120F6E7BD02000070B50400AF239B00D3
:100ECC00C35C012B0DD0AF25AD0001234355006849
:100EDC0000F000FF206801F0DBF9002363550020CF
:100EEC0070BD0220FCE7000070B506000C00150078
:100EFC00530600D409E109780068FFF7C7FE020029
:100F0C00A36983424BD91B1AA361A369002B6BD134
:100F1C006378002B46D12378DB00B94A94466344AE
:100F2C001A681204120C1A602378DB0063441A68E6
:100F3C00B4490A401A602378DB00634419688022A4
:100F4C0012060A431A606378002B3CD12378DB002D
:100F5C00AB4A944663445A681204120C5A602378C4
:100F6C00DB0063445A68A7490A405A602378DB00C7
:100F7C0063445968802212060A435A602178300073
:100F8C00FFF754FD6D043FD53368227892009B180F
:100F9C0019689D4A11409D4A0A431A6034E00023A7
:100FAC00A361B2E7012BCED12378DB00944A94469F
:100FBC0063441A681204120C1A602378DB00634431
:100FCC001A681A60BFE7012BD8D12378DB008C4A52
:100FDC00944663445A681204120C5A602378DB005E
:100FEC0063445A685A60C9E76D0409D5336821789F
:100FFC0089005B18186884490840844901431960CA
:10100C002423E35C012B0DD0326823789B00D2188B
:10101C0013687F490B4030214B407E490B431360D2
:10102C00002070BD63699B186361E369D318E361A9
:10103C00216A2369994220D3C91A21626278002A55
:10104C0049D12278D2006E498C4662441168090459
:10105C00090C11603E2B1CD95909DA0600D1013953
:10106C002278D20066488446624410688906084398
:10107C0080210906014311602FE0002903D12423AC
:10108C00E1541300DAE700232422A35423620B005B
:10109C00D4E7002B11D12278D20059498C466244F6
:1010AC0011685848014011602278D20062441068DF
:1010BC0080210906014311600FE05908DA0700D5B9
:1010CC0001312278D2004E48844662441068890669
:1010DC000143116001E0012A06D030689BB2E2881E
:1010EC00616901F0DFF88FE72278D20044498C4621
:1010FC00624411680904090C11602278D200624420
:10110C001168180401431160E7E709780068FFF7DC
:10111C00D3FD0200A36983424CD31B1AA361A369BC
:10112C00002B79D16378002B47D12378DB00344A2C
:10113C00944663441A681204120C1A602378DB007C
:10114C0063441A682F490A401A602378DB00634411
:10115C001968802212060A431A606378002B3DD16D
:10116C002378DB00264A944663445A681204120C16
:10117C005A602378DB0063445A6822490A405A605B
:10118C002378DB0063445968802212060A435A60B4
:10119C0021783000FFF74AFC6D0400D534E7336842
:1011AC00227892009B181968174A1140174A0A4373
:1011BC001A6029E70023A361B1E7012BCDD1237875
:1011CC00DB000F4A944663441A681204120C1A602E
:1011DC002378DB0063441A681A60BEE7012BD7D171
:1011EC002378DB00064A944663445A681204120CB6
:1011FC005A602378DB0063445A685A60C8E7C046DB
:10120C0000980040FFFFFF838F8FFF0780C0000016
:10121C00BF8FFF07808000006D0409D433682178EC
:10122C0089005B1818683E4908403E490143196023
:10123C002423E35C012B00D0E6E663699B18636111
:10124C00E369D318E361216A2369994220D3C91A4F
:10125C0021626278002A49D12278D20032498C4628
:10126C00624451680904090C51603E2B1CD9590980
:10127C00DA0600D101392278D2002B488446624428
:10128C0050688906084380210906014351602FE00C
:10129C00002903D12423E1541300DAE7002323624D
:1012AC002422A3540B00D4E7002B11D12278D200B6
:1012BC001D498C46624451681C480140516022789B
:1012CC00D2006244506880210906014351600FE04E
:1012DC005908DA0700D501312278D2001248844629
:1012EC006244506889060143516001E0012A06D02E
:1012FC0030689BB22289616900F0D4FF84E62278C1
:10130C00D20009498C46624451680904090C5160A9
:10131C002278D20062445168180401435160E7E717
:10132C008F8FFF0780C0000000980040FFFFFF83F5
:10133C00F0B5D6464F464646C0B504002068436C0F
:10134C001B0400D46AE2436C0F221D0015401342AB
:10135C0000D0B3E0DB0652D503681A057BD41B041E
:10136C00ECD50368D04A1340802213430360BE239C
:10137C005B00E15C2068FFF773FC030022007D3208
:10138C00FF32D06100280FD0516900290CD02068A1
:10139C001500928801F02EFC6B69EA699B186B6151
:1013AC0000212000FFF733FB23681B681A05C5D406
:1013BC00C022920113409342C0D0BC4A53681B0414
:1013CC001B0C536023007D33FF331B693E2B5ED90E
:1013DC005A09DB0600D1013AB4494B6892061A430C
:1013EC0080231B0613434B6021680B68B04A1340E3
:1013FC00C02292015A40AF4B13430B609EE7026828
:10140C00AD4B1A4080231B02134303603C23E35C67
:10141C00DB00A64A944663441B681B0C9B059B0D82
:10142C00A365226DD318236500212000FFF7FEFA77
:10143C003823E35C002B81D0636D002B00D07DE75B
:10144C003822A35C2168802040420343DBB2CB648A
:10145C000023A35472E7BE235B00E15CFFF700FCA2
:10146C00030022007D32FF32D0612068B121890057
:10147C006118928801F0BEFB226813688A490B4000
:10148C0080210B4313602000FFF7B6FA56E7002BC0
:10149C000AD1864B5A6889490A405A605968802299
:1014AC0012060A435A609FE75A08DB0700D501323F
:1014BC007E494B68920613434B6095E7AF00C01909
:1014CC000668B3B29846330442D4330600D435E7E9
:1014DC00AB005919C9003831611804312268D2198E
:1014EC001068754F074080200002384310605B196C
:1014FC00DB00E3183F331B78012B00D1E4E0F60549
:10150C0000D586E1AB005B19DB00E3181A003C3216
:10151C001078C200654EB44662441268120C9205F3
:10152C00920D5E6D964200D85BE1AB005B19DB005F
:10153C00E318B61A5E65AB005B19DB00E3185B6D54
:10154C00002B00D054E101002000FFF76FFAF5E604
:10155C000368554A13408022134303607A19D20062
:10156C007932FF32A218043291467B19DB00E31862
:10157C008733FF331B78002B33D0AB005B19DB00B8
:10158C00E3188033FF331B78022B6CD02268AB003E
:10159C005B19DB00E3187D33FF331978890052188F
:1015AC001068474908404749014311602068197881
:1015BC008B00C3181B685B045CD5FFF767FB031E2D
:1015CC0082461AD02068A9004919C90061180A007E
:1015DC008332FF3212889131FF31096801F00AFB26
:1015EC000BE07B19DB00E3187D33FF33197820689F
:1015FC00FFF736FB031E824627D1AB005B19DB00DD
:10160C00E31818009930FF300168524651440160CC
:10161C0008380168514401609533FF331B68002B77
:10162C0008D0AB005B19DB00E3188D33FF331B686C
:10163C009A4233D2AB005B19DB00E3187D33FF33E6
:10164C0019782000FFF7E3F93FE720687919C90002
:10165C0061180A008132FF3212889131FF3109681A
:10166C0001F0C8FAC9E7424649462000FFF73AFBA9
:10167C008246C2E7FFF720FB031E8246BDD02068DE
:10168C00A9004919C90061180A008532FF32128875
:10169C009131FF31096801F0ADFAAEE72068494697
:1016AC0000F02EFE11E7C0468F0FFF070098004098
:1016BC008FBFFF07808000000F8FFF07FFFFFF83A6
:1016CC008F8FFF07C0800000AB005B19DB00E318B5
:1016DC0000225A6546331B78002B26D0760644D55B
:1016EC00AB005B19DB00E3183D331B78002B26D1D4
:1016FC00AB005B19DB00E3183C331A78D2004A4983
:10170C008C46624411680904090C11601A78D200E5
:10171C00624411684548014011601B78DB0063444A
:10172C001968802212060A431A60AB005B19DB00B1
:10173C00E3183C3319782000FFF778F9FEE5012B0C
:10174C00F3D1AB005B19DB00E3183C331A78D20001
:10175C0035498C46624411680904090C11601B78E8
:10176C00DB0063441A681A60DFE7AB005B19DB002F
:10177C00E3183D331B78002B1DD1AB005B19DB004C
:10178C00E3183C331A78D20027498C4662445168DE
:10179C000904090C51601A78D2006244516823483C
:1017AC00014051601B78DB006344596880221206AB
:1017BC000A435A60B9E7012BB7D1AB005B19DB00C8
:1017CC00E3183C331A78D20017498C4662445168AE
:1017DC000904090C51601B78DB0063445A685A6099
:1017EC00A3E7AB005B19DB00E31800265E65A2E6FD
:1017FC00AB005819C0002018066DB6180665806D30
:10180C005B19DB00E31812189A65206800F078FD6C
:10181C0094E542462000FFF767FB8FE50020E0BC13
:10182C00BA46B146A846F0BD00980040FFFFFF83C2
:10183C0070B50400AF239B00C35C012B0CD0AF250B
:10184C00AD00012343553733C154006800F01AFD35
:10185C0000236355002070BD0220FCE710B5040086
:10186C00006800F01CFD5049A0228A5852072ED562
:10187C00020416D4420518D4420423D4820427D47B
:10188C00C2042BD402054AD402065BD4820500D5CF
:10189C0081E0C0051BD52268536C44490B4053644E
:1018AC0015E02000FFF744FD11E02268536C40491D
:1018BC000B4053642000FFF7CDF800212000FFF708
:1018CC00B7FF04E02268536C3A490B40536410BDD7
:1018DC002268536C38490B405364F8E72268136C48
:1018EC0004218B4313642268136C04318B431364FF
:1018FC00BD239B00E35C012B08D02000FFF7CEF842
:10190C002268536C2D490B405364E0E7BD239B00C8
:10191C000022E25400212000FFF774F9EDE7226861
:10192C00136C08210B4313642268536C24490B403D
:10193C0053642268136C04210B4313642000FFF7DB
:10194C009BF8C4E72268536C1E490B405364BD23BB
:10195C009B00E35C002B1AD12268136C04210B430F
:10196C0013642268136C04310B431364BD239B0076
:10197C000122E25423685A6D92083C231340BE2284
:10198C009200A35007392000FFF73CF99FE7200095
:10199C00FFF772F89BE72268536C0B490B405364BA
:1019AC002000FFF750F892E700000140FFFE000016
:1019BC00FFFB0000FFBF0000FFDF0000FFEF000097
:1019CC00FFF700007FFF0000FFFD0000F8B50500E9
:1019DC000E0049B200292ADB07273740BC00E11969
:1019EC00C9007931FF3141180431E419E4000419BC
:1019FC007E34FF34002020700720304008700A61CC
:101A0C00CB704A78002A00D08881022B1ED0AF23DD
:101A1C009B00EB5C012B1CD0AF24A40001232B55A5
:101A2C00286800F08BF900232B550020F8BD072403
:101A3C003440A0000119C90038316918043100196B
:101A4C00C00028183D3001240470D5E70023CB7268
:101A5C00DDE70220EAE770B5040008004BB2002B6A
:101A6C0022DB07250D40AB005919C9007931FF3134
:101A7C00611804315B19DB00E3187E33FF3300225D
:101A8C001A70072303400B70AF239B00E35C012B00
:101A9C0019D0AF25AD0001236355206800F0DCFAA6
:101AAC0000236355002070BD07220A40930099184B
:101ABC00C9003831611804319B18DB00E3183D3341
:101ACC0001221A70DDE70220EDE7F8B507260E407B
:101ADC00B400A119C9007931FF3141180431A5199D
:101AEC00ED0045192F009137FF373A602A009532E7
:101AFC00FF3213600432002313607E35FF352B70E8
:101B0C00A419E40004197D34FF342670002E04D18E
:101B1C00006800F0F5FB0020F8BD006800F0F0FB59
:101B2C00F9E7F8B507260E40B500A919C9003831F8
:101B3C0041180431AC19E4000419226563652700CF
:101B4C00603701223A70E3650023A3653D342270AF
:101B5C00AD19ED0045193C352E70002E04D10068EE
:101B6C0000F0CEFB0020F8BD006800F0C9FBF9E7DF
:101B7C0070B504000B00072008406268904230D812
:101B8C004AB2002A20DB8A005118C9007931FF3192
:101B9C0061180431D218D200A2187E32FF32002311
:101BAC00137001238B700870AF239B00E35C012B37
:101BBC0019D0AF25AD0001236355206800F0F6FA6B
:101BCC0000236355002070BD83001918C9003831FB
:101BDC00611804311B18DB00E3183D3301221A7025
:101BEC00DFE70120EFE70220EDE770B50400080005
:101BFC000F230B406268934236D84BB2002B24DB88
:101C0C0007250D40AB005919C9007931FF31611816
:101C1C0004315B19DB00E3187E33FF3300221A70AA
:101C2C0000238B70073303400B70AF239B00E35CE6
:101C3C00012B1BD0AF25AD0001236355206800F0AC
:101C4C00D9FA00236355002070BD07220A40930087
:101C5C009918C9003831611804319B18DB00E3185E
:101C6C003D3301221A70DBE70120EDE70220EBE7A0
:101C7C0010B50C060DD507240C40A1000919C9009C
:101C8C00383140180430002A0BD182728380002036
:101C9C0010BD8C006118C9007931FF314018043037
:101CAC00F1E701228272C3801B0C0381EFE710B5B0
:101CBC0003680121BF2292008150083A0024845409
:101CCC005A6D0A435A655A6D01310A435A65002010
:101CDC0010BD000000234364014B036400207047D7
:101CEC0080BF0000036C024A13400364002070475D
:101CFC007F40FFFF002905D1036C5B005B08036488
:101D0C0000207047026C80231B0613430364F7E723
:101D1C0084B010B50400039104920593012202646F
:101D2C00036C934303640021FFF7E4FF0023636417
:101D3C00002010BC08BC04B018470000F0B503002C
:101D4C000C78A40004192268B8480240C87802280C
:101D5C0056D00AD800284FD0012804D18020C000CA
:101D6C000243002009E0012007E0032804D1C02031
:101D7C00C0000243002000E00120AD4D2A43226048
:101D8C000C78A2009A181668AA4F3E40344325439B
:101D9C0015608A7A002A00D0A5E04A78002A3BD048
:101DAC000A78D200A44CA44662441468240C24047F
:101DBC0014600A78D200624415688C88A408A400C8
:101DCC002C4314600A7892009A181468640604D59F
:101DDC0015683D40994C2C431460CA78012A11D0E7
:101DEC000A7892009B181A6895490A4020214A40AB
:101DFC008F490A431A6053E08025AD002A43BCE7A3
:101E0C000020BAE70A7892009B1819688C4A114096
:101E1C00874A0A431A6043E00A78D200864CA446EB
:101E2C0062445468240C240454600A78D20062443E
:101E3C0055688C88A408A4002C4354600A78D200FE
:101E4C00624454682404240C54600A693E2A28D93C
:101E5C005409D20600D1013C0A78D200764DAC462A
:101E6C0062445568A4062543802424062C43546000
:101E7C000A7892009A181468640405D515686D4C9C
:101E8C002540704C2C4314600A7892009B181A68F9
:101E9C006D490A40C02189015140654A0A431A60C4
:101EAC00F0BD002A11D10A78D200634CA4466244DA
:101EBC005468664D2C4054600A78D20062445568D0
:101ECC00802424062C435460D2E75408D20700D552
:101EDC0001340A78D200584DAC4662445568A406C9
:101EEC002C435460C4E7CA78022A5AD00A7892006C
:101EFC009A181568564C25404D4C2C4314600A78A2
:101F0C00D2004D4CA44662441468240C2404146082
:101F1C000A78D20062441568CC88A408A4002C432B
:101F2C0014600A78D20062445468240C240454606F
:101F3C000A78D200624455680C89A408A4002C438A
:101F4C0054604A78002A36D10A7892009A1814689C
:101F5C00640405D51568374C25403A4C2C43146065
:101F6C000A7892009A181468640605D51568314CE5
:101F7C002540324C2C4314600A7892009A1815684C
:101F8C00314C2540C024A4016C40294D2C431460D5
:101F9C000A7892009B181A6829490A4015431D605B
:101FAC007EE70A7892009A181568224C2540294C35
:101FBC002C431460A3E70A7892009A1814686404FE
:101FCC0005D515681B4C25401E4C2C4314600A7813
:101FDC0092009A181468640605D51568154C2540AE
:101FEC00164C2C431460CA78012A14D00A7892003B
:101FFC009A181468124D2C4020256C400C4D2C4323
:10200C0014600A7892009B1819680F4A1140084A0C
:10201C000A431A6044E70A7892009A181568084C2B
:10202C002540034C2C431460EBE7C0468F89FF0717
:10203C00808000008F8FFF0700980040C080000058
:10204C00BF8FFF0780C000008FBFFF07FFFFFF831C
:10205C008F8EFF078081000010B58B7A002B2FD15B
:10206C004B78002B16D00B789B00C3181A685206BD
:10207C0005D51C68474A1440474A22431A600B781E
:10208C009B00C3181968454A1140454A0A431A6017
:10209C00002010BD0B789B00C3181A68520405D59C
:1020AC001C683C4A14403F4A22431A600B789B0040
:1020BC00C31819683C4A1140394A0A431A60E7E7C9
:1020CC004B78002B32D10B789B00C3181A68520442
:1020DC0005D51C682F4A1440324A22431A600B78EB
:1020EC009B00C3181A68520605D51C68294A14406F
:1020FC00294A22431A600B789B00C3181C68254A96
:10210C001440254A22431A600B789B00C3181A68A6
:10211C00254C2240224C22431A600B789B00C3189A
:10212C001A681E490A4014431C60B1E70B789B00E7
:10213C00C3181A68520405D51C68164A1440194A6B
:10214C0022431A600B789B00C3181A68520605D5F7
:10215C001C68104A1440104A22431A600B789B00EA
:10216C00C3181C680B4A14400E4A22431A600B78A1
:10217C009B00C3181A68094C2240094C22431A6070
:10218C000B789B00C0180368074A13401C4304607B
:10219C007EE7C0468F8FFF07C0800000BF8FFF0710
:1021AC008080000080C000008FBFFF074B78002BA1
:1021BC000CD00B789B00C01803680B4A13401022FC
:1021CC0053400A4A13430360002070470B789B006E
:1021DC00C0180368064A1340802252015A40034B30
:1021EC0013430360F0E7C046BF8FFF0780800000F9
:1021FC008FBFFF0710B58B7A002B35D14B78002B96
:10220C001AD00B789B00C3181A68520605D51C68A7
:10221C00164A1440164A22431A60CB78012B23D05D
:10222C000B789B00C3181A6812490A4020214A40B7
:10223C0011490A431A6017E00B789B00C3181A68FF
:10224C00520405D51C68094A14400C4A22431A60F2
:10225C000B789B00C0180368094A1340C0229201F6
:10226C005A40054B13430360002010BD8F8FFF07AE
:10227C00C0800000BF8FFF078080000080C000007E
:10228C008FBFFF07002901D18023C3640020704752
:10229C00826D80231B021343836500207047406CC2
:1022AC007047000070B5DC1CA408032005001D401D
:1022BC00184200D0013C114B9C4662440CE008785B
:1022CC004B781B020343887800041843CB781B0619
:1022DC00034308C20431013C002CF0D1002D0BD07B
:1022EC0020000B78C600B3401C4301300131013D86
:1022FC00ADB2002DF5D1146070BDC0460098004001
:10230C0070B505000C004B78012B34D08A7A002A6A
:10231C0000D000E38B690A69934200D8D5E29B1A7E
:10232C008B612378DB00CB498C46634459680904E4
:10233C00090C59603E2A00D8CBE25109D20600D1D3
:10234C0001392378DB00C34A944663445A688906F2
:10235C001143802212060A435A6023789B00ED1821
:10236C002B68BD4A1340C02292015A40BB4B134309
:10237C002B60002070BD8E690A69964200D9160048
:10238C00A17A00292BD0E17802294BD0226A921B2A
:10239C0022622278910069180968490600D43FE24C
:1023AC00002B00D026E2D200AA4B9C466244536814
:1023BC001B041B0C53603E2E00D8F9E17209F30686
:1023CC0000D1013A2378DB00A2498C46634459685A
:1023DC0092061143802212060A435A6019E2B3B2E4
:1023EC00A28861692800FFF75DFF2378DB00994A1A
:1023FC00944663441A681204120C1A602278D200B4
:10240C006244116836040E43166023789B00EB1867
:10241C001A6893490A4030214A4090490A431A608D
:10242C000020A7E7236A9A4200D3A1E123789B00FE
:10243C00EB1819688B4A11408B4A0A431A60236ABD
:10244C009B1B236223789A00AA181268520600D4A8
:10245C00BFE06278002A3CD1DB007E4A944663449C
:10246C005A681204120C5A603E2E10D97209F306E7
:10247C0000D1013A2378DB0076498C4663445968D5
:10248C0092061143802212060A435A6023E0002E62
:10249C0011D12378DB006F4A944663445A68734920
:1024AC000A405A602378DB00634459688022120684
:1024BC000A435A600FE07208F30700D50132237803
:1024CC00DB0064498C466344596892060A435A609F
:1024DC0001E0012A2DD02289B3B261692800FFF7EF
:1024EC00E1FE63699B196361236A2269934230D9C7
:1024FC009B1B23626378002B51D12378DB00554A58
:10250C00944663441A681204120C1A603E2E24D9A5
:10251C007209F30600D1013A2378DB004D498C4651
:10252C006344196892061143802212060A431A600A
:10253C0037E0DB00474A944663445A681204120C95
:10254C005A602378DB0063445A6831040A435A60AA
:10255C00C1E7002222621E00CCE7002E11D12378A5
:10256C00DB003C4A944663441A6840490A401A60AE
:10257C002378DB0063441968802212060A431A6030
:10258C000FE07208F30700D501322378DB003149E4
:10259C008C466344196892060A431A6001E0012BC9
:1025AC0006D0E288B3B261692800FFF77BFE2CE706
:1025BC002378DB00274A944663441A681204120CF1
:1025CC001A602378DB0063441A6831040A431A60EA
:1025DC00E7E76278002A4BD1DB001E4A944663443D
:1025EC001A681204120C1A603E2E10D97209F306E6
:1025FC0000D1013A2378DB0016498C4663441968F4
:10260C0092061143802212060A431A6032E0002E11
:10261C0011D12378DB000F4A944663441A6813499E
:10262C000A401A602378DB00634419688022120682
:10263C000A431A601EE07208F30700D501322378B2
:10264C00DB0004498C466344196892060A431A60FD
:10265C0010E0C046009800408FBFFF07808000004C
:10266C00BF8FFF078F8FFF0780810000FFFFFF8365
:10267C00012A2DD0E288B3B261692800FFF712FE5F
:10268C0063699B196361236A2269934230D99B1B4E
:10269C0023626378002B51D12378DB00C44A944623
:1026AC0063445A681204120C5A603E2E24D97209E3
:1026BC00F30600D1013A2378DB00BD498C46634414
:1026CC00596892061143802212060A435A6037E079
:1026DC00DB00B74A944663441A681204120C1A6061
:1026EC002378DB0063441A6831040A431A60C1E79B
:1026FC00002222621E00CCE7002E11D12378DB00D1
:10270C00AB4A944663445A68AA490A405A602378F3
:10271C00DB0063445968802212060A435A600FE0BA
:10272C007208F30700D501322378DB00A0498C46F0
:10273C006344596892060A435A6001E0012B06D0A3
:10274C002289B3B261692800FFF7ACFD5DE62378FE
:10275C00DB00974A944663445A681204120C5A6080
:10276C002378DB0063445A6831040A435A60E7E774
:10277C0022789200AA1810688F4908408F490143AB
:10278C0011602278D2008A498C466244116809048F
:10279C00090C11602278D2006244116818040143BC
:1027AC001160E2889BB261692800FFF77BFD2CE683
:1027BC00002E11D12378DB007D4A944663445A687D
:1027CC007C490A405A602378DB00634459688022B4
:1027DC0012060A435A601CE07208F30700D5013256
:1027EC002378DB0072498C466344596892060A438D
:1027FC005A600EE0D2006E4B9C46624453681B0438
:10280C001B0C53602378DB0063445A6831040A4381
:10281C005A602289B3B261692800FFF743FDF4E5E1
:10282C00002B3CD1D200624B9C46624413681B04C3
:10283C001B0C13603E2E10D97209F30600D1013A1D
:10284C002378DB005A498C4663441968920611437D
:10285C00802212060A431A6030E0002E11D1237830
:10286C00DB00534A944663441A6852490A401A6082
:10287C002378DB0063441968802212060A431A602D
:10288C001CE07208F30700D501322378DB004849BD
:10289C008C466344196892060A431A600EE0D20013
:1028AC00434B9C46624413681B041B0C1360237837
:1028BC00DB0063441A6831040A431A60E288B3B23D
:1028CC0061692800FFF7EEFC9FE500228A611A007F
:1028DC0027E5002A11D12378DB00354A944663445E
:1028EC005A6834490A405A602378DB0063445968BB
:1028FC00802212060A435A602FE55108D20700D5F0
:10290C0001312378DB002A4A944663445A688906CD
:10291C000A435A6021E5CA78022A51D0012A00D014
:10292C005AE189692269914200D8F5E0891AA161BE
:10293C00002B1BD12378DB001D498C46634419689E
:10294C000904090C19603E2A00D8E9E05109D306A4
:10295C0000D101392378DB0015488446634418689C
:10296C008906084380210906014319606378002B0E
:10297C0000D01BE12378DB000D498C466344596879
:10298C000904090C59603E2A00D8EBE05109D20623
:10299C0000D101392378DB00054A944663445A6818
:1029AC0089061143802212060A435A60D5E4C046B8
:1029BC0000980040FFFFFF838F8EFF078080000090
:1029CC00002B1BD10B78DB00854A944663441A68B4
:1029DC001204120C1A600B693E2B2FD95A09DB0614
:1029EC0000D1013A2378DB007D498C466344196899
:1029FC0092061143802212060A431A606378002B58
:102A0C0060D12378DB00764A944663445A681204FA
:102A1C00120C5A6023693E2B32D95A09DB0600D1BD
:102A2C00013A2378DB006E498C4663445968920660
:102A3C001143802212060A435A6045E0002B11D143
:102A4C000B78DB00664A944663441A6865490A4071
:102A5C001A602378DB0063441968802212060A434B
:102A6C001A60CBE75A08DB0700D501322378DB006C
:102A7C005B498C466344196892060A431A60BDE7A9
:102A8C00002B11D12378DB00554A944663445A68D5
:102A9C0054490A405A602378DB0063445968802209
:102AAC0012060A435A600FE05A08DB0700D50132C0
:102ABC002378DB004A498C466344596892060A43E2
:102ACC005A6001E0012B15D0E369002B00D144E4DE
:102ADC0023789B00EB181A6843490A408A4202D0BB
:102AEC00002A00D039E41968404A1140404A0A4390
:102AFC001A6032E42378DB00394A944663445A68FE
:102B0C001204120C5A602378DB0063445A68216962
:102B1C0009040A435A60D7E70022A2610A0007E7BA
:102B2C00002A11D12378DB002D498C4663441968A7
:102B3C002C48014019602378DB006344186880211D
:102B4C0009060143196011E75108D30700D501317B
:102B5C002378DB00224884466344186889060143C5
:102B6C00196003E7002A12D12378DB001C4A944633
:102B7C0063445A681B490A405A602378DB0063445B
:102B8C005968802212060A435A60FFF7E6FB510887
:102B9C00D20700D501312378DB00114A94466344F7
:102BAC005A6889060A435A60FFF7D7FB012B01D0FC
:102BBC00FFF7D3FB2378DB0009498C466344596843
:102BCC000904090C59602378DB006344596812042A
:102BDC000A435A60FFF7C1FB0120FFF7CBFBC0464D
:102BEC0000980040FFFFFF83404000008F8FFF07DD
:102BFC00C080000070B5D81C800803252C001C4038
:102C0C00114EB44662441D420BD0013809E008CA8B
:102C1C000B701D0A4D701D0C8D701B0ECB7004318A
:102C2C0001380028F3D1002C0CD01268FF2303408C
:102C3C00DB001500DD400D7001300131013CA4B208
:102C4C00002CF3D170BDC0460098004070B582B026
:102C5C00041E00D15EE20368DB0739D5C14A9168D6
:102C6C0038230B40D16803220A40102B26D0082BA6
:102C7C0026D063688022520293427FD0A022D202D7
:102C8C00934200D181E0B74B1A68B7490A401A60E9
:102C9C001A68B6490A401A606368002B00D180E0BC
:102CAC0000F0AEFE0500AF4B1B689B0310D400F088
:102CBC00A7FE401B6428F6D903202CE2032AD6D1A8
:102CCC00A84B1B689B0303D56368002B00D124E23F
:102CDC0023689B0731D5A34A916838230B40D168F0
:102CEC0003220A40102B6AD0002B6BD19D4A12682C
:102CFC00520503D5E268002A00D110E299484268D7
:102D0C009B490A40616909020A434260002B0DD1BC
:102D1C00036898490B4021690B4303600368DB0A85
:102D2C0007221A40944BD340944A1360944B186872
:102D3C0000F01AFE002800D0F3E123681B0700D432
:102D4C0081E0884B9A6838231340182B73D0A36901
:102D5C00002B00D1B4E0834A136E01210B431366A0
:102D6C0000F04EFE05007F4B1B6E9B076BD400F0F2
:102D7C0047FE401B0228F6D90320CCE1794A1168A2
:102D8C0080235B020B43136086E7764B1968802225
:102D9C00D2020A431A601968802252020A431A604E
:102DAC007AE700F02DFE05006E4B1B689B038FD558
:102DBC0000F026FE401B6428F6D90320ABE1022A62
:102DCC0092D193E7E368002B22D0664A13686949D5
:102DDC000B4021690B431360116880235B000B438C
:102DEC00136000F00DFE05005E4B1B685B0506D4FE
:102DFC0000F006FE401B0228F6D903208BE159494E
:102E0C004B685B4A13406269120213434B6094E7B0
:102E1C00544A13685B490B40136000F0F1FD050048
:102E2C00504B1B685B0588D500F0EAFD401B02285F
:102E3C00F6D903206FE14B4B1B6E9B0703D5A3699F
:102E4C00002B00D16FE123685B0700D4A2E0454B57
:102E5C009A6838231340202B45D0424BDB6BDB00A8
:102E6C004AD4404BDA6B802149050A43DA63DB6BA9
:102E7C000B400193019B0125434B1B68DB053DD5A2
:102E8C00A368012B4ED0052B52D0364BDA6D0121A5
:102E9C008A43DA65DA6D03318A43DA65A368002B5D
:102EAC0050D000F0ADFD06002E4BDB6D9B076FD4B0
:102EBC0000F0A6FD801B354B9842F5D903202AE182
:102ECC00284A136E01218B43136600F099FD05000F
:102EDC00244B1B6E9B07B6D500F092FD401B0228BD
:102EEC00F6D9032017E11F4BDB6D9B0752D5A36866
:102EFC00002B4FD101200EE10025BDE7224A1168BD
:102F0C0080235B000B43136000F07AFD06001E4B20
:102F1C001B68DB05B4D400F073FD801B0228F6D9C6
:102F2C000320F8E00F4AD36D01210B43D365B5E7BD
:102F3C000C4BDA6D04210A43DA65DA6D03390A4366
:102F4C00DA65ABE700F05CFD0600064BDB6D9B071A
:102F5C001ED500F055FD801B0C4B9842F5D9032073
:102F6C00D9E0C04600100240FFFFFEFFFFFFFBFF51
:102F7C00FF80FFFFFFC7FFFF0024F4005C00002070
:102F8C0058000020FFFEFFFF007000408813000077
:102F9C00012D19D023689B062FD5E369002B19D07E
:102FAC006A4A11688023DB030B43136000F028FD91
:102FBC000500664B1B681B021FD400F021FD401B53
:102FCC000228F6D90320A6E0604AD36B60490B4077
:102FDC00D363DFE75D4A13685E490B40136000F072
:102FEC000FFD0500594B1B681B0206D500F008FDB0
:102FFC00401B0228F6D903208DE0236A002B00D158
:10300C0093E0524A916838220A40102A5AD0022B77
:10301C0012D04E4A136850490B40136000F0F0FC7C
:10302C0004004A4B1B689B0145D500F0E9FC001BD2
:10303C000228F6D903206EE0444A136846490B4037
:10304C00136000F0DDFC0500404B1B689B0106D5AE
:10305C0000F0D6FC401B0228F6D903205BE03B4A6B
:10306C00D3683E491940636AA06A0343E06A0002D0
:10307C000343206B0343606B0343A06B03430B437D
:10308C00D360116880235B040B431360D1688023E9
:10309C005B050B43D36000F0B3FC04002B4B1B68A7
:1030AC009B0106D400F0ACFC001B0228F6D90320CF
:1030BC0031E000202FE0254AD36829490B40D3602A
:1030CC00002028E0012B32D0204BDA680323134078
:1030DC00616A8B422DD170231340A16A8B422AD195
:1030EC00FE21C9011140E36A1B02994225D1F82344
:1030FC009B031340216B8B4221D1E0231B05134012
:10310C00616B8B421DD1520F5207A36B9A421AD19D
:10311C00002000E0012002B070BD0120FBE701207F
:10312C00F9E70120F7E70120F5E70020F3E701209C
:10313C00F1E70120EFE70120EDE70120EBE70120AB
:10314C00E9E70120E7E70120E5E7C046001002406F
:10315C00FFFFFFEFFFFFBFFFFFFFFFFE8C80C111E2
:10316C00FCFFFEEE10B52A4B9B6838221A4207D1A1
:10317C00274B1A68D20A072313402648D84010BDA3
:10318C00234B9A6838231340082B3BD0204B9A686A
:10319C0038231340102B0DD01D4B9A683823134045
:1031AC00202B31D01A4B9A6838231340182B26D079
:1031BC000020E4E7164AD1680D3B0B40D268120997
:1031CC00072111400131032B0FD01248FCF770FF7F
:1031DC000F4BDA68120A7F23134058430C4BD96803
:1031EC00490F0131FCF764FFC9E70B48FCF760FF9E
:1031FC00074BDA68120A7F2313405843EEE7FA2094
:10320C00C001BCE70448BAE780200002B7E7C0461B
:10321C00001002400024F40000127A0070B5040083
:10322C000D00002800D1AAE0574B1A680723134061
:10323C008B4221D323689A070ED55B0705D5534AD9
:10324C009168E023DB010B439360504A936850492B
:10325C000B40A1680B4393602368DB0754D563686C
:10326C00012B20D0022B3BD0002B3FD1474A1268B8
:10327C0052051CD401206AE0434A136807218B4392
:10328C002B43136000F0BCFB06003F4B1A6807236E
:10329C001340AB42CED000F0B3FB801B3D4A9042B2
:1032AC00F3D9032053E0394A1268920369D53749A0
:1032BC008A680720824313438B6000F0A1FB060051
:1032CC00324B9B6838221A406368DB009A421BD051
:1032DC0000F096FB801B2F4B9842F1D9032036E06F
:1032EC002A4A12689201E2D4012030E0032B05D067
:1032FC00264AD26D9207DAD4012028E0234A126EB6
:10330C009207D4D4012022E01F4B1A6807231340E4
:10331C00AB421DD823685B0706D51C4A93681E492F
:10332C000B40E1680B439360FFF71CFF174B9A6847
:10333C00120A0F231340194A9B009A581F2313405B
:10334C00D840174B1860174B186800F00DFB70BD78
:10335C000D4A136807218B432B43136000F050FB7D
:10336C000600094B1A6807231340AB42D2D000F079
:10337C0047FB801B074B9842F3D90320E7E701205A
:10338C00E5E70120E3E7C0460020024000100240C0
:10339C00FFF0FFFF88130000FF8FFFFFF45D0008B4
:1033AC005C00002058000020F0B583B004000368D6
:1033BC009B0362D5AE4BDB6BDB001ED4AC4BDA6BE4
:1033CC00802149050A43DA63DB6B0B400193019BB7
:1033DC000126A84A116880235B000B43136000F0A0
:1033EC000FFB0500A34B1B68DB0508D400F008FBA2
:1033FC00401B0228F6D9032502E00026E9E7002548
:10340C00002D23D19A4BD96DC02292000B00134092
:10341C00114210D0226C9A420DD0954AD36D964928
:10342C000B40D06D802149020143D165D16D934889
:10343C000140D165D365DB0710D4002D06D18C4A31
:10344C00D36D8D490B40216C0B43D365012E15D1E7
:10345C00874AD36B8A490B40D3630FE000F0D0FA54
:10346C000700834BDB6D9B07E7D400F0C9FAC01B48
:10347C00844B9842F5D90325DFE700252368DB0749
:10348C0006D57B4A536D03218B4361680B4353650F
:10349C0023689B0706D5764A536D0C218B43A16894
:1034AC000B43536523685B0706D5714A536D302176
:1034BC008B43E1680B4353652368DB0606D56C4AE6
:1034CC00536D71490B4021690B4353652368DB0431
:1034DC0006D5674A536D68490B4061690B435365C8
:1034EC0023689B0506D5624A536D68490B40A16A57
:1034FC000B43536523685B0506D55D4A536D6449E0
:10350C000B40E16A0B43536523689B0606D5584A6A
:10351C00536D60490B40A1690B43536523685B06EF
:10352C0006D5534A536D5C490B40E1690B43536517
:10353C0023685B040BD54E4A536D9B009B08216B93
:10354C000B435365226B8023DB059A4262D02368C0
:10355C001B0306D5464A536D40218B43616B0B43CD
:10356C00536523689B020BD5414A536D4B490B4065
:10357C00A16B0B435365A26B8023DB039A4250D0A3
:10358C0023685B020BD53A4A536D45490B40E16BFE
:10359C000B435365E26B80235B049A4248D023684B
:1035AC001B0509D5324A936D03218B43216A0B43CA
:1035BC009365236A012B40D023689B0409D52C4AC0
:1035CC00936D0C218B43616A0B439365636A042BE7
:1035DC0039D02368DB010BD5254A936D2D490B405F
:1035EC00616C0B439365626C80239B019A4230D0D3
:1035FC0023689B010BD51E4A936D1F490B40A16C90
:10360C000B439365A26C80235B009A4228D0280060
:10361C0003B0F0BD164AD16880235B020B43D36024
:10362C0095E7134AD16880235B040B43D360A7E76B
:10363C000F4AD1680B43D360B1E7D16880235B029A
:10364C000B43D360B8E7D16880235B020B43D36094
:10365C00BFE7074AD16880235B040B43D360C7E7FD
:10366C00034AD16880235B040B43D360CFE7C04689
:10367C000010024000700040FFFCFFFFFFFFFEFF48
:10368C00FFFFFFEF88130000FFF3FFFFFFFFF3FFC7
:10369C00FFFFCFFFFFCFFFFFFF3FFFFFFFFFBFFF8E
:1036AC00FFFFFFFEF0B5002359E086685F0003249E
:1036BC00BC40A643CC68BC4034438460446894430B
:1036CC004E683609012232409A402243426056E04D
:1036DC00DE080836B600375805321A4092000F241F
:1036EC009440A7430C69944022003A43325059E06D
:1036FC00042600E00026A64034003C43444E183219
:10370C00920094513768EA433E00AE434C68E402A1
:10371C0001D53E002E433E4C266067683E001640A5
:10372C004C68A40201D53E002E43394C66608426B9
:10373C00A7593E0016404C68A40301D53E002E4309
:10374C00334C8427E6518026A65932404C68E4035A
:10375C0001D52A0032432E4D80242A5101330C68A6
:10376C002200DA4053D001229A4025001540144221
:10377C00F4D04E6803243440013C012C95D94C689C
:10378C0003222240032A08D0C4685E000322B24000
:10379C0094438A68B2402243C2604C6803222240A0
:1037AC00022A95D004685E0003221700B740BC4380
:1037BC004F683A40B240224302604C68C0229202E9
:1037CC001442CBD09A0814001834A400104EA759F8
:1037DC0003241C40E4000F26A640B743A026F605A0
:1037EC00B04287D00B4EB0420BD00B4EB0420AD039
:1037FC000A4EB04209D00A4EB04200D178E70526F5
:10380C0079E7012677E7022675E7032673E7F0BD13
:10381C00001802400004005000080050000C00503A
:10382C000010005003690B4201D0012070470020AA
:10383C00FCE7002A01D0816170478162FCE700003F
:10384C00034A51688023DB000B4353607047C0462A
:10385C000070004010B5104A136810490B40034328
:10386C00136080239B00984201D0002010BD0C4BAC
:10387C001B685800C01840000A49FCF719FC0130BD
:10388C00054B5B695B0503D5002803D00138F7E7CE
:10389C000020EBE70320E9E700700040FFF9FFFF91
:1038AC005C00002040420F0070B5002811DB83083B
:1038BC00134DC0339B005C5903221040C000FC32F6
:1038CC0016008640B44389010A40824022435A5173
:1038DC0070BD0F230340083B9B0806339B00094A2D
:1038EC00944663445C6803221040C000FC3215000F
:1038FC008540AC4389010A40824022435A60E7E785
:10390C0000E100E000ED00E0013880235B04984208
:10391C000FD2094A50600948036A1B021B0AC021D6
:10392C0009060B43036200239360073313600020E6
:10393C0070470120FCE7C04610E000E000ED00E01D
:10394C0010B5FFF7B1FF10BD002805DB1F220240A8
:10395C0001239340014A13607047C04600E100E028
:10396C0010B5FFF7D1FF10BD10B50400114B19783D
:10397C00002901D1012010BDFA208000FCF798FB32
:10398C0001000D4B1868FCF793FBFFF7E9FF0028CB
:10399C000DD1032C01D90120EDE7013000222100CB
:1039AC004042FFF7CDFF054B1C600020E3E70120F0
:1039BC00E1E7C046540000205C00002058000020C5
:1039CC0010B5084A116880235B000B431360032079
:1039DC00FFF7CAFF041E02D00124200010BDFCF723
:1039EC00EBFEFAE700200240034B1B78034A1168F8
:1039FC005B1813607047C04654000020C4090020B7
:103A0C00014B18687047C046C409002070B504000B
:103A1C00FFF7F6FF0500631C02D0044B1B78E4187B
:103A2C00FFF7EEFF401BA042FAD370BD54000020FC
:103A3C00034A136803490B40034313607047C046A5
:103A4C0000000140FFF9FFFF026893699B0701D555
:103A5C000023936203689A69D20703D49A690121FF
:103A6C000A439A617047000010B58905890D12044C
:103A7C0011431943029B19434900490804686268C1
:103A8C005B0D8020C0000340034803439A4313009E
:103A9C000B43636010BDC046FF63FF03F0B5C64621
:103AAC0000B504000E00904601688B6910221700C7
:103ABC001F401A4248D01023CB610025206883692F
:103ACC009B063AD4002D38D1731CF7D0FFF798FF22
:103ADC004346C01AB04201D8002EEFD121684B6882
:103AEC008022D20113404222A25CD2B28869000427
:103AFC0003D5002B01D1202A16D123689B699B0684
:103B0C00DCD4FFF77DFF4346C01A1928F5D9636C46
:103B1C002022134363644123E25400232232A35432
:103B2C00023AA3540125E8E74A688023DB011343DA
:103B3C004B60FFF765FF8046DFE7002D37D1202370
:103B4C00C3610427013500E0002522689369D9057B
:103B5C0004D501210F43FF31D16101255A0506D54A
:103B6C000822174322688021C900D16101259B05D9
:103B7C001FD502231F43236880229200DA6101259E
:103B8C002000FFF761FF226853680B490B4053601C
:103B9C00636C3B43636441232022E25400232232B2
:103BAC00A354023AA354280080BCB846F0BD0427A5
:103BBC00CBE7002DF7D0E3E700E800FE70B504007A
:103BCC000D00160023689B699B071CD4320029004A
:103BDC002000FFF763FF002817D16B1CF2D0FFF712
:103BEC000FFF801BA84201D8002DEBD1636C202263
:103BFC00134363644123E25400232232A354023A58
:103C0C00A354012000E0002070BD0120FCE7F0B5BA
:103C1C00C64600B507000D0090461E003B689C6927
:103C2C002C40641B63425C41444516D1731CF5D097
:103C3C00FFF7E6FE069BC01AB04201D8002EEDD16C
:103C4C007B6C202213437B644123FA5400232232E1
:103C5C00BB54023ABB54012000E0002080BCB846A3
:103C6C00F0BD70B505000C0016002B689B699B0617
:103C7C001AD4320021002800FFF710FF002815D1BC
:103C8C00FFF7BEFE801BA04201D8002CEDD16B6C5F
:103C9C00202213436B644123EA5400232232AB5499
:103CAC00023AAB54012070BD0020FCE70120FAE77A
:103CBC0070B504000D00160023689B695B073DD4AA
:103CCC00320029002000FFF7E9FE002838D12268D5
:103CDC0093699B0611D4FFF793FE801BA84201D871
:103CEC00002DE9D1636C2022134363644123E25419
:103CFC00013B0022E254012070BD93695B0702D5A1
:103D0C00238D002BF8D19369DB0614D51023D361D6
:103D1C000C3B636423682022DA6121684B680948F4
:103D2C0003404B604123E25400232232A354023A55
:103D3C00A3540120E0E700236364EBE70020DBE7FA
:103D4C000120D9E700E800FE10B5041E59D041232C
:103D5C00C35C002B43D041232422E2542268136815
:103D6C0001218B4313606368226827490B40136160
:103D7C002268936825490B409360E368012B34D08B
:103D8C00A168226884231B020B439360E368022B17
:103D9C0032D0226851681E4B0B4353602268D368A3
:103DAC001A490B40D360236962691343A26912025A
:103DBC0021681343CB60E369216A22680B431360CB
:103DCC002268136801210B431360002363644122B2
:103DDC001F31A15423630132A354002010BD403382
:103DEC000022C254FCF7A8FCB5E7A1682268802326
:103DFC001B020B439360C9E72368802212015A60AF
:103E0C00C7E70120EAE7C046FFFFFFF0FF7FFFFF97
:103E1C0000800002F0B585B004000F0002920393FD
:103E2C000A9D4123C35C202B00D09BE02033C35C54
:103E3C00012B00D199E040230122C254FFF7E0FD91
:103E4C000600802100901923012209022000FFF7AF
:103E5C00DEFE002800D08AE041232122E254013307
:103E6C00113AE25400236364029A6262039A6285F7
:103E7C006363638D9BB2FF2B0BD9FF2323857F3BA1
:103E8C003F4A00925B04FF2239002000FFF7ECFD53
:103E9C0018E0628D92B222858023D2B2384900910B
:103EAC009B0439002000FFF7DFFD0BE0628D92B21E
:103EBC0022858023D2B2002100919B04390020007E
:103ECC00FFF7D2FD638D9BB2002B34D0320029005A
:103EDC002000FFF773FE00284BD1626A236812782A
:103EEC009A62636A01336362638D013B9BB26385A3
:103EFC00238D013B9BB22385628D92B2002AE1D0C7
:103F0C00002BDFD100962B00002280212000FFF730
:103F1C007EFE00282FD1638D9BB2FF2BC6D9FF23C9
:103F2C0023857F3B002200925B04FF323900200086
:103F3C00FFF79AFDC6E7320029002000FFF791FE3B
:103F4C0000281AD123682022DA6121684B680D4DB4
:103F5C002B404B604123E25400232232A354023AFB
:103F6C00A35400E0022005B0F0BD0220FBE70120C5
:103F7C00F9E70120F7E70120F5E70120F3E7C04658
:103F8C000020008000E800FEF0B585B004000F00B2
:103F9C00029203930A9D4123C35C202B00D09BE02B
:103FAC002033C35C012B00D199E040230122C25481
:103FBC00FFF726FD0600802100901923012209023B
:103FCC002000FFF724FE002800D08AE041232222A3
:103FDC00E2540133123AE25400236364029A62629F
:103FEC00039A62856363638D9BB2FF2B0BD9FF230E
:103FFC0023857F3B3F4A00925B04FF22390020005F
:10400C00FFF732FD18E0628D92B222858023D2B286
:10401C00384900919B0439002000FFF725FD0BE087
:10402C00628D92B222858023D2B2002100919B0432
:10403C0039002000FFF718FD638D9BB2002B34D0A4
:10404C00320029002000FFF733FE00284BD12368F3
:10405C005A6A636A1A70636A01336362238D013B87
:10406C009BB22385628D013A92B26285628D92B2C7
:10407C00002AE1D0002BDFD100962B0000228021FA
:10408C002000FFF7C4FD00282FD1638D9BB2FF2BBE
:10409C00C6D9FF2323857F3B002200925B04FF32AD
:1040AC0039002000FFF7E0FCC6E7320029002000B1
:1040BC00FFF7D7FD00281AD123682022DA61216886
:1040CC004B680D4D2B404B604123E25400232232B0
:1040DC00A354023AA35400E0022005B0F0BD022024
:1040EC00FBE70120F9E70120F7E70120F5E70120C4
:1040FC00F3E7C0460024008000E800FEF0B5412341
:10410C00C35C202B20D12033C35C012B1ED0402458
:10411C0001220255412524234355066833689343F5
:10412C003360066833680A4F3B4033600668336877
:10413C000B43336001680B6813430B60202343551A
:10414C00002303550020F0BD0220FCE70220FAE713
:10415C00FFEFFFFFF0B54123C35C202B1ED12033B2
:10416C00C35C012B1CD04024012202554125242381
:10417C004355066833689343336006683368094FC8
:10418C003B4009021943316001680B6813430B6013
:10419C0020234355002303550020F0BD0220FCE7EB
:1041AC000220FAE7FFF0FFFF704710B5002814D08B
:1041BC000023AE24A4000351083403510C340351E2
:1041CC00002902D0AD239B00C150A7239B000121E5
:1041DC00C1540270FCF778FC10BD0320FCE710B54D
:1041EC0082B004006B460022DA8000290ED0AE2388
:1041FC009B00C150CB6A002B0AD06A46901D984791
:10420C00B3239B00E050002002B010BD0320FBE75D
:10421C000020F9E710B5FCF791FC10BD10B5AE23EA
:10422C009B00C358002B02D01B68984710BD03207D
:10423C00FCE710B5AE239B00C358002B01D05B6884
:10424C009847002010BD000070B50400154BC51830
:10425C00280000F054F9A5239B000122E2501C33E6
:10426C00E25A183BE2500F4BE15C1F230B40012B31
:10427C000ED0022B11D0002B05D07F2399432000A8
:10428C00FCF77AFC03E02900200000F03FFB70BD36
:10429C002900200000F074FBF9E72900200000F051
:1042AC00A6FBF4E7AA02000070B505000C00110093
:1042BC00002C2BD1A5239B00C358032B01D020002D
:1042CC0070BD02005532FF329368D268934209D810
:1042DC00A7239B00C35C032B10D0280000F0CBFC61
:1042EC002000EDE79B1A5530FF3083609A4200D9CD
:1042FC001A00280000F0B7FC2000E1E7AE239B0079
:10430C00C3581B69002BE8D09847E6E7A7239B000E
:10431C00C35C032B01D00020D2E7AE239B00C35813
:10432C009B69002B02D021009847C9E70020C7E702
:10433C0070B505000C001100002C4DD1A5239B007D
:10434C00C358022B06D0A8239B00EB5C012B3DD05D
:10435C00200070BDC269036A9A420DD817D0A723FA
:10436C009B00EB5C032B28D080212800FCF704FC7D
:10437C00280000F08CFCE6E7D21AC26100F06BFC5E
:10438C000023002200212800FCF733FCDBE78269C4
:10439C009342E4D8A6239B00C3589A42DFD2002252
:1043AC00002100F058FCA6239B000022EA500023B9
:1043BC0000212800FCF71DFCC5E7AE239B00EB5841
:1043CC00DB68002BD0D028009847CDE7A8239B00B2
:1043DC000022EA542000BCE7A7239B00C35C032BFC
:1043EC0001D00020B5E7AE239B00C3585B69002BBE
:1043FC0002D021009847ACE70020AAE770B5040072
:10440C00A7239B000122C2540023A52292008350B3
:10441C00436010328350AE239B00C358002B20D036
:10442C0018328258002A04D05B68002B01D000217E
:10443C0098474023002200212000FCF788FB01262E
:10444C00B2235B00E6524025043BE550213BFF3B89
:10445C00002280212000FCF77AFBA6842562002034
:10446C0070BD0320FCE7017400207047A722920066
:10447C00835CDBB20249435404238354002070470D
:10448C009D020000A7239B00C35C042B01D00020DD
:10449C007047034BC35CDBB2A72292008354F6E750
:1044AC009D02000010B5AE239B00C358002B0CD00E
:1044BC00A7229200825C032A01D0002010BDDB6988
:1044CC00002B04D098470020F8E70320F6E70020E3
:1044DC00F4E70300002002E00130C0B201331A7887
:1044EC00002AF9D1704710B54B88012B00D010BDB4
:1044FC00A9239B000122C25000F0BDFBF7E70B780B
:10450C0003704B7843708A78CB781B02134343803B
:10451C000A794B791B02134383808A79CB791B026E
:10452C001343C380704710B504008021FCF724FBB3
:10453C0000212000FCF720FB10BD000030B583B03B
:10454C0004000D006B460022DA804A88130A0F2BF8
:10455C0000D9D8E09B007349CB589F46AD239B00F4
:10456C00C358DB69002B05D0007C6A46911D984727
:10457C0001000CE02900FFF7D6FF1CE0AD239B00E7
:10458C00C3581B68007C6A46911D98470100EB8854
:10459C00002B00D1C1E06A4606321288002A00D1F5
:1045AC00B6E0181C934200D9101C82B26B46D8801E
:1045BC00200000F042FB03B030BD037C002B0AD17D
:1045CC00AE239B00C3589B6A6A46901D9847010016
:1045DC0002234370DBE7AE239B00C358DB6A6A46B9
:1045EC00901D9847010002234370D0E7D2B2052AF0
:1045FC0063D892004C4B9B589F46AD239B00C358ED
:10460C005B68002B05D0007C6A46911D9847010021
:10461C00BDE72900FFF787FFCDE7AD239B00C3580B
:10462C009B68002B05D0007C6A46911D98470100C1
:10463C00ADE72900FFF777FFBDE7AD239B00C3581B
:10464C00DB68002B05D0007C6A46911D9847010061
:10465C009DE72900FFF767FFADE7AD239B00C3582B
:10466C001B69002B05D0007C6A46911D9847010000
:10467C008DE72900FFF757FF9DE7AD239B00C3583B
:10468C005B69002B05D0007C6A46911D98470100A0
:10469C007DE72900FFF747FF8DE7AD239B00C3584B
:1046AC009B69002B05D0007C6A46911D9847010040
:1046BC006DE72900FFF737FF7DE72900FFF733FF90
:1046CC0079E7037C002B08D1AE239B00C3585B6BAE
:1046DC006A46901D9847010059E72900FFF723FF10
:1046EC0069E7037C002B0AD1AE239B00C3581B6BDC
:1046FC006A46901D984701000723437047E729003D
:10470C00FFF711FF57E729002000FFF70CFF52E7D6
:10471C0029002000FFF707FF4DE7200000F0ABFA5F
:10472C0049E7C046345E0008745E000870B50400AA
:10473C008B88002B23D1CB88002B20D14B887F2B4F
:10474C001DD87F251D40A7239B00C35C032B0ED0D7
:10475C000D4BC5542900FCF73AFA200000F08BFAF7
:10476C00002D07D0A7239B000222E2540AE0FFF79A
:10477C00DAFE07E0A7239B000122E25402E02000AE
:10478C00FFF7D1FE70BDC0469E02000070B505005B
:10479C000E008C78314B1C70012C11D8A7239B0078
:1047AC00C35CDAB2022B0FD0032A25D0FFF7BBFE75
:1047BC002A4B19782800FFF73CFD0324200070BD1C
:1047CC00FFF7B1FE0324F9E7002C12D0446021005E
:1047DC00FFF724FD041E04D031002800FFF7A3FED0
:1047EC00ECE7280000F047FAA7239B000322EA54C9
:1047FC00E4E700F040FAE1E7002C1AD041688C4263
:10480C0027D0C9B2FFF715FD144B19786960280041
:10481C00FFF704FD041E18D031002800FFF783FEBB
:10482C0029792800FFF705FDA7239B000222EA54F3
:10483C00C4E7A7239B000222C25444602100FFF767
:10484C00F8FC280000F017FAB8E7280000F013FA7B
:10485C00B4E700F010FA0024B0E7C046C809002005
:10486C0010B5CB88012B0CD1A7239B00C35CDBB20A
:10487C00022B09D9032B09D1011D012200F0DDF90E
:10488C0001E0FFF750FE10BD002B02D1FFF74BFEED
:10489C00F9E70023836001000831012200F0CDF913
:1048AC00F1E710B5A7239B00C35C013B022B14D886
:1048BC00CB88022B0ED10123C360A9239B00C358C4
:1048CC00002B01D00323C36001000C31022200F045
:1048DC00B4F910BDFFF727FEFBE7FFF724FEF8E75E
:1048EC0010B5A7239B00C35C013B022B0AD84B8855
:1048FC00012B00D010BDA9239B000022C25000F058
:10490C00BAF9F7E7FFF70FFEF4E7000070B50B7884
:10491C0060241C40202C07D0402C05D0002C0BD040
:10492C00FFF701FE002405E0AE239B00C3589B68F3
:10493C0098470400200070BD4D78092D1AD8AB00A3
:10494C000E4AD3589F46FFF7F9FDF3E7FFF7EEFE4B
:10495C00F0E7FFF71BFF0400ECE7FFF781FFE9E747
:10496C00FFF79FFF2C00E5E7FFF7BDFDE2E7FFF740
:10497C00B7FFDFE7FFF7D7FDDCE7C0468C5E00082A
:10498C0070B505000C000A7860231340202B08D06A
:10499C00402B06D0002B04D0FFF7C5FD00263000BD
:1049AC0070BDA7239B00EB5C013B022B19D823792C
:1049BC00012B10D8AE239B00EB589B6821002800DC
:1049CC0098470600E388002BE9D10028E7D128009E
:1049DC0000F051F9E3E721002800FFF7A4FD0026C1
:1049EC00DDE721002800FFF79EFD0026D7E7F8B58C
:1049FC0005000E008A880979337860241C40202C2D
:104A0C0008D0402C06D0002C0ED03100FFF78BFDC7
:104A1C00002407E0AE239B00EB589B683100280074
:104A2C00984704002000F8BD7778012F34D0032F6D
:104A3C0005D0002F60D03100FFF775FDF2E7A723FA
:104A4C009B00C35CDAB2022B05D0032A13D03100D1
:104A5C00FFF769FDE6E7002901D0802904D1310078
:104A6C002800FFF760FDDDE7FCF786F880212800C1
:104A7C00FCF782F8D6E77388002B06D1002904D006
:104A8C00802902D0F388002B03D0280000F0F3F823
:104A9C00C8E7FCF771F8F8E7A7239B00C35CDAB210
:104AAC00022B05D0032A13D03100FFF73CFDB9E7E8
:104ABC00002901D0802904D131002800FFF733FDF3
:104ACC00B0E7FCF759F880212800FCF755F8A9E766
:104ADC007388002BA6D14B060BD1280000F0CBF825
:104AEC00AE239B00EB589B683100280098470400CC
:104AFC0098E7FCF74AF8F0E7A7239B00C35CD8B211
:104B0C00022B07D003282BD031002800FFF70BFD18
:104B1C003C0087E7002901D0802912D1120616D457
:104B2C007F230B409900C91889005131FF31691856
:104B3C00043100230B600222280000F07EF83C00B8
:104B4C0070E731002800FFF7EEFC3C006AE77F239A
:104B5C000B409900C9188900103169180431E8E735
:104B6C0050B2120622D40F220A4093009B189B00CD
:104B7C00EB186533FF331B88002B26D000282ADB6B
:104B8C007F230B409C00E418A4005134FF342C19F3
:104B9C000434002901D0802926D10023236002226D
:104BAC002100280000F049F83C003BE70F220A40A6
:104BBC0093009B189B00EB189B8C002BDED13100D3
:104BCC002800FFF7B0FC3C002CE731002800FFF771
:104BDC00AAFC3C0026E77F230B409C00E418A400B1
:104BEC0010342C190434D4E72800FBF7D7FF002825
:104BFC0002D001232360D2E700232360CFE770B5F6
:104C0C0004000D001600002816D0FFF762FC0130DE
:104C1C0043009BB233802B7003236B70013B08E085
:104C2C00EA5401345A1CD2B2AA1800211170023372
:104C3C00DBB22278002AF3D170BD10B51300A52287
:104C4C009200022484508361C3610A000021FBF7A7
:104C5C00C7FF002010BD10B513000A000021FBF7A0
:104C6C00BFFF002010BD10B513000A000021FBF798
:104C7C00C0FF002010BD10B5A5239B000422C2501C
:104C8C00002300220021FBF7ABFF002010BD10B564
:104C9C00A5239B000522C250002300220021FBF714
:104CAC00A8FF002010BD904202DC884202DB704756
:104CBC001000FCE70800FAE700B585B06B461873E6
:104CCC0059730548FA239B000093022303AAA421DD
:104CDC00FFF7A0F805B000BD5C04002030B585B02E
:104CEC000C0015000F226A4410700C48FA239B002C
:104CFC0000930123A421FFF78DF8002801D005B003
:104D0C0030BD2800FEF782FE0448FA239B00009376
:104D1C0006232200A421FFF737F9F0E75C040020FA
:104D2C0030B583B00400002303705521F020FFF749
:104D3C00C3FF002803D00125280003B030BD0A3082
:104D4C00FEF764FE0021FB20FFF7B6FF002801D020
:104D5C000125F1E70A30FEF759FE0A226946FA20CE
:104D6C00FFF7BCFF051E1BD10E490622684600F05A
:104D7C00EDFA002801D1012323700B490622684665
:104D8C0000F0E4FA002801D103232370074906221E
:104D9C00684600F0DBFA0028CED102232370CBE763
:104DAC000125C9E7C45E0008BC5E0008B45E0008BB
:104DBC0070B58278920083799B079B0F13434B80CD
:104DCC00C278920083791B079B0F13438B80027967
:104DDC00920083799B069B0F1343CB800023C35611
:104DEC000B700123C3564B7043795B0801256B4054
:104DFC00012423405B000A7A0226B24313430B7250
:104E0C0043796B401C400B7A0122934323430B7272
:104E1C0070BD30B583B00500052269460020FFF750
:104E2C005DFF041E02D0200003B030BD290068468F
:104E3C00FFF7BEFFF7E7F8B505000C0003783F223B
:104E4C009343C02B00D17AE00023A370287880060E
:104E5C00800E3F220021FFF726FF20706878800625
:104E6C00800E3F220021FFF71EFF6070A878C0065D
:104E7C00C00E1F220021FFF716FFE070E878C00675
:104E8C00C00E1F220021FFF70EFF20712A79920815
:104E9C00012001214A4001231A4052016679202742
:104EAC00BE43324362712A7912094A401A40920178
:104EBC0066792037BE43324362716E794E401E4094
:104ECC00A27982433243A2712A7992094A401A404C
:104EDC00D20167797F263E40324362716A791209AA
:104EEC004A401A4066798643324362716A79920964
:104EFC004A401A40520060790226B0430243627164
:104F0C006A79D2084A401A40920060790236B0435E
:104F1C00024362716A7952094A401340DB0062799C
:104F2C0008218A43134363716B79DB43DBB2DB09E2
:104F3C001B01627908318A4313436371F8BD4378CE
:104F4C009343C02B01D000237FE701237DE730B5CD
:104F5C0083B00500052269460020FFF7BFFE041E42
:104F6C0002D0200003B030BD29006846FFF763FF74
:104F7C00F7E710B503789B069B0E0B7043789B06E6
:104F8C009B0E4B7003789B09DB0042789209520010
:104F9C0013438278D20913438B708378DB06DB0EC4
:104FAC00CB7083785B069B0FDB00C27852091343EE
:104FBC000B71C378DB06DB0E4B714479240901229B
:104FCC00544001231C408C714479A40954401C406A
:104FDC00CC714479E40854401C400C724479640947
:104FEC0054401C404C720479A40854401C408C72F0
:104FFC000479E40854401C40CC72047924095440D0
:10500C001C400C730479640954401C404C730479A3
:10501C00640854401C408C734479E443E4B2E409C2
:10502C000C744479A40854401C40CC730479A40932
:10503C0054401C404C740479E443E4B2E4098C748D
:10504C00447954401C40CC74407940084240134091
:10505C000B7510BD30B583B00500052269460020E4
:10506C00FFF73CFE041E02D0200003B030BD290027
:10507C006846FFF77EFFF7E722230380004870475E
:10508C00F40000202223038000487047D000002049
:10509C002223038000487047AC000020AF239B0004
:1050AC00C35800221A730020704700000A230380A3
:1050BC00004870479400002070B582B00D00AF23FB
:1050CC009B00C1586B460022DA80002900D191E088
:1050DC002B7860241C40202C09D0402C00D17FE080
:1050EC00002C27D02900FFF71EFA03247FE06B78F1
:1050FC000A2B0FD008D8022B11D0032B15D101226B
:10510C00FFF79BFD002472E00B2B0ED1AB780B60EC
:10511C0000246CE06B881B0A4B60002467E00431B0
:10512C000122FFF78AFD002461E02900FFF7FBF95B
:10513C0003245CE06E780B2E4DD8B3002E4AD35866
:10514C009F46A7239B00C35C032B04D02900FFF7C9
:10515C00EAF903244BE002226B46991DFFF76DFD23
:10516C00340044E06B881B0A222B0BD0212B11D16D
:10517C00EB881A1C092B00D9092292B21F49FFF7A0
:10518C005CFD34E0EB881A1C312B00D9312292B231
:10519C001B49F4E72900FFF7C6F9032427E0A723EE
:1051AC009B00C35C032B04D02900FFF7BCF903243C
:1051BC001DE008310122FFF740FD18E0A7239B00FA
:1051CC00C35C032B02D1AB788B6010E02900FFF796
:1051DC00AAF903240BE02900FFF7A5F9032406E044
:1051EC00FFF749FD6888A988FBF720FA0024200006
:1051FC0002B070BD0324FAE7CC5E0008A0000020CA
:10520C006000002010B504008121FBF7ACFC0023EA
:10521C0023876387AF239B00E058002805D0FBF75A
:10522C001DFDAF239B000022E250002010BD70B585
:10523C0004001020FBF70EFD051E13D0AF239B00BE
:10524C00E050237C002B13D10733638709230322FF
:10525C0081212000FBF77BFC0123238700232B7388
:10526C00002070BDAF239B000022E2500220F8E723
:10527C000A236387EAE770B5AF24A4000559002D13
:10528C0014D0A7239B00C35C032B02D00024200066
:10529C0070BD2C7B002C01D00024F8E7023B2B7353
:1052AC0013000A008121FBF79BFCF0E70324EEE7D7
:1052BC000D488546FEF778FF0C480D490D4A002332
:1052CC0002E0D458C4500433C4188C42F9D30A4AAF
:1052DC000A4C002301E013600432A242FBD300F01D
:1052EC0011F8FBF71BF8FEE700400220000000203D
:1052FC0050010020045F000850010020CC09002060
:10530C00FEE7000070B500260C4C0D4D641BA4107C
:10531C00A64209D1002600F037FD0A4C0A4D641B49
:10532C00A410A64205D170BDB300EB5898470136C6
:10533C00EEE7B300EB5898470136F2E7FC5E000845
:10534C00FC5E0008005F0008FC5E000830B500241D
:10535C000139A24201D1002005E0035D01340D5D4D
:10536C00AB42F6D0581B30BD03008218934200D1DB
:10537C00704719700133F9E7F0B589B000920193C9
:10538C000D03CA0F4B00060004002D0B5B0D06929B
:10539C00059244D05B4A93426AD0420FED0015430C
:1053AC00802212042A430292574AC4009F180026F6
:1053BC00019B019A1D03D20F5B0000982D0B5B0D16
:1053CC00079265D04F4A934200D188E0ED004E49D8
:1053DC00420F2A4380255B189C462D041543C200BE
:1053EC000021079B0698584063460490B000084380
:1053FC00FB1A013803930E2800D989E0FAF7A0FEB6
:10540C007E002802D40128021E022802D4017E004C
:10541C007E001E02D401C701C701C701B5012B00D4
:10542C00034302932CD0002D15D02800FAF792FEDE
:10543C00010003000B391D22521A31001800D14013
:10544C00083885400A002A433500854002922F4FC8
:10545C002C00FF1AABE7FAF77DFE010003001531B3
:10546C0020331C29E7DD3200083882400292EEE737
:10547C0002002A43029207D01F000326029597E7E9
:10548C00029C0126270093E71F000226029C8FE74F
:10549C00009A2A432AD0002D15D02800FAF75AFE7C
:1054AC00010002000B391D2310005B1A009908380B
:1054BC008540D9402943009D8540144B9B1A9C463E
:1054CC002A000D008CE7FAF745FE010002001531A9
:1054DC0020321C29E7DD009908388140EDE7009A5D
:1054EC002A4307D002009C4603217AE71500944614
:1054FC00012176E715009C46022172E700231C006F
:10550C00004A22E1FF07000001FCFFFF0DFCFFFF3A
:10551C00029B9D4204D300D022E1A24200D91FE19C
:10552C00029BE607D907630819430C00029B5B0832
:10553C00029313022D02170E00932B0C2F4307938B
:10554C000799BBB202980593FAF7EEFDBBB2434341
:10555C000A04210C050011438B4207D9C919013DDE
:10556C008F4203D88B4201D9851EC919C81A0799D5
:10557C00FAF7DAFDBAB242430904A4B203000C43B1
:10558C00A24207D9E419013BA74203D8A24201D990
:10559C00831EE4192D041D43A41A009B009A1B0CB6
:1055AC0012040593120CABB206925A43069802925F
:1055BC00059A290C484353435143029A1B18120C69
:1055CC0094466344984202D9802252028918029A66
:1055DC00180C12041B04120C40189A18844203D3A2
:1055EC0002951ED196421CD26B1E0293009BF6189C
:1055FC009E429B415B42DB19E418A74203D310D1B6
:10560C00009BB3420DD8A04202D80AD1B24208D9AD
:10561C00AB1E0293009BF6189E429B415B42DB192A
:10562C00E418B51AAE42B641201A7642801B874266
:10563C0000D1BEE00799FAF777FDBBB243430A04E9
:10564C00290C040011438B4207D9C919013C8F4224
:10565C0003D88B4201D9841EC919C81A0799FAF7C5
:10566C0063FDBBB243430904ADB202000D43AB4230
:10567C0007D9ED19013AAF4203D8AB4201D9821ECA
:10568C00ED19ED1A2304059E1343069906981C0C7C
:10569C009AB2514360437243744312180E0CB21801
:1056AC00904202D9802040022418100C09041204E4
:1056BC00090C00195118854204D31C00854219D1DC
:1056CC00002919D07D195C1EBD420ED3854203D32F
:1056DC0010D1009A8A420AD29C1E009B5A009A4210
:1056EC009B415B42DB19ED180092854202D1009B75
:1056FC00994201D001231C43039B5B4A9A18002A50
:10570C005ADD63070BD00F232340042B07D0231D36
:10571C00A342A4410299644209191C000291029B04
:10572C00DB0108D5514B029A1A408023DB009C46C2
:10573C000292039A62444E4B9A4200DD8CE0029B2B
:10574C00E4085B071C43029BDB081B0312051B0BC5
:10575C001343049A2000D2071343190009B0F0BD7B
:10576C00039B0026013B0393E3E6802302991B0372
:10577C00194205D01D4203D11400079B02950593D5
:10578C008023029A1B031343059A0492B8E6310056
:10579C00069B049302295FD0032956D00129ABD173
:1057AC00002423002200D0E7079B140002950493E9
:1057BC00F0E7012464429FE70121891A3829EFDCC4
:1057CC001F2926DC2B4A039B9446634420009C40F3
:1057DC00029AC8409A4023000243581E83411A4340
:1057EC00029B1400CB40620709D00F222240042AEE
:1057FC0005D0221DA242A44164421B191400802131
:10580C001A0009040A400B4229D1E1085C070C4339
:10581C009AE71F235B429B1A029ADA400023202945
:10582C0006D01549039B8C460299634499400B00A2
:10583C001C43631E9C4100231443D4E700231C002B
:10584C00059380231B0302939AE7049B059397E728
:10585C0000231C001A0078E70024230050E60023E4
:10586C0001221C0071E7C046FF030000FFFFFFFE92
:10587C00FE0700001E0400003E040000F0B58BB0D3
:10588C00009201930D034B00CA0F06002D0B5B0D0C
:10589C00059200D114E1CF4A934200D138E1ED00DA
:1058AC00420F2A4380252D041543CB4AC4009B1874
:1058BC00039300230293019B00981E035A00DB0FF5
:1058CC00360B520D049300D131E1C24B9A4200D1F8
:1058DC0053E1430FF60033438026BF4936041E4381
:1058EC00C300501800220599049F79400091039938
:1058FC0041180691013103910299880010430A283E
:10590C0000DD73E1022800DD46E10138012800D8F2
:10591C0055E1190C9BB202911900220CA4B251430F
:10592C0020008C46029F02995843514367430591CE
:10593C006744010CC91904908C4505D9802040029C
:10594C008446059F67440597080C84466846008A80
:10595C00090409180991310CB6B2049130002100E8
:10596C00049F50437C4371437A4324180F0C3C1919
:10597C00A04202D9802040021218200C8218240464
:10598C0089B2079262180892089962468C46290CD3
:10599C00ADB22800029F58436F434B436244944678
:1059AC00029CFF18020CD2194C43934202D980235B
:1059BC005B02E418130C1B1902932B0080B2120427
:1059CC0012180498734345434E434143A8191D0CC8
:1059DC002D18AE4202D9802040020918059C604661
:1059EC00A446089C6044A042BF418018904292415A
:1059FC002E049BB2F618079B7F42F6185342049371
:105A0C00029BF4199C46A4446346049ABC42A441EC
:105A1C009B18079A64429642B641029A76423443E6
:105A2C002D0C64199445AD41049A6D4293429241F8
:105A3C00524215436419099A6418410211434A1ED3
:105A4C009141C00DDE0D640201435B0226430B4302
:105A5C00E40100D4DFE001215A080B401A43F3079C
:105A6C00CE401343039A5D495218002A00DCD5E05E
:105A7C00590709D00F211940042905D0191D994245
:105A8C009B415B42F6180B00F10106D58021C90041
:105A9C008C46534A1640039A624452498A4200DDAE
:105AAC0009E17407DB081C43F60813053603009A5A
:105ABC00360B3343D2071343200019000BB0F0BD53
:105ACC002C0004432BD0002D16D02800FAF742FBF3
