:020000040800F2
:100000000040022069390008F1050008F3050008E6
:1000100000000000000000000000000000000000E0
:10002000000000000000000000000000F5050008CE
:100030000000000000000000F7050008F9050008B6
:10004000B9390008B9390008B9390008B9390008C8
:10005000B9390008B9390008B9390008B9390008B8
:10006000B9390008B9390008B9390008B9390008A8
:10007000B9390008B9390008B9390008B939000898
:10008000B9390008B9390008B9390008B939000888
:10009000B9390008B9390008B9390008B939000878
:1000A000B9390008B9390008B9390008B939000868
:0C00B000B9390008B9390008B939000856
:1000BC00002934D00123002210B488422CD301240F
:1000CC002407A14204D2814202D209011B01F8E7A4
:1000DC00E400A14204D2814202D249005B00F8E75D
:1000EC00884201D3401A1A434C08A04202D3001B89
:1000FC005C0822438C08A04202D3001B9C082243BC
:10010C00CC08A04202D3001BDC082243002803D0F9
:10011C001B0901D00909E3E7100010BC704701B5B9
:10012C00002000F00BF802BD0029F8D003B5FFF752
:10013C00C1FF0EBC4243891A1847C0467047C046DF
:10014C0003B47146490840004900095A49008E44DD
:10015C0003BC70471C2101231B04984201D3000CE3
:10016C0010391B0A984201D3000A08391B0998421E
:10017C0001D30009043902A2105C40187047C04634
:10018C000403020201010101000000000000000054
:10019C0010B5064C2378002B07D1054B002B02D051
:1001AC00044800E000BF0123237010BD840100202F
:1001BC000000000040440008044B10B5002B03D095
:1001CC000349044800E000BF10BDC0460000000019
:1001DC00880100204044000810B5022811D00328E3
:1001EC000AD0012804D00A210A2000F065F902E0A7
:1001FC000A2100F061F910BD0A21022000F05CF91F
:10020C00F9E70A21032000F057F9F4E772B6FEE78C
:10021C0000B5A7B03C22002117A803F0FBFB10226D
:10022C00002113A803F0F6FB4C220021684603F0D2
:10023C00F1FB8020800002F031FB22231793DE3388
:10024C001A938023DB031E9300231B9340221C92E2
:10025C003E3A1F92209221930833229380239B02D3
:10026C00239380239B04249380239B05259317A819
:10027C0001F00EFD002818D107231393053B1493AE
:10028C00002315931693022113A801F0EBFF00280D
:10029C000DD1094B0093002307931193684602F08C
:1002AC00A7F8002805D127B000BDFFF7AFFFFFF777
:1002BC00ADFFFFF7ABFFC0464000000100B587B0B3
:1002CC00324B00221A70324B1A7002F091FBFFF77E
:1002DC009FFF00F05FF800F025F900F0A7F914E09B
:1002EC006421012000F0E8F8642002F0A7FB6421EF
:1002FC00012000F0E1F800F00DF9002818D1234B93
:10030C0000221A700A2002F099FB204B1B78012B5B
:10031C00E6D0022B19D0002BF4D1002000F0C0F84D
:10032C0000F0F8F80028EDD0184B01221A70E9E71C
:10033C00174802F0B9FF0028E4D1154B1878FFF7E5
:10034C004BFF124B02221A70DCE7012000F0A8F8D8
:10035C0000F0E0F8002804D10C4B00221A700C4B72
:10036C001A700B4B1B78022B0BD0032B05D0012BD7
:10037C00C8D1684602F0FEFFC4E7684603F0BDF83A
:10038C00C0E7684603F04AF8BCE7C046A10100206C
:10039C00A0010020F0B5C64600B58AB01422002199
:1003AC0005A803F037FB374B596B022211435963F5
:1003BC00596B0A400092009A5A6B04273A435A63CD
:1003CC005A6B3A400192019A596B2022114359639E
:1003DC00596B0A400292029A5A6B012632435A63B5
:1003EC005A6B32400392039A596B0822114359639A
:1003FC005B6B1A400492049B234B9846002201210C
:10040C00180002F03AFA214B0593032506950024B7
:10041C00079405A91E4802F069F9C0231B02059335
:10042C000695079405A91B4802F060F905970695F7
:10043C00079405A9184802F059F9059606940794F3
:10044C00A027FF0505A9380002F050F9134B0593BE
:10045C000695079405A9380002F048F9059606960A
:10046C000794089405A9404602F040F90E23059321
:10047C000695079405A9404602F038F90AB080BCED
:10048C00B846F0BD00100240000C0050C3830000C1
:10049C000004005000080050001400503E070000FB
:1004AC0010B5431E9841C2B20121024802F0E5F991
:1004BC0010BDC046000C005070B50400080003F0DD
:1004CC008FFF02000B0000200F4903F0ABFA002253
:1004DC000E4B03F029FD00220D4B03F025FD03F01C
:1004EC004DFF05000CE00120FFF7DAFF280002F0B9
:1004FC00A5FA0020FFF7D4FF280002F09FFA340081
:10050C00661E002CEFD170BD0000F03F00408F4004
:10051C000000E03F10B5A0200121C00502F0A6F9B3
:10052C0010BD000010B51448144B0360144B43600D
:10053C00002383600122C260036143618361C36154
:10054C00036202F0C5FB00280CD10B48002102F01D
:10055C0099FD002809D10848002102F0BFFD0028B0
:10056C0006D110BDFFF752FEEFE7FFF74FFEF2E7A3
:10057C00FFF74CFEF5E7C046A401002000580040F0
:10058C00BC7D701010B588B004001422002103A8A3
:10059C0003F040FA2268114B9A4201D008B010BD0A
:1005AC000F4C626B01231A436263626B134001931D
:1005BC00019BC0230393AE3B04930A3B0793A020FB
:1005CC0003A9C00502F092F8E36B8022D203134317
:1005DC00E363E36B13400293029BDFE70058004098
:1005EC0000100240FEE7FEE77047704710B502F0BE
:1005FC0013FA10BD00B583B00B4B196C01221143DB
:10060C001964196C0A400092009ADA6B8021490532
:10061C000A43DA63DB6B0B400193019BC020C000E3
:10062C0002F01EFA03B000BD0010024010B51249D2
:10063C001248002202F07DFD002811D110490F480C
:10064C0002F091FD00280ED10E490C4803F042F93E
:10065C0000280BD1094802F0A1FD002809D110BDDA
:10066C00FFF7D4FDEAE7FFF7D1FDEDE7FFF7CEFD8D
:10067C00F0E7FFF7CBFDF2E734000020F00100209B
:10068C00400100206000002012230B8000487047BE
:10069C002000002004230B80004870471C00002021
:1006AC0030B500230AE05D0037344C5500015C0086
:1006BC0001340C19002525700133DBB2934206D2AC
:1006CC00040F092CEFD85D0030344C55EEE730BDEB
:1006DC0070B50B4B18680B4B1D680B4B1B68C01887
:1006EC00002800D170BD094C08222100FFF7D8FF6B
:1006FC002100103104222800FFF7D2FFF2E7C04698
:10070C009075FF1F9475FF1F9875FF1F0200002046
:10071C0010B51A230B80FFF7DBFF014810BDC04654
:10072C000000002010B50A00002805D10549064834
:10073C0002F04CFD034810BD0249034802F046FD8F
:10074C00F8E7C046C00400205844000810B50A0061
:10075C00034C0448210002F039FD200010BDC046B6
:10076C00C00400207044000810B50A00002805D110
:10077C000549064802F02AFD034810BD024903480A
:10078C0002F024FDF8E7C046C004002084440008B1
:10079C0010B50A00002805D10549064802F016FDDF
:1007AC00034810BD0249034802F010FDF8E7C046AB
:1007BC00C004002090440008022804D005D800286A
:1007CC0000D0032070470120FCE70320FAE700006B
:1007DC0010B582B00268134B9A4201D002B010BD22
:1007EC00114BDA6B802189010A43DA63DA6B0A4018
:1007FC000092009ADB6BDB0010D40B4CE36B802275
:10080C0052051343E363E36B13400193019B02F026
:10081C003BF8E36B054A1340E363DFE702F034F87F
:10082C00DCE7C046005C004000100240FFFFFFEF19
:10083C0070B504002048C0239B00C4503C3BE050E2
:10084C001E4B0360082343608360063BC360436117
:10085C0000238361C361036243628362C3620363E7
:10086C0000F074F8002823D1B125AD00605918238D
:10087C000022002100F004FA605958230022802144
:10088C0000F0FEF96059C0230022812100F0F8F934
:10089C00605988235B000022012100F0F1F96059B6
:1008AC0080235B000022822100F0EAF9002070BD59
:1008BC00FFF7ACFCD8E7C046E0080020005C004025
:1008CC0010B5B1239B00C05800F0B2F8FFF774FFCD
:1008DC0010BD10B514001A00B1239B00C0582300A2
:1008EC0000F0BDF8FFF768FF10BD10B5B1239B00F9
:1008FC00C05800F0F7F8FFF75FFF10BD10B5B1233B
:10090C009B00C05800F081F9FFF756FF10BD10B5E1
:10091C00B124A400005900F052F9FFF74DFF10BDAF
:10092C0010B5B124A400005900F014F9FFF744FFEE
:10093C0010BD10B5B1239B00C05800F036F910BDA6
:10094C0000487047C00600207047000070B58AB0A0
:10095C00041E68D0354BC35C002B07D0334B0322ED
:10096C00E254206800F0C4F900221BE0AE239B0087
:10097C000022C254FFF72CFFF0E791008B18DB002C
:10098C00E3181800393001250570013802700C305D
:10099C0002801D003B35002028709864D8641865CF
:1009AC000132D2B260688242E7D3002119E08A009A
:1009BC005318DB00E3181E007A36FF36002535701D
:1009CC00013E3170033635700D3635608D33FF3393
:1009DC001D605218D200A2189132FF3215600131FD
:1009EC00C9B28842E3D82068230010336A4662CB30
:1009FC0062C262CB62C262CB62C26168A268E36807
:100A0C0000F08CF934230022E254084B0132E254FA
:100A1C00236A012B02D000200AB070BD200000F028
:100A2C004CF90020F8E70120F6E7C046B9020000B7
:100A3C0070B50400AE239B00C35C012B0DD0AE251A
:100A4C00AD0001234355006800F04AF9206800F01E
:100A5C00C5FB00236355002070BD0220FCE770B578
:100A6C0004000D0049B2002929DB07262E40B000F6
:100A7C008119C9007931FF3161188019C000201823
:100A8C007A30FF30002606700720284008700A6173
:100A9C00CB704A78002A00D08881022B1DD0AE235F
:100AAC009B00E35C012B1BD0AE25AD0001236355ED
:100ABC00206800F049F900236355002070BD07261B
:100ACC002E40B0008119C900383161188019C0005E
:100ADC002018393001260670D6E70023CB72DEE7EA
:100AEC000220EBE770B504000A004BB2002B21DBAF
:100AFC000720084083001918C9007931FF316118AB
:100B0C001B18DB00E3187A33FF330020187007231F
:100B1C0013400B70AE239B00E35C012B18D0AE2569
:100B2C00AD0001236355206800F08AFA0023635559
:100B3C00002070BD0720084083001918C900383107
:100B4C0061181B18DB00E318393301201870DEE73D
:100B5C000220EEE7F8B507260E40B400A119C90033
:100B6C007931FF314118A519ED0045192F008D374A
:100B7C00FF373A602A009132FF32136004320023AF
:100B8C0013607A35FF352B70A419E40004197934FD
:100B9C00FF342670002E04D1006800F055FB0020B5
:100BAC00F8BD006800F050FBF9E707230B409900F3
:100BBC00C918C90040189530FF3000687047F8B567
:100BCC0007260E40B500A919C90038314118AC19D7
:100BDC00E4000419E264236527005C3701223A70B3
:100BEC00A3650023636539342270AD19ED004519F6
:100BFC0038352E70002E04D1006800F025FB002043
:100C0C00F8BD006800F020FBF9E770B504000B009C
:100C1C0007220A4041688A422ED859B200291FDBAC
:100C2C009800C118C9007931FF316118C018C00093
:100C3C0020187A30FF300023037001238B700A7068
:100C4C00AE239B00E35C012B18D0AE25AD00012335
:100C5C006355206800F09EFA00236355002070BD98
:100C6C0093009918C900383141189B18DB00C31840
:100C7C00393301201870E0E70120F0E70220EEE79D
:100C8C0010B50C060CD507240C40A1000919C9009D
:100C9C0038314018002A0AD182728380002010BD9E
:100CAC008C006118C9007931FF314018F2E701223C
:100CBC008272C3801B0C0381F0E710B5036801211D
:100CCC00BE2292008150083A002484545A6D0A4383
:100CDC005A655A6D01310A435A65002010BD000057
:100CEC0000234364014B03640020704780BF000065
:100CFC00036C024A13400364002070477F40FFFFDF
:100D0C00002905D1036C5B005B080364002070476D
:100D1C00026C80231B0613430364F7E784B010B501
:100D2C00040003910492059301220264036C934323
:100D3C0003640021FFF7E4FF00236364002010BC70
:100D4C0008BC04B018470000F0B503000C78A400F0
:100D5C0004192268B0480240C878022856D00AD834
:100D6C0000284FD0012804D18020C000024300206D
:100D7C0009E0012007E0032804D1C020C000024391
:100D8C00002000E00120A54D2A4322600C78A2002F
:100D9C009A181668A24F3E403443254315608A7A50
:100DAC00002A00D0A3E04A78002A3BD00A78D2006F
:100DBC009C4CA44662441468240C240414600A78E5
:100DCC00D200624415688C88A408A4002C431460DB
:100DDC000A7892009A181468640604D515683D4088
:100DEC00914C2C431460CA78012A11D00A789200D5
:100DFC009B181A688D490A4020214A4087490A43AA
:100E0C001A6052E08025AD002A43BCE70020BAE707
:100E1C000A7892009B181968844A11407F4A0A4349
:100E2C001A6042E00A78D2007E4CA44662445468B0
:100E3C00240C240454600A78D200624455688C88CF
:100E4C00A408A4002C4354600A78D200624454686D
:100E5C002404240C54600A69002A27D10A78D20091
:100E6C0062445468724D2C4054600A78D20062443B
:100E7C005568802424062C4354600A7892009A18F2
:100E8C001468640405D51568654C2540694C2C43E1
:100E9C0014600A7892009B181A6867490A40C021AE
:100EAC00890151405D4A0A431A60F0BD3E2A0DD8B3
:100EBC005408D20700D501340A78D200594DAC46FB
:100ECC0062445568A4062C435460D6E75409D206F4
:100EDC0000D1013C0A78D200524DAC4662445568B0
:100EEC00A4062543802424062C435460C5E70A78C5
:100EFC0092009A1815684A4C2540504C2C431460AB
:100F0C000A78D200474CA44662441468240C24048A
:100F1C0014600A78D20062441568CC88A408A40036
:100F2C002C4314600A78D20062445468240C2404C4
:100F3C0054600A78D200624455680C89A408A40055
:100F4C002C4354604A78002A2CD10A7892009A18C3
:100F5C001468640405D51568314C2540354C2C4378
:100F6C0014600A7892009A181468640605D51568FE
:100F7C002B4C25402C4C2C4314600A7892009A1868
:100F8C0015682D4C2540C024A4016C40234D2C43E6
:100F9C0014600A7892009B181A6824490A40154379
:100FAC001D6082E70A7892009A181468640405D5CB
:100FBC0015681B4C25401F4C2C4314600A7892007A
:100FCC009A181468640605D51568154C2540164CFE
:100FDC002C431460CA78012A14D00A7892009A180B
:100FEC001468124D2C4020256C400C4D2C43146081
:100FFC000A7892009B1819680F4A1140074A0A4355
:10100C001A6052E70A7892009A181568074C254026
:10101C00024C2C431460EBE78F897F078080000023
:10102C008F8F7F0700980040C0800000BF8F7F0724
:10103C00FFFFFF8380C000008FBF7F07808100000F
:10104C0010B58B7A002B2FD14B78002B16D00B7848
:10105C009B00C3181A68520605D51C68474A1440F1
:10106C00474A22431A600B789B00C3181968454AFB
:10107C001140454A0A431A60002010BD0B789B00B2
:10108C00C3181A68520405D51C683C4A14403F4AE0
:10109C0022431A600B789B00C31819683C4A114014
:1010AC00394A0A431A60E7E74B78002B32D10B78A8
:1010BC009B00C3181A68520405D51C682F4A1440AB
:1010CC00324A22431A600B789B00C3181A685206E6
:1010DC0005D51C68294A1440294A22431A600B780A
:1010EC009B00C3181C68254A1440254A22431A60E9
:1010FC000B789B00C3181A68254C2240224C2243C3
:10110C001A600B789B00C3181A681E490A401443D6
:10111C001C60B1E70B789B00C3181A68520405D504
:10112C001C68164A1440194A22431A600B789B001B
:10113C00C3181A68520605D51C68104A1440104A88
:10114C0022431A600B789B00C3181C680B4A14408E
:10115C000E4A22431A600B789B00C3181A68094C7C
:10116C002240094C22431A600B789B00C01803687C
:10117C00074A13401C4304607EE7C0468F8F7F07ED
:10118C00C0800000BF8F7F078080000080C00000FF
:10119C008FBF7F074B78002B0CD00B789B00C018AF
:1011AC0003680B4A1340102253400A4A134303604E
:1011BC00002070470B789B00C0180368064A134048
:1011CC00802252015A40034B13430360F0E7C046A0
:1011DC00BF8F7F07808000008FBF7F07826D8023C9
:1011EC001B021343836500207047000070B5DC1CA4
:1011FC00A408032005001D40184200D0013C114BEF
:10120C009C4662440CE008784B781B0203438878B8
:10121C0000041843CB781B06034308C20431013C7D
:10122C00002CF0D1002D0BD020000B78E600B34041
:10123C00184301340131013DADB2002DF5D11060E0
:10124C0070BDC0460098004070B505000C004B788E
:10125C00012B33D08A7A002A00D0B7E38B69096955
:10126C008B4200D88DE35B1AA3612378DB00CC4A58
:10127C00944663445A681204120C5A60002900D038
:10128C0083E32378DB0063445A68C6490A405A60FA
:10129C002378DB0063445968802212060A435A60A3
:1012AC0023789B00ED182B68BF4A1340C022920193
:1012BC005A40BE4B13432B60002070BD8E690A69E7
:1012CC00964200D91600A37A002B34D0E378022B77
:1012DC0054D023789B00EB181968B54A1140B54AD5
:1012EC000A431A60236A9B1B236223789A00AA186C
:1012FC001268520600D48FE26278002A00D01CE2F9
:10130C00DB00A74A944663445A681204120C5A60D4
:10131C00002E00D0F0E12378DB0063445A68A14929
:10132C000A405A602378DB00634459688022120615
:10133C000A435A6003E2B3B2A28861692800FFF73E
:10134C0055FF2378DB00964A944663441A681204CE
:10135C00120C1A602278D2006244116836040E43D3
:10136C00166023789B00EB181A6893490A403021C9
:10137C004A408E490A431A6000209EE7236A9A422B
:10138C0000D399E123789B00EB181968884A114027
:10139C00884A0A431A60236A9B1B236223789A00AB
:1013AC00AA181268520600D4BBE06278002A3AD11F
:1013BC00DB007B4A944663445A681204120C5A6050
:1013CC00002E0FD12378DB0063445A6875490A401C
:1013DC005A602378DB0063445968802212060A4362
:1013EC005A6022E03E2E0DD87208F30700D5013268
:1013FC002378DB006A498C466344596892060A4399
:10140C005A6012E07209F30600D1013A2378DB002E
:10141C0063498C4663445968920611438022120634
:10142C000A435A6001E0012A2CD02289B3B26169C7
:10143C002800FFF7DBFE63699B196361236A22694D
:10144C0093422FD99B1B23626378002B4FD12378B7
:10145C00DB00534A944663441A681204120C1A6057
:10146C00002E23D12378DB0063441A684D490A40CF
:10147C001A602378DB0063441968802212060A4341
:10148C001A6036E0DB00464A944663445A681204FC
:10149C00120C5A602378DB0063445A6831040A4307
:1014AC005A60C2E7002222621E00CDE73E2E0DD804
:1014BC007208F30700D501322378DB0038498C46DB
:1014CC006344196892060A431A6012E07209F30623
:1014DC0000D1013A2378DB0031498C46634419680A
:1014EC0092061143802212060A431A6001E0012B76
:1014FC0006D0E288B3B261692800FFF777FE30E7C7
:10150C002378DB00264A944663441A681204120CB2
:10151C001A602378DB0063441A6831040A431A60AA
:10152C00E7E76278002A49D1DB001D4A9446634400
:10153C001A681204120C1A60002E0FD12378DB00EB
:10154C0063441A6817490A401A602378DB00634425
:10155C001968802212060A431A6031E03E2E0DD81B
:10156C007208F30700D501322378DB000C498C4656
:10157C006344196892060A431A6021E07209F30663
:10158C0000D1013A2378DB0005498C466344196885
:10159C0092061143802212060A431A6010E0C046DC
:1015AC0000980040FFFFFF838FBF7F078080000003
:1015BC008F8F7F0780810000BF8F7F07012A2CD07F
:1015CC00E288B3B261692800FFF710FE63699B19CA
:1015DC006361236A226993422FD99B1B2362637830
:1015EC00002B4FD12378DB00CC4A944663445A68D5
:1015FC001204120C5A60002E23D12378DB006344B2
:10160C005A68C7490A405A602378DB00634459681A
:10161C00802212060A435A6036E0DB00BF4A944629
:10162C0063441A681204120C1A602378DB006344BA
:10163C001A6831040A431A60C2E7002222621E00B3
:10164C00CDE73E2E0DD87208F30700D50132237872
:10165C00DB00B2498C466344596892060A435A60CF
:10166C0012E07209F30600D1013A2378DB00AB4992
:10167C008C466344596892061143802212060A4331
:10168C005A6001E0012B06D02289B3B261692800AF
:10169C00FFF7ACFD65E62378DB00A04A9446634473
:1016AC005A681204120C5A602378DB0063445A689F
:1016BC0031040A435A60E7E722789200AA181068AE
:1016CC00984908409849014311602278D200934907
:1016DC008C46624411680904090C11602278D2000E
:1016EC0062441168180401431160E2889BB261697D
:1016FC002800FFF77BFD34E63E2E0DD87208F30769
:10170C0000D501322378DB0084498C466344596848
:10171C0092060A435A6012E07209F30600D1013AAC
:10172C002378DB007D498C4663445968920611434B
:10173C00802212060A435A6001E0012A2DD0228928
:10174C00B3B261692800FFF751FD63699B196361AE
:10175C00236A2269934230D99B1B2362002E00D14D
:10176C00FFE56378002B3DD12378DB006B4A944670
:10177C0063441A681204120C1A603E2E21D87208A7
:10178C00F30700D501322378DB0064498C466344AF
:10179C00196892060A431A6026E0DB005F4A9446F9
:1017AC0063445A681204120C5A602378DB006344B9
:1017BC005A6831040A435A60C1E7002222621E00B3
:1017CC00CCE77209F30600D1013A2378DB005349C8
:1017DC008C466344196892061143802212060A4310
:1017EC001A6001E0012B06D0E288B3B261692800CF
:1017FC00FFF7FCFCB5E52378DB00484A94466344CC
:10180C001A681204120C1A602378DB0063441A68FD
:10181C0031040A431A60E7E76278002A3AD1DB0008
:10182C003E4A944663441A681204120C1A60002E45
:10183C000FD12378DB0063441A6839490A401A60D7
:10184C002378DB0063441968802212060A431A606D
:10185C0022E03E2E0DD87208F30700D50132237812
:10186C00DB002E498C466344196892060A431A60C1
:10187C0012E07209F30600D1013A2378DB00274904
:10188C008C466344196892061143802212060A435F
:10189C001A6001E0012A2DD0E288B3B261692800F8
:1018AC00FFF7A4FC63699B196361236A2269934265
:1018BC0030D99B1B2362002E00D152E56378002B9C
:1018CC0045D12378DB00154A944663445A681204C8
:1018DC00120C5A603E2E29D87208F30700D501323B
:1018EC002378DB000D498C466344596892060A4301
:1018FC005A602EE0DB00094A944663441A681204CD
:10190C00120C1A602378DB0063441A6831040A4312
:10191C001A60C1E7002222621E00CCE7009800404A
:10192C00FFFFFF838F8E7F07808000007209F30614
:10193C0000D1013A2378DB00D0498C4663445968C6
:10194C0092061143802212060A435A6001E0012BD1
:10195C0006D02289B3B261692800FFF747FC00E585
:10196C002378DB00C54A944663445A681204120C6F
:10197C005A602378DB0063445A6831040A435A6086
:10198C00E7E70022A26119006FE43E290DD84A084E
:10199C00C90700D501322378DB00B8498C46634473
:1019AC00596892060A435A607AE44A09C90600D17A
:1019BC00013A2378DB00B1498C466344596892069E
:1019CC001143802212060A435A6069E4CA78022A3B
:1019DC0047D0012A00D04DE189692269914200D893
:1019EC00EAE0891AA161002B1AD12378DB00A34904
:1019FC008C46634419680904090C1960002A00D04C
:101A0C00DEE02378DB00634419689D4801401960CF
:101A1C002378DB00634418688021090601431960B0
:101A2C006378002B00D00FE12378DB0093498C46C0
:101A3C00634459680904090C5960002A00D0E0E09D
:101A4C002378DB0063445A688D490A405A60237836
:101A5C00DB0063445968802212060A435A60FFF780
:101A6C001FFC002B1AD10B78DB00844A944663448C
:101A7C001A681204120C1A600B69002B2DD10B780A
:101A8C00DB0063441A687E490A401A602378DB0045
:101A9C0063441968802212060A431A606378002B8B
:101AAC005DD12378DB00754A944663445A6812046E
:101ABC00120C5A602369002B30D12378DB0063446D
:101ACC005A686F490A405A602378DB0063445968AE
:101ADC00802212060A435A6043E03E2B0DD85A0866
:101AEC00DB0700D501322378DB0064498C46634464
:101AFC00196892060A431A60D0E75A09DB0600D12E
:101B0C00013A2378DB005D498C46634419689206E0
:101B1C001143802212060A431A60BFE73E2B0DD8F0
:101B2C005A08DB0700D501322378DB0053498C4679
:101B3C006344596892060A435A6012E05A09DB065C
:101B4C0000D1013A2378DB004C498C466344596838
:101B5C0092061143802212060A435A6001E0012BBF
:101B6C0018D0E369002B01D1FFF79AFB23789B0077
:101B7C00EB181A6843490A408A4203D0002A01D064
:101B8C00FFF78EFB1968404A1140404A0A431A601D
:101B9C00FFF786FB2378DB00384A944663445A6887
:101BAC001204120C5A602378DB0063445A682169D2
:101BBC0009040A435A60D4E70022A2610A0012E722
:101BCC003E2A0DD85108D30700D501312378DB000C
:101BDC002A488446634418688906014319601FE744
:101BEC005109D30600D101392378DB002348844600
:101BFC00634418688906084380210906014319606B
:101C0C000EE73E2A0ED85108D20700D501312378B1
:101C1C00DB001A4A944663445A6889060A435A60A0
:101C2C00FFF73EFB5109D20600D101392378DB00C6
:101C3C00124A944663445A6889061143802212065C
:101C4C000A435A60FFF72CFB012B01D0FFF728FB4E
:101C5C002378DB0009498C46634459680904090C54
:101C6C0059602378DB006344596812040A435A60B4
:101C7C00FFF716FB0120FFF720FBC0460098004041
:101C8C00FFFFFF83404000008F8F7F07C080000064
:101C9C0070B582B0041E00D161E20368DB0739D550
:101CAC00C14A916838230B40D16803220A40102B9B
:101CBC0026D0082B26D063688022520293427FD014
:101CCC00A022D202934200D181E0B74B1A68B749E7
:101CDC000A401A601A68B6490A401A606368002BF9
:101CEC0000D180E000F0A4FE0500AF4B1B689B0305
:101CFC0010D400F09DFE401B6428F6D903202FE27F
:101D0C00032AD6D1A84B1B689B0303D56368002B11
:101D1C0000D127E223689B0731D5A34A9168382369
:101D2C000B40D16803220A40102B6AD0002B6BD1D8
:101D3C009D4A1268520503D5E268002A00D113E2CD
:101D4C00994842689B490A40616909020A4342600A
:101D5C00002B0DD1036898490B4021690B4303609C
:101D6C000368DB0A07221A40944BD340944A136051
:101D7C00944B186800F010FE002800D0F6E12368A0
:101D8C001B0700D481E0884B9A6838231340182B2A
:101D9C0073D0A369002B00D1B4E0834A136E0121E8
:101DAC000B43136600F044FE05007F4B1B6E9B0734
:101DBC006BD400F03DFE401B0228F6D90320CFE186
:101DCC00794A116880235B020B43136086E7764BDC
:101DDC0019688022D2020A431A60196880225202C2
:101DEC000A431A607AE700F023FE05006E4B1B686D
:101DFC009B038FD500F01CFE401B6428F6D90320F2
:101E0C00AEE1022A92D193E7E368002B22D0664A16
:101E1C00136869490B4021690B43136011688023D7
:101E2C005B000B43136000F003FE05005E4B1B6868
:101E3C005B0506D400F0FCFD401B0228F6D90320FC
:101E4C008EE159494B685B4A134062691202134395
:101E5C004B6094E7544A13685B490B40136000F0E5
:101E6C00E7FD0500504B1B685B0588D500F0E0FDD5
:101E7C00401B0228F6D9032072E14B4B1B6E9B07CB
:101E8C0003D5A369002B00D172E123685B0700D452
:101E9C00A2E0454B9A6838231340202B45D0424B87
:101EAC00DB6BDB004AD4404BDA6B802149050A43DB
:101EBC00DA63DB6B0B400193019B0125434B1B68E1
:101ECC00DB053DD5A368012B4ED0052B52D0364BEC
:101EDC00DA6D01218A43DA65DA6D03318A43DA65FA
:101EEC00A368002B50D000F0A3FD06002E4BDB6D39
:101EFC009B076FD400F09CFD801B354B9842F5D9A5
:101F0C0003202DE1284A136E01218B43136600F048
:101F1C008FFD0500244B1B6E9B07B6D500F088FD8A
:101F2C00401B0228F6D903201AE11F4BDB6D9B07DF
:101F3C0052D5A368002B4FD1012011E10025BDE73C
:101F4C00224A116880235B000B43136000F070FD84
:101F5C0006001E4B1B68DB05B4D400F069FD801B2A
:101F6C000228F6D90320FBE00F4AD36D01210B4365
:101F7C00D365B5E70C4BDA6D04210A43DA65DA6DEB
:101F8C0003390A43DA65ABE700F052FD0600064B55
:101F9C00DB6D9B071ED500F04BFD801B0C4B984254
:101FAC00F5D90320DCE0C04600100240FFFFFEFF25
:101FBC00FFFFFBFFFF80FFFFFFC7FFFF0024F400C4
:101FCC005C00002058000020FFFEFFFF0070004066
:101FDC0088130000012D19D023689B062FD5E369C7
:101FEC00002B19D06B4A11688023DB030B43136061
:101FFC0000F01EFD0500674B1B681B021FD400F090
:10200C0017FD401B0228F6D90320A9E0614AD36BC7
:10201C0061490B40D363DFE75E4A13685F490B40AD
:10202C00136000F005FD05005A4B1B681B0206D51A
:10203C0000F0FEFC401B0228F6D9032090E0236A36
:10204C00002B00D196E0534A916838220A40102A9E
:10205C005DD0022B1AD04F4B1A6851490A401A60B6
:10206C00DA6803218A43DA60DA684E490A40DA609A
:10207C0000F0DEFC0400474B1B689B0145D500F0CB
:10208C00D7FC001B0228F6D9032069E0414A1368EB
:10209C0043490B40136000F0CBFC05003D4B1B6823
:1020AC009B0106D500F0C4FC401B0228F6D9032086
:1020BC0056E0384AD3683C491940636AA06A034326
:1020CC00E06A00020343206B0343606B0343A06B85
:1020DC0003430B43D360116880235B040B431360F1
:1020EC00D16880235B050B43D36000F0A1FC040096
:1020FC00284B1B689B0106D400F09AFC001B02289D
:10210C00F6D903202CE000202AE0002028E0012B47
:10211C0032D0204BDA6803231340616A8B422DD1F5
:10212C0070231340A16A8B422AD1FE21C9011140B0
:10213C00E36A1B02994225D1F8239B031340216BC0
:10214C008B4221D1E0231B051340616B8B421DD1C7
:10215C00520F5207A36B9A421AD1002000E00120C3
:10216C0002B070BD0120FBE70120F9E70120F7E781
:10217C000120F5E70020F3E70120F1E70120EFE76C
:10218C000120EDE70120EBE70120E9E70120E7E77B
:10219C000120E5E700100240FFFFFFEFFFFFBFFF4C
:1021AC00FFFFFFFEFFFFFEEE8C80C11110B52A4B26
:1021BC009B6838221A4207D1274B1A68D20A072388
:1021CC0013402648D84010BD234B9A68382313403F
:1021DC00082B3BD0204B9A6838231340102B0DD082
:1021EC001D4B9A6838231340202B31D01A4B9A6818
:1021FC0038231340182B26D00020E4E7164AD16868
:10220C000D3B0B40D2681209072111400131032B01
:10221C000FD01248FDF74CFF0F4BDA68120A7F23E0
:10222C00134058430C4BD968490F0131FDF740FF5F
:10223C00C9E70B48FDF73CFF074BDA68120A7F230E
:10224C0013405843EEE7FA20C001BCE70448BAE754
:10225C0080200002B7E7C046001002400024F400C2
:10226C0000127A0070B504000D00002800D1AAE01D
:10227C00574B1A68072313408B4221D323689A07C4
:10228C000ED55B0705D5534A9168E023DB010B4360
:10229C009360504A936850490B40A1680B4393607C
:1022AC002368DB0754D56368012B20D0022B3BD06D
:1022BC00002B3FD1474A126852051CD401206AE01A
:1022CC00434A136807218B432B43136000F0B0FB88
:1022DC0006003F4B1A6807231340AB42CED000F0E8
:1022EC00A7FB801B3D4A9042F3D9032053E0394AA7
:1022FC001268920369D537498A68072082431343D1
:10230C008B6000F095FB0600324B9B6838221A401C
:10231C006368DB009A421BD000F08AFB801B2F4BBA
:10232C009842F1D9032036E02A4A12689201E2D48D
:10233C00012030E0032B05D0264AD26D9207DAD467
:10234C00012028E0234A126E9207D4D4012022E007
:10235C001F4B1A6807231340AB421DD823685B0739
:10236C0006D51C4A93681E490B40E1680B439360E9
:10237C00FFF71CFF174B9A68120A0F231340194AD8
:10238C009B009A581F231340D840174B1860174BCB
:10239C00186800F001FB70BD0D4A136807218B43D0
:1023AC002B43136000F044FB0600094B1A6807230B
:1023BC001340AB42D2D000F03BFB801B074B984242
:1023CC00F3D90320E7E70120E5E70120E3E7C04666
:1023DC000020024000100240FFF0FFFF88130000B5
:1023EC00FF8FFFFFA04400085C0000205800002075
:1023FC00F0B583B0040003689B0362D5AE4BDB6B76
:10240C00DB001ED4AC4BDA6B802149050A43DA633E
:10241C00DB6B0B400193019B0126A84A11688023BA
:10242C005B000B43136000F003FB0500A34B1B6820
:10243C00DB0508D400F0FCFA401B0228F6D9032572
:10244C0002E00026E9E70025002D23D19A4BD96D37
:10245C00C02292000B001340114210D0226C9A4201
:10246C000DD0954AD36D96490B40D06D8021490211
:10247C000143D165D16D93480140D165D365DB072C
:10248C0010D4002D06D18C4AD36D8D490B40216C94
:10249C000B43D365012E15D1874AD36B8A490B4068
:1024AC00D3630FE000F0C4FA0700834BDB6D9B078E
:1024BC00E7D400F0BDFAC01B844B9842F5D9032534
:1024CC00DFE700252368DB0706D57B4A536D032124
:1024DC008B4361680B43536523689B0706D5764A8B
:1024EC00536D0C218B43A1680B43536523685B0729
:1024FC0006D5714A536D30218B43E1680B4353650C
:10250C002368DB0606D56C4A536D71490B40216973
:10251C000B4353652368DB0406D5674A536D684942
:10252C000B4061690B43536523689B0506D5624AD2
:10253C00536D68490B40A16A0B43536523685B05D7
:10254C0006D55D4A536D64490B40E16A0B435365F4
:10255C0023689B0606D5584A536D60490B40A16908
:10256C000B43536523685B0606D5534A536D5C4990
:10257C000B40E1690B43536523685B040BD54E4A52
:10258C00536D9B009B08216B0B435365226B80237F
:10259C00DB059A4262D023681B0306D5464A536D6D
:1025AC0040218B43616B0B43536523689B020BD516
:1025BC00414A536D4B490B40A16B0B435365A26BC6
:1025CC008023DB039A4250D023685B020BD53A4A36
:1025DC00536D45490B40E16B0B435365E26B802314
:1025EC005B049A4248D023681B0509D5324A936D87
:1025FC0003218B43216A0B439365236A012B40D043
:10260C0023689B0409D52C4A936D0C218B43616A7A
:10261C000B439365636A042B39D02368DB010BD51C
:10262C00254A936D2D490B40616C0B439365626C8D
:10263C0080239B019A4230D023689B010BD51E4A04
:10264C00936D1F490B40A16C0B439365A26C8023C7
:10265C005B009A4228D0280003B0F0BD164AD1681E
:10266C0080235B020B43D36095E7134AD168802328
:10267C005B040B43D360A7E70F4AD1680B43D360CD
:10268C00B1E7D16880235B020B43D360B8E7D16814
:10269C0080235B020B43D360BFE7074AD1688023DA
:1026AC005B040B43D360C7E7034AD16880235B0408
:1026BC000B43D360CFE7C0460010024000700040CF
:1026CC00FFFCFFFFFFFFFEFFFFFFFFEF8813000083
:1026DC00FFF3FFFFFFFFF3FFFFFFCFFFFFCFFFFF76
:1026EC00FF3FFFFFFFFFBFFFFFFFFFFEF0B5002323
:1026FC0059E086685F000324BC40A643CC68BC400C
:10270C0034438460446894434E6836090122324055
:10271C009A402243426056E0DE080836B60037582D
:10272C0005321A4092000F249440A7430C69944040
:10273C0022003A43325059E0042600E00026A6401D
:10274C0034003C43444E1832920094518022B758C6
:10275C00EA433E00AE434C68E40301D53E002E43F1
:10276C003D4C8027E6518426A7593E0016404C6804
:10277C00A40301D53E002E43374C8427E65127682D
:10278C003E0016404C68E40201D53E002E43324C0C
:10279C002660666832404C68A40201D52A00324398
:1027AC002D4C626001330C682200DA4053D00122B8
:1027BC009A40250015401442F4D04E68032434404E
:1027CC00013C012C95D94C6803222240032A08D0E5
:1027DC00C4685E000322B24094438A68B24022432C
:1027EC00C2604C6803222240022A95D004685E0025
:1027FC0003221700B740BC434F683A40B240224313
:10280C0002604C68C02292021442CBD09A08140089
:10281C001834A400104EA75903241C40E4000F26C2
:10282C00A640B743A026F605B04287D00B4EB04267
:10283C000BD00B4EB0420AD00A4EB04209D00A4E11
:10284C00B04200D178E7052679E7012677E7022622
:10285C0075E7032673E7F0BD001802400004005032
:10286C0000080050000C00500010005003690B428F
:10287C0001D0012070470020FCE7002A01D08161C3
:10288C0070478162FCE70000034A51688023DB003B
:10289C000B4353607047C0460070004010B5104A9F
:1028AC00136810490B400343136080239B0098422C
:1028BC0001D0002010BD0C4B1B685800C018400004
:1028CC000A49FDF7F5FB0130054B5B695B0503D548
:1028DC00002803D00138F7E70020EBE70320E9E7F5
:1028EC0000700040FFF9FFFF5C00002040420F0029
:1028FC0070B5002811DB8308134DC0339B005C5965
:10290C0003221040C000FC3216008640B4438901FB
:10291C000A40824022435A5170BD0F230340083BAA
:10292C009B0806339B00094A944663445C68032267
:10293C001040C000FC3215008540AC4389010A40B0
:10294C00824022435A60E7E700E100E000ED00E03E
:10295C00013880235B0498420FD2094A5060094821
:10296C00036A1B021B0AC02109060B4303620023E6
:10297C00936007331360002070470120FCE7C046CA
:10298C0010E000E000ED00E010B5FFF7B1FF10BD66
:10299C0010B5FFF7DDFF10BD10B50400114B197811
:1029AC00002901D1012010BDFA208000FDF780FB29
:1029BC0001000D4B1868FDF77BFBFFF7E9FF0028C2
:1029CC000DD1032C01D90120EDE7013000222100AB
:1029DC004042FFF7D9FF054B1C600020E3E70120C4
:1029EC00E1E7C046540000205C00002058000020A5
:1029FC0010B5084A116880235B000B431360032059
:102A0C00FFF7CAFF041E02D00124200010BDFDF701
:102A1C00F1FDFAE700200240034B1B78034A1168D2
:102A2C005B1813607047C04654000020E40B002074
:102A3C00014B18687047C046E40B002070B50400C9
:102A4C00FFF7F6FF0500631C02D0044B1B78E4185B
:102A5C00FFF7EEFF401BA042FAD370BD54000020DC
:102A6C00034A136803490B40034313607047C04685
:102A7C0000000140FFF9FFFF026893699B0701D535
:102A8C000023936203689A69D20703D49A690121DF
:102A9C000A439A617047000070B504686068049D31
:102AAC006E0D8025ED002E40064D3543A84389055B
:102ABC00890D120411431943049B194308436060A8
:102ACC0070BDC046FF63FF03F8B506000F0015008C
:102ADC0002689369DB063BD553689B0104D45168AB
:102AEC008023DB010B4353603468A3699B0615D428
:102AFC007B1CF9D0FFF79CFF401BB84201D8002F7C
:102B0C00F2D1736C2022134373644123F2540023DB
:102B1C002232B354023AB35401201AE01023E36179
:102B2C0033682024DC613000FFF7A6FF326853685D
:102B3C0008490B405360736C0422134373644123A4
:102B4C00F45400233E32B354023AB354012000E053
:102B5C000020F8BD00E800FE70B504000D00160062
:102B6C0023689B699B071CD4320029002000FFF7C7
:102B7C00ABFF002817D16B1CF2D0FFF759FF801B5D
:102B8C00A84201D8002DEBD1636C2022134363645F
:102B9C004123E25400232232A354023AA3540120CD
:102BAC0000E0002070BD0120FCE7F0B5C64600B582
:102BBC0007000D0090461E003B689C692C40641B6E
:102BCC0063425C41444516D1731CF5D0FFF730FFCE
:102BDC00069BC01AB04201D8002EEDD17B6C20228E
:102BEC0013437B644123FA5400232232BB54023A30
:102BFC00BB54012000E0002080BCB846F0BD70B58D
:102C0C0005000C0016002B689B699B061AD4320039
:102C1C0021002800FFF758FF002815D1FFF708FF07
:102C2C00801BA04201D8002CEDD16B6C20221343E9
:102C3C006B644123EA5400232232AB54023AAB5466
:102C4C00012070BD0020FCE70120FAE770B50400FC
:102C5C000D00160023689B695B0733D432002900F2
:102C6C002000FFF731FF00282ED1226893699B06C4
:102C7C0011D4FFF7DDFE801BA84201D8002DE9D14D
:102C8C00636C2022134363644123E254013B002212
:102C9C00E254012070BD93695B0702D5238D002B94
:102CAC00F8D12021D1612268536808480340536051
:102CBC00002363644122A1540132A354023AA35469
:102CCC000120E7E70020E5E70120E3E700E800FE4C
:102CDC0010B5041E59D04123C35C002B43D04123B3
:102CEC002422E2542268136801218B431360636829
:102CFC00226827490B4013612268936825490B40D1
:102D0C009360E368012B34D0A168226884231B02F2
:102D1C000B439360E368022B32D0226851681E4B40
:102D2C000B4353602268D3681A490B40D360236964
:102D3C0062691343A269120221681343CB60E369F1
:102D4C00216A22680B4313602268136801210B432C
:102D5C0013600023636441221F31A15423630132A9
:102D6C00A354002010BD40330022C254FDF70AFCCE
:102D7C00B5E7A168226880231B020B439360C9E767
:102D8C002368802212015A60C7E70120EAE7C04697
:102D9C00FFFFFFF0FF7FFFFF00800002F0B585B062
:102DAC0004000F00029203930A9D4123C35C202B65
:102DBC0000D09BE02033C35C012B00D199E0402371
:102DCC000122C254FFF734FE060080210090192323
:102DDC00012209022000FFF7E8FE002800D08AE05B
:102DEC0041232122E2540133113AE254002363645B
:102DFC00029A6262039A62856363638D9BB2FF2BB6
:102E0C000BD9FF2323857F3B3F4A00925B04FF22B3
:102E1C0039002000FFF740FE18E0628D92B2228547
:102E2C008023D2B2384900919B0439002000FFF76F
:102E3C0033FE0BE0628D92B222858023D2B2002148
:102E4C0000919B0439002000FFF726FE638D9BB296
:102E5C00002B34D0320029002000FFF77DFE002823
:102E6C004BD1626A236812789A62636A0133636297
:102E7C00638D013B9BB26385238D013B9BB2238504
:102E8C00628D92B2002AE1D0002BDFD100962B008C
:102E9C00002280212000FFF788FE00282FD1638DAF
:102EAC009BB2FF2BC6D9FF2323857F3B00220092C8
:102EBC005B04FF3239002000FFF7EEFDC6E732005D
:102ECC0029002000FFF79BFE00281AD1236820223E
:102EDC00DA6121684B680D4D2B404B604123E25465
:102EEC0000232232A354023AA35400E0022005B07E
:102EFC00F0BD0220FBE70120F9E70120F7E70120F4
:102F0C00F5E70120F3E7C0460020008000E800FE52
:102F1C00F0B585B004000F00029203930A9D412383
:102F2C00C35C202B00D09BE02033C35C012B00D171
:102F3C0099E040230122C254FFF77AFD060080215C
:102F4C0000901923012209022000FFF72EFE002811
:102F5C0000D08AE041232222E2540133123AE25497
:102F6C0000236364029A6262039A62856363638DD1
:102F7C009BB2FF2B0BD9FF2323857F3B3F4A00924B
:102F8C005B04FF2239002000FFF786FD18E0628DFC
:102F9C0092B222858023D2B2384900919B04390029
:102FAC002000FFF779FD0BE0628D92B22285802321
:102FBC00D2B2002100919B0439002000FFF76CFD78
:102FCC00638D9BB2002B34D0320029002000FFF718
:102FDC003DFE00284BD123685A6A636A1A70636AF3
:102FEC0001336362238D013B9BB22385628D013AD1
:102FFC0092B26285628D92B2002AE1D0002BDFD1B1
:10300C0000962B00002280212000FFF7CEFD002827
:10301C002FD1638D9BB2FF2BC6D9FF2323857F3B1A
:10302C00002200925B04FF3239002000FFF734FDD0
:10303C00C6E7320029002000FFF7E1FD00281AD175
:10304C0023682022DA6121684B680D4D2B404B60C0
:10305C004123E25400232232A354023AA35400E049
:10306C00022005B0F0BD0220FBE70120F9E70120AA
:10307C00F7E70120F5E70120F3E7C04600240080C4
:10308C0000E800FEF0B54123C35C202B20D1203397
:10309C00C35C012B1ED04024012202554125242360
:1030AC0043550668336893433360066833680A4FA8
:1030BC003B403360066833680B43336001680B6830
:1030CC0013430B6020234355002303550020F0BD10
:1030DC000220FCE70220FAE7FFEFFFFFF0B54123E7
:1030EC00C35C202B1ED12033C35C012B1CD040248D
:1030FC000122025541252423435506683368934326
:10310C00336006683368094F3B400902194331604C
:10311C0001680B6813430B602023435500230355B0
:10312C000020F0BD0220FCE70220FAE7FFF0FFFFD1
:10313C00704710B5002814D00023AE24A40003510E
:10314C00083403510C340351002902D0AD239B00E9
:10315C00C150A7239B000121C1540270FDF768FBED
:10316C0010BD0320FCE710B582B004006B460022B2
:10317C00DA8000290ED0AE239B00C150CB6A002B05
:10318C000AD06A46901D9847B3239B00E05000205C
:10319C0002B010BD0320FBE70020F9E710B5FDF7E6
:1031AC008FFB10BD0300002002E00130C0B20133E0
:1031BC001A78002AF9D1704710B504008021FDF768
:1031CC009DFB00212000FDF799FB10BD70B504009C
:1031DC000D001600002816D0FFF7E4FF0130430065
:1031EC009BB233802B7003236B70013B08E0EA54D5
:1031FC0001345A1CD2B2AA18002111700233DBB26E
:10320C002278002AF3D170BD10B51300A5229200CC
:10321C00022484508361C3610A000021FDF777FB0F
:10322C00002010BD10B51300A52292000324845079
:10323C003D3AFF3A8350043283500A000021FDF7D7
:10324C006FFB002010BD000000B585B06B461873F5
:10325C0059730548FA239B000093022303AAA42167
:10326C00FFF79CFD05B000BDA401002010B584B093
:10327C000C000F226A4410700A48FA239B0000933A
:10328C000123A421FFF78AFD002801D004B010BD52
:10329C000448FA239B00009306232200A421FFF785
:1032AC0037FEF3E7A401002030B583B004000023FF
:1032BC0003705521F020FFF7C7FF002803D001252C
:1032CC00280003B030BD0021FB30FFF7BDFF002804
:1032DC0001D00125F4E76946FA30FFF7C7FF051E58
:1032EC001BD10F490622684600F086FB002801D14D
:1032FC00012323700B490622684600F07DFB002851
:10330C0001D10323237008490622684600F074FBA0
:10331C000028D5D102232370D2E70125D0E7C0467F
:10332C00F0440008E8440008E04400088278920069
:10333C0083799B079B0F13434B80C2789200837950
:10334C001B079B0F13438B800279920083799B069A
:10335C009B0F1343CB800023C3560B700123C35622
:10336C004B7043799B07DB0F4B724379DB07DB0F09
:10337C000B72704730B583B0050069460020FFF72B
:10338C0075FF041E02D0200003B030BD2900684632
:10339C00FFF7CCFFF7E703783F229343C02B35D0E0
:1033AC0000238B7003789B069B0E0B7043789B0657
:1033BC009B0E4B708378DB06DB0ECB70C378DB0681
:1033CC00DB0E0B7103795B07DB0F4B710379DB06AB
:1033DC00DB0F8B714379DB07DB0F0B7203795B0619
:1033EC00DB0FCB714379DB06DB0F4B7243795B064A
:1033FC00DB0F8B7243791B07DB0FCB7243799B0678
:10340C00DB0F0B734379DB094B73704743789343A2
:10341C00C02B01D00023C4E70123C2E730B583B031
:10342C00050069460020FFF721FF041E02D0200092
:10343C0003B030BD29006846FFF7ADFFF7E703780E
:10344C009B069B0E0B7043789B069B0E4B70037870
:10345C009B09DB0042789209520013438278D2090F
:10346C0013438B708378DB06DB0ECB7083785B06A3
:10347C009B0FDB00C278520913430B71C378DB0638
:10348C00DB0E4B714379DB06DB0F8B7143795B06EB
:10349C00DB0FCB7143791B07DB0F0B7243799B0658
:1034AC00DB0F4B7203795B07DB0F8B7203791B0706
:1034BC00DB0FCB720379DB06DB0F0B7303799B06F7
:1034CC00DB0F4B7303799B07DB0F8B734379DB09A2
:1034DC000B7443795B07DB0FCB7303795B06DB0F54
:1034EC004B740379DB098B744379DB07DB0FCB74EB
:1034FC0043799B07DB0F0B75704730B583B0050024
:10350C0069460020FFF7B2FE041E02D0200003B073
:10351C0030BD29006846FFF792FFF7E7002070479F
:10352C00002070470020704710B50100044C2000AB
:10353C0000F0E8F9200000F0F1F9002010BDC046C1
:10354C00F001002010B50649064C0022200000F0C6
:10355C00CAF90549200000F0D5F9002010BDC0467D
:10356C00E80B0020F0010020E813002010B5AF2379
:10357C009B00C458002C13D00433C358002B11D01B
:10358C0080229200A05CFF280ED09B68074AA25CA8
:10359C002100984780239B00FF22E254002010BD9D
:1035AC000320FCE70020FAE70020F8E70102000006
:1035BC004323038000487047B80000204323038056
:1035CC0000487047FC0000204323038000487047EC
:1035DC00740000200A230380004870477801002003
:1035EC0070B50400AF239B00C558002D0FD0FDF71C
:1035FC00A0F983239B00E850B433E358DB688322A3
:10360C009200A918083AA8589847002070BD0320CA
:10361C00FCE770B504000D00B1239B00C258083BB9
:10362C00C658002E2ED08B005B189B00C3189869CF
:10363C00002808D08B005B18DB00D218916CFCF7CB
:10364C0073FD002911D085239B000022F250AC336E
:10365C00E3581B69002B17D084229200B118083A4A
:10366C00B0582A009847002070BDAB005B199B0036
:10367C00E31800229A61002329002000FDF747F986
:10368C000020F1E70320EFE70020EDE7F0B583B071
:10369C0005000C00AF239B00C75800236A46D3716A
:1036AC0001AA1380002F00D17AE00B78602216005B
:1036BC001E401A4236D0202E00D06DE0CA88002A57
:1036CC0027D05BB2002B08DB4A7880239B00FA548E
:1036DC00CA883F2A14D8D2B213E0B0239B00C35837
:1036EC009B68487839009847E3881A1C072B00D947
:1036FC00072292B239002800FFF786FD002619E058
:10370C004022284BFA5439002800FFF78BFD002685
:10371C0010E0B0239B00C3589B6848780022984760
:10372C00002607E04F780A2F21D006D8002F0FD0A3
:10373C00012F2BD1300003B0F0BD0B2F26D1A723C6
:10374C009B00C35C032BF5D0FFF736FD0326F1E796
:10375C00A7239B00C35C032B03D0FFF72DFD03268F
:10376C00E8E7022201A9FFF74FFD3E00E2E7A7239D
:10377C009B00C35C032B03D0FFF71EFD0326D9E788
:10378C0001226B46D91DFFF73FFDD3E7210028002E
:10379C00FFF712FD0326CDE7FFF70EFD0326C9E761
:1037AC000326C7E70102000070B504008121FDF774
:1037BC009CF80025258701212000FDF796F8BC23F5
:1037CC005B00E55282212000FDF78FF84C23E55277
:1037DC000233E552AF239B00E358002B0BD0B023F0
:1037EC009B00E3585B689847AF25AD006059FDF727
:1037FC00ABF800236351002070BDF8B5040087209E
:10380C008000FDF79DF8051E3DD0AF239B00E050D6
:10381C00237C002B3DD18027BF003B00022281215D
:10382C002000FDF756F8012626873B0002220121D5
:10383C002000FDF74EF8BC235B00E6522B3BFF3B10
:10384C001022E2520823032282212000FDF741F8C6
:10385C004C230122E252B0239B00E3581B6898478B
:10386C00002385229200AB500432AB50267C002EF4
:10387C0025D18033143AAA589B0001212000FDF772
:10388C004FF83000F8BDAF239B000022E250022617
:10389C00F7E74023022281212000FDF71AF80126C8
:1038AC0026874023022201212000FDF712F8BC23B9
:1038BC005B00E6522B3BFF3B1022E252C2E7812316
:1038CC009B00EA58C53BFF3B01212000FDF728F87F
:1038DC000026D6E7002904D0B0239B00C15000205D
:1038EC0070470320FCE7AF239B00C358002B07D085
:1038FC00822080001950842189005A500020704782
:10390C000320FCE7AF239B00C358002B04D081227B
:10391C0092009950002070470320FCE710B5AF23AC
:10392C009B00C258002A16D0047C002C09D180239D
:10393C008121890052589B000121FCF7F1FF2000E6
:10394C0010BD81239B00D258C53BFF3B0121FCF7E6
:10395C00E7FF0024F3E70324F1E700000D48854658
:10396C00FFF7E6FB0C480D490D4A002302E0D45842
:10397C00C4500433C4188C42F9D30A4A0A4C0023AD
:10398C0001E013600432A242FBD300F011F8FCF703
:10399C0095FCFEE70040022000000020840100207E
:1039AC000045000884010020E81B0020FEE7000011
:1039BC0070B500260C4C0D4D641BA410A64209D109
:1039CC00002600F037FD0A4C0A4D641BA410A642D9
:1039DC0005D170BDB300EB5898470136EEE7B30044
:1039EC00EB5898470136F2E7F8440008F844000811
:1039FC00FC440008F844000830B500240139A24208
:103A0C0001D1002005E0035D01340D5DAB42F6D021
:103A1C00581B30BD03008218934200D170471970B7
:103A2C000133F9E7F0B589B0009201930D03CA0F89
:103A3C004B00060004002D0B5B0D0692059244D042
:103A4C005B4A93426AD0420FED0015438022120468
:103A5C002A430292574AC4009F180026019B019AE0
:103A6C001D03D20F5B0000982D0B5B0D079265D0E8
:103A7C004F4A934200D188E0ED004E49420F2A4351
:103A8C0080255B189C462D041543C2000021079B22
:103A9C000698584063460490B0000843FB1A01385E
:103AAC0003930E2800D989E0FCF74AFB7E0028021C
:103ABC00D40128021E022802D4017E007E001E02C0
:103ACC00D401C701C701C701B5012B000343029301
:103ADC002CD0002D15D02800FCF73CFB0100030076
:103AEC000B391D22521A31001800D140083885407C
:103AFC000A002A433500854002922F4F2C00FF1AF2
:103B0C00ABE7FCF727FB01000300153120331C2920
:103B1C00E7DD3200083882400292EEE702002A43C9
:103B2C00029207D01F000326029597E7029C0126FC
:103B3C00270093E71F000226029C8FE7009A2A4376
:103B4C002AD0002D15D02800FCF704FB0100020040
:103B5C000B391D2310005B1A009908388540D94099
:103B6C002943009D8540144B9B1A9C462A000D004E
:103B7C008CE7FCF7EFFA01000200153120321C290A
:103B8C00E7DD009908388140EDE7009A2A4307D019
:103B9C0002009C4603217AE715009446012176E742
:103BAC0015009C46022172E700231C00004A22E10A
:103BBC00FF07000001FCFFFF0DFCFFFF029B9D4275
:103BCC0004D300D022E1A24200D91FE1029BE607F8
:103BDC00D907630819430C00029B5B08029313027C
:103BEC002D02170E00932B0C2F4307930799BBB292
:103BFC0002980593FCF798FABBB243430A04210CD4
:103C0C00050011438B4207D9C919013D8F4203D8D6
:103C1C008B4201D9851EC919C81A0799FCF784FA79
:103C2C00BAB242430904A4B203000C43A24207D91E
:103C3C00E419013BA74203D8A24201D9831EE4191F
:103C4C002D041D43A41A009B009A1B0C120405930F
:103C5C00120CABB206925A4306980292059A290CA2
:103C6C00484353435143029A1B18120C9446634425
:103C7C00984202D9802252028918029A180C120416
:103C8C001B04120C40189A18844203D302951ED1BF
:103C9C0096421CD26B1E0293009BF6189E429B41CF
:103CAC005B42DB19E418A74203D310D1009BB3424B
:103CBC000DD8A04202D80AD1B24208D9AB1E029349
:103CCC00009BF6189E429B415B42DB19E418B51A27
:103CDC00AE42B641201A7642801B874200D1BEE02C
:103CEC000799FCF721FABBB243430A04290C0400E0
:103CFC0011438B4207D9C919013C8F4203D88B421F
:103D0C0001D9841EC919C81A0799FCF70DFABBB260
:103D1C0043430904ADB202000D43AB4207D9ED1980
:103D2C00013AAF4203D8AB4201D9821EED19ED1A0C
:103D3C002304059E1343069906981C0C9AB2514312
:103D4C0060437243744312180E0CB218904202D99D
:103D5C00802040022418100C09041204090C0019CC
:103D6C005118854204D31C00854219D1002919D061
:103D7C007D195C1EBD420ED3854203D310D1009A2F
:103D8C008A420AD29C1E009B5A009A429B415B427B
:103D9C00DB19ED180092854202D1009B994201D0AB
:103DAC0001231C43039B5B4A9A18002A5ADD6307C4
:103DBC000BD00F232340042B07D0231DA342A44177
:103DCC000299644209191C000291029BDB0108D57F
:103DDC00514B029A1A408023DB009C460292039AB4
:103DEC0062444E4B9A4200DD8CE0029BE4085B0778
:103DFC001C43029BDB081B0312051B0B1343049A89
:103E0C002000D2071343190009B0F0BD039B002614
:103E1C00013B0393E3E6802302991B03194205D06F
:103E2C001D4203D11400079B029505938023029A2F
:103E3C001B031343059A0492B8E63100069B0493C6
:103E4C0002295FD0032956D00129ABD100242300CD
:103E5C002200D0E7079B140002950493F0E701249D
:103E6C0064429FE70121891A3829EFDC1F2926DCDF
:103E7C002B4A039B9446634420009C40029AC84002
:103E8C009A4023000243581E83411A43029B14009C
:103E9C00CB40620709D00F222240042A05D0221DF4
:103EAC00A242A44164421B19140080211A00090487
:103EBC000A400B4229D1E1085C070C439AE71F2307
:103ECC005B429B1A029ADA400023202906D015493E
:103EDC00039B8C460299634499400B001C43631E60
:103EEC009C4100231443D4E700231C00059380233A
:103EFC001B0302939AE7049B059397E700231C008E
:103F0C001A0078E70024230050E6002301221C004D
:103F1C0071E7C046FF030000FFFFFFFEFE07000035
:103F2C001E0400003E040000F0B58BB0009201931B
:103F3C000D034B00CA0F06002D0B5B0D059200D133
:103F4C0014E1CF4A934200D138E1ED00420F2A43ED
:103F5C0080252D041543CB4AC4009B1803930023E2
:103F6C000293019B00981E035A00DB0F360B520D77
:103F7C00049300D131E1C24B9A4200D153E1430F7B
:103F8C00F60033438026BF4936041E43C300501845
:103F9C0000220599049F79400091039941180691DC
:103FAC00013103910299880010430A2800DD73E166
:103FBC00022800DD46E10138012800D855E1190C32
:103FCC009BB202911900220CA4B2514320008C46E2
:103FDC00029F029958435143674305916744010C72
:103FEC00C91904908C4505D9802040028446059F50
:103FFC0067440597080C84466846008A090409182A
:10400C000991310CB6B2049130002100049F504349
:10401C007C4371437A4324180F0C3C19A04202D9FB
:10402C00802040021218200C8218240489B20792B6
:10403C0062180892089962468C46290CADB2280089
:10404C00029F58436F434B4362449446029CFF18B3
:10405C00020CD2194C43934202D980235B02E41820
:10406C00130C1B1902932B0080B212041218049823
:10407C00734345434E434143A8191D0C2D18AE42C2
:10408C0002D9802040020918059C6046A446089C71
:10409C006044A042BF418018904292412E049BB2D2
:1040AC00F618079B7F42F61853420493029BF419AF
:1040BC009C46A4446346049ABC42A4419B18079AAC
:1040CC0064429642B641029A764234432D0C6419EE
:1040DC009445AD41049A6D4293429241524215432C
:1040EC006419099A6418410211434A1E9141C00D8A
:1040FC00DE0D640201435B0226430B43E40100D452
:10410C00DFE001215A080B401A43F307CE4013435A
:10411C00039A5D495218002A00DCD5E0590709D0F2
:10412C000F211940042905D0191D99429B415B426E
:10413C00F6180B00F10106D58021C9008C46534AB4
:10414C001640039A624452498A4200DD09E1740721
:10415C00DB081C43F60813053603009A360B334371
:10416C00D2071343200019000BB0F0BD2C00044300
:10417C002BD0002D16D02800FBF7ECFF040002001A
:10418C000B3C1D2330001B1B1100D84008398D40FF
:10419C0003002B4335008D403E492C008A1A1D002C
:1041AC000392DCE6FBF7D6FF040002001534203244
:1041BC001C2CE6DD330008388340EDE704002C436B
:1041CC0007D0039304000323CAE6250001230394BC
:1041DC00C6E6039325000223C2E6009B334329D095
:1041EC00002E14D03000FBF7B5FF010003000B3993
:1041FC001D221800521A009908388640D1403143CC
:10420C00009E86402348C01A33000E00C0E6FBF720
:10421C00A1FF01000300153120331C29E8DD0099B2
:10422C0008388140EEE7009B334307D003001000B1
:10423C000322AEE61E0018000122AAE610001E00A2
:10424C000222A6E601218140A6200F00C0000740F3
:10425C00014227D190208000014277D1B938FF3834
:10426C00014200D1ABE604990091022A79D0032ACD
:10427C0075D0012A00D04BE70026340032006AE7E3
:10428C00FF07000001FCFFFFFF030000FFFFFFFE24
:10429C00FE0700000DFCFFFF059900910F2805D0CB
:1042AC000B28E0D02E002300029ADEE780221203B6
:1042BC0015424FD016424DD13500049A00921C0085
:1042CC0048E0069A039223E70120801A3828D3DCB1
:1042DC001F2827DC2649039A8C461C0062443100B7
:1042EC0093409140C4401A002143531E9A410B0045
:1042FC00C64013435A0709D00F221A40042A05D08E
:10430C001A1D9A429B415B42F61813008021300023
:10431C00090408400E4227D17407DB0802001C4335
:10432C00F60818E71F2149428A1A3100D1400022B1
:10433C00202805D00F48039A8446624496403200E8
:10434C0013435A1E934100260B43D3E780253C00B0
:10435C002D030097802636032E43074AFBE63500D3
:10436C00ADE700263400F8E7002601223400F2E61F
:10437C001E0400003E040000FF0700000B0070B597
:10438C00114E0C0349000200240B0020490DDD0FD7
:10439C00B14204DD0D48814202DD0D4BE81870BDC1
:1043AC008020400320430B4C641A1F2C08DC0A4E5F
:1043BC00E240891988401043002DF0D04042EEE7CE
:1043CC00064B5B1AD840F7E7FE0300001D04000003
:1043DC00FFFFFF7F33040000EDFBFFFF1304000021
:1043EC0070B5030002000600051E11D0C217851817
:1043FC005540C40F2800FBF7ADFE0D4A121A0A28CF
:10440C000FDC0B232E001B1A1530DE4085402300D9
:10441C003603360B12053243DB071A432800110012
:10442C0070BD0B38854023002E000025F0E7C046F8
:10443C001E040000F8B5C046F8BC08BC9E46704788
:0C444C00F8B5C046F8BC08BC9E4670479E
:1044580053544D3332205669727475616C20436F22
:104468006D506F727400000053544D6963726F652C
:104478006C656374726F6E69637300004344432014
:10448800436F6E666967000043444320496E746554
:104498007266616365000000000000000000000013
:1044A8000000000000000000000000000000000004
:1044B80000000000000000000100000002000000F1
:1044C80003000000040000000600000007000000D0
:1044D80008000000090000000000A42001030000FB
:1044E8000100A420010100000000A4200000000039
:0444F800C5010008F2
:0444FC009D01000816
:104500001A0300000000000000000000000000008E
:104510000000000000000000000000000403090487
:10452000120100020202004083044057000201020F
:104530000301000095060008A106000859070008BD
:10454000310700081D070008750700089D070008CF
:104550000000000001000000040000000024F4003E
:1045600051350008293500082D350008353500087B
:104570003135000809074300020104C03209040074
:1045800000010202010005240010010524010001C0
:104590000424020205240600010705820308001016
:1045A00009040100020A00000007050102400000A2
:1045B000070581024000000009024300020100C01B
:1045C0003209040000010202010005240010010567
:1045D00024010001042402020524060001070582CB
:1045E0000308001009040100020A00000007050189
:1045F000024000000705810240000000090243005C
:10460000020100C032090400000102020100052479
:104610000010010524010001042402020524060003
:10462000010705820308001009040100020A0000C6
:1046300000070501020002000705810200020000D8
:1046400007380008B5370008993600080000000058
:10465000793500081F360008ED350008000000001D
:104660000000000000000000C9350008BD3500084A
:10467000D5350008E13500080A06000200000040B8
:044680000100000035
:04000005080039694D
:00000001FF
