:020000040800F2
:1000000000400220F93300081D0400081F04000806
:1000100000000000000000000000000000000000E0
:1000200000000000000000000000000021040008A3
:100030000000000000000000230400082504000860
:10004000493400084934000849340008493400089C
:10005000493400084934000849340008493400088C
:10006000493400084934000849340008493400087C
:10007000493400084934000849340008493400086C
:10008000493400084934000849340008493400085C
:10009000493400084934000849340008493400084C
:1000A000493400084934000849340008493400083C
:0C00B000493400084934000849340008B5
:1000BC00002934D00123002210B488422CD301240F
:1000CC002407A14204D2814202D209011B01F8E7A4
:1000DC00E400A14204D2814202D249005B00F8E75D
:1000EC00884201D3401A1A434C08A04202D3001B89
:1000FC005C0822438C08A04202D3001B9C082243BC
:10010C00CC08A04202D3001BDC082243002803D0F9
:10011C001B0901D00909E3E7100010BC704701B5B9
:10012C00002000F00BF802BD0029F8D003B5FFF752
:10013C00C1FF0EBC4243891A1847C0467047C046DF
:10014C0010B5064C2378002B07D1054B002B02D0A1
:10015C00044800E000BF0123237010BD640100209F
:10016C0000000000C0340008044B10B5002B03D075
:10017C000349044800E000BF10BDC0460000000069
:10018C0068010020C034000872B6FEE700B5A7B0C5
:10019C003C22002117A803F085F91022002113A896
:1001AC0003F080F94C220021684603F07BF9802093
:1001BC00800002F01DFA22231793DE331A9380235A
:1001CC00DB031E9300231B9340221C923E3A1F928A
:1001DC00209221930833229380239B022393802324
:1001EC009B04249380239B05259317A801F008FCFE
:1001FC00002818D107231393053B14930023159360
:10020C001693022113A801F0E5FE00280DD1094B2D
:10021C000093002307931193684601F0A1FF002877
:10022C0005D127B000BDFFF7AFFFFFF7ADFFFFF71C
:10023C00ABFFC0464000000110B586B002F07AFA60
:10024C00FFF7A4FF00F01AF800F082F800F004F9B0
:10025C0002F098FF040002E0684603F0B6F8022CA6
:10026C0007D0032CF8D0012CF9D1684602F0EAFF34
:10027C00F5E7684603F03AF8F1E7000070B58AB08C
:10028C001422002105A803F00DF92A4B596B022208
:10029C0011435963596B0A400092009A5A6B042619
:1002AC0032435A635A6B32400192019A596B2022A5
:1002BC0011435963596B0A400292029A596B0122FD
:1002CC0011435963596B0A400392039A596B0822E4
:1002DC00114359635B6B1A400492049B164B0593B4
:1002EC000324069405A9154802F0B8F8C0231B0294
:1002FC00059306940025079505A9114802F0AEF860
:10030C0005960694079505A90E4802F0A7F80E4B22
:10031C00059306940795A02005A9C00502F09EF848
:10032C000F2305930694079505A9084802F096F843
:10033C000AB070BD00100240C383000000040050DE
:10034C0000080050001400503F070000000C005043
:10035C0010B51448144B0360144B436000238360A6
:10036C000122C260036143618361C361036202F0D5
:10037C003FFB00280CD10B48002102F013FD002894
:10038C0009D10848002102F039FD002806D110BD22
:10039C00FFF7FAFEEFE7FFF7F7FEF2E7FFF7F4FEE1
:1003AC00F5E7C0468001002000580040BC7D70106D
:1003BC0010B588B004001422002103A803F072F8D1
:1003CC002268114B9A4201D008B010BD0F4C626BE1
:1003DC0001231A436263626B13400193019BC02398
:1003EC000393AE3B04930A3B0793A02003A9C005DB
:1003FC0002F034F8E36B8022D2031343E363E36B24
:10040C0013400293029BDFE70058004000100240AB
:10041C00FEE7FEE77047704710B502F09FF910BD7C
:10042C0000B583B00B4B196C012211431964196C84
:10043C000A400092009ADA6B802149050A43DA637C
:10044C00DB6B0B400193019BC020C00002F098F9BC
:10045C0003B000BD0010024010B50E490E4800223A
:10046C0002F0F7FC00280BD10C490B4802F00BFDF5
:10047C00002808D1084802F021FD002806D110BD43
:10048C00FFF782FEF0E7FFF77FFEF3E7FFF77CFE56
:10049C00F5E7C04600000020CC010020A800002099
:1004AC0012230B80004870472000002004230B808F
:1004BC00004870473400002030B500230AE05D008E
:1004CC0037344C5500015C0001340C1900252570A3
:1004DC000133DBB2934206D2040F092CEFD85D0036
:1004EC0030344C55EEE730BD70B50B4B18680B4BE8
:1004FC001D680B4B1B68C018002800D170BD094C3F
:10050C00A11C0822FFF7D8FF210012310422280079
:10051C00FFF7D2FFF2E7C0469075FF1F9475FF1FDF
:10052C009875FF1F3800002010B51A230B80FFF7B9
:10053C00DBFF014810BDC0463800002010B50A0092
:10054C00002805D10549064802F0D0FC034810BD2F
:10055C000249034802F0CAFCF8E7C0469C0400209C
:10056C00D834000810B50A00034C0448210002F0EE
:10057C00BDFC200010BDC0469C040020EC340008DB
:10058C0010B50A00002805D10549064802F0AEFC5A
:10059C00034810BD0249034802F0A8FCF8E7C04626
:1005AC009C0400200035000810B50A00002805D175
:1005BC000549064802F09AFC034810BD024903485D
:1005CC0002F094FCF8E7C0469C0400200C350008AF
:1005DC00022804D005D8002800D003207047012041
:1005EC00FCE70320FAE7000010B582B00268134B59
:1005FC009A4201D002B010BD114BDA6B80218901F7
:10060C000A43DA63DA6B0A400092009ADB6BDB0078
:10061C0010D40B4CE36B802252051343E363E36B62
:10062C0013400193019B01F0D9FFE36B054A134082
:10063C00E363DFE701F0D2FFDCE7C046005C00407B
:10064C0000100240FFFFFFEF70B504001948C023F3
:10065C009B00C4503C3BE050174B036008234360A5
:10066C008360063BC360436100238361C361036203
:10067C0043628362C362036300F056F8002816D10C
:10068C00B125AD00605918230022002100F0B1F90A
:10069C00605958230022802100F0ABF96059802367
:1006AC005B000022812100F0A4F9002070BDFFF74F
:1006BC006BFDE5E79C060020005C004010B5B12303
:1006CC009B00C05800F0A2F8FFF782FF10BD10B5D8
:1006DC0014001A00B1239B00C058230000F0ADF8A1
:1006EC00FFF776FF10BD10B5B1239B00C05800F08A
:1006FC00E7F8FFF76DFF10BD10B5B1239B00C05894
:10070C0000F03CF9FFF764FF10BD10B5B124A40054
:10071C00005900F00DF9FFF75BFF10BD0048704762
:10072C00A00900207047000070B58AB0041E68D084
:10073C00354BC35C002B07D0334B0322E2542068AB
:10074C0000F08EF900221BE0AE239B000022C25465
:10075C00FFF74AFFF0E791008B18DB00E318180055
:10076C00393001250570013802700C3002801D00F3
:10077C003B35002028709864D86418650132D2B2D9
:10078C0060688242E7D3002119E08A005318DB002D
:10079C00E3181E007A36FF3600253570013E3170A5
:1007AC00033635700D3635608D33FF331D605218AE
:1007BC00D200A2189132FF3215600131C9B28842C1
:1007CC00E3D82068230010336A4662CB62C262CB46
:1007DC0062C262CB62C26168A268E36800F056F93B
:1007EC0034230022E254084B0132E254236A012BD9
:1007FC0002D000200AB070BD200000F017F90020D4
:10080C00F8E70120F6E7C046B902000070B5040015
:10081C00AE239B00C35C012B0DD0AE25AD00012394
:10082C004355006800F014F9206800F08FFB00239A
:10083C006355002070BD0220FCE770B504000D006C
:10084C0049B2002929DB07262E40B0008119C900C6
:10085C007931FF3161188019C00020187A30FF30CF
:10086C00002606700720284008700A61CB704A7871
:10087C00002A00D08881022B1DD0AE239B00E35CA4
:10088C00012B1BD0AE25AD0001236355206800F071
:10089C0013F900236355002070BD07262E40B000CD
:1008AC008119C900383161188019C00020183930FD
:1008BC0001260670D6E70023CB72DEE70220EBE7B9
:1008CC0070B504000A004BB2002B21DB0720084056
:1008DC0083001918C9007931FF3161181B18DB002E
:1008EC00E3187A33FF3300201870072313400B7082
:1008FC00AE239B00E35C012B18D0AE25AD00012389
:10090C006355206800F054FA00236355002070BD35
:10091C000720084083001918C900383161181B18CA
:10092C00DB00E318393301201870DEE70220EEE714
:10093C00F8B507260E40B500A919C9003831411881
:10094C00AC19E4000419E264236527005C3701222A
:10095C003A70A3650023636539342270AD19ED003C
:10096C00451938352E70002E04D1006800F024FB98
:10097C000020F8BD006800F01FFBF9E770B504001B
:10098C000B0007220A4041688A422ED859B200292E
:10099C001FDB9800C118C9007931FF316118C018EC
:1009AC00C00020187A30FF300023037001238B70B5
:1009BC000A70AE239B00E35C012B18D0AE25AD0072
:1009CC0001236355206800F09DFA00236355002035
:1009DC0070BD93009918C900383141189B18DB0081
:1009EC00C318393301201870E0E70120F0E702202A
:1009FC00EEE710B50C060CD507240C40A100091924
:100A0C00C90038314018002A0AD182728380002034
:100A1C0010BD8C006118C9007931FF314018F2E724
:100A2C0001228272C3801B0C0381F0E710B50368AE
:100A3C000121BE2292008150083A002484545A6D40
:100A4C000A435A655A6D01310A435A65002010BD9C
:100A5C0000234364014B03640020704780BF0000F7
:100A6C00036C024A13400364002070477F40FFFF71
:100A7C00002905D1036C5B005B0803640020704700
:100A8C00026C80231B0613430364F7E784B010B594
:100A9C00040003910492059301220264036C9343B6
:100AAC0003640021FFF7E4FF00236364002010BC03
:100ABC0008BC04B018470000F0B503000C78A40083
:100ACC0004192268B0480240C878022856D00AD8C7
:100ADC0000284FD0012804D18020C0000243002000
:100AEC0009E0012007E0032804D1C020C000024324
:100AFC00002000E00120A54D2A4322600C78A200C2
:100B0C009A181668A24F3E403443254315608A7AE2
:100B1C00002A00D0A3E04A78002A3BD00A78D20001
:100B2C009C4CA44662441468240C240414600A7877
:100B3C00D200624415688C88A408A4002C4314606D
:100B4C000A7892009A181468640604D515683D401A
:100B5C00914C2C431460CA78012A11D00A78920067
:100B6C009B181A688D490A4020214A4087490A433C
:100B7C001A6052E08025AD002A43BCE70020BAE79A
:100B8C000A7892009B181968844A11407F4A0A43DC
:100B9C001A6042E00A78D2007E4CA4466244546843
:100BAC00240C240454600A78D200624455688C8862
:100BBC00A408A4002C4354600A78D2006244546800
:100BCC002404240C54600A69002A27D10A78D20024
:100BDC0062445468724D2C4054600A78D2006244CE
:100BEC005568802424062C4354600A7892009A1885
:100BFC001468640405D51568654C2540694C2C4374
:100C0C0014600A7892009B181A6867490A40C02140
:100C1C00890151405D4A0A431A60F0BD3E2A0DD845
:100C2C005408D20700D501340A78D200594DAC468D
:100C3C0062445568A4062C435460D6E75409D20686
:100C4C0000D1013C0A78D200524DAC466244556842
:100C5C00A4062543802424062C435460C5E70A7857
:100C6C0092009A1815684A4C2540504C2C4314603D
:100C7C000A78D200474CA44662441468240C24041D
:100C8C0014600A78D20062441568CC88A408A400C9
:100C9C002C4314600A78D20062445468240C240457
:100CAC0054600A78D200624455680C89A408A400E8
:100CBC002C4354604A78002A2CD10A7892009A1856
:100CCC001468640405D51568314C2540354C2C430B
:100CDC0014600A7892009A181468640605D5156891
:100CEC002B4C25402C4C2C4314600A7892009A18FB
:100CFC0015682D4C2540C024A4016C40234D2C4379
:100D0C0014600A7892009B181A6824490A4015430B
:100D1C001D6082E70A7892009A181468640405D55D
:100D2C0015681B4C25401F4C2C4314600A7892000C
:100D3C009A181468640605D51568154C2540164C90
:100D4C002C431460CA78012A14D00A7892009A189D
:100D5C001468124D2C4020256C400C4D2C43146013
:100D6C000A7892009B1819680F4A1140074A0A43E7
:100D7C001A6052E70A7892009A181568074C2540B9
:100D8C00024C2C431460EBE78F897F0780800000B6
:100D9C008F8F7F0700980040C0800000BF8F7F07B7
:100DAC00FFFFFF8380C000008FBF7F0780810000A2
:100DBC0010B58B7A002B2FD14B78002B16D00B78DB
:100DCC009B00C3181A68520605D51C68474A144084
:100DDC00474A22431A600B789B00C3181968454A8E
:100DEC001140454A0A431A60002010BD0B789B0045
:100DFC00C3181A68520405D51C683C4A14403F4A73
:100E0C0022431A600B789B00C31819683C4A1140A6
:100E1C00394A0A431A60E7E74B78002B32D10B783A
:100E2C009B00C3181A68520405D51C682F4A14403D
:100E3C00324A22431A600B789B00C3181A68520678
:100E4C0005D51C68294A1440294A22431A600B789C
:100E5C009B00C3181C68254A1440254A22431A607B
:100E6C000B789B00C3181A68254C2240224C224355
:100E7C001A600B789B00C3181A681E490A40144369
:100E8C001C60B1E70B789B00C3181A68520405D597
:100E9C001C68164A1440194A22431A600B789B00AE
:100EAC00C3181A68520605D51C68104A1440104A1B
:100EBC0022431A600B789B00C3181C680B4A144021
:100ECC000E4A22431A600B789B00C3181A68094C0F
:100EDC002240094C22431A600B789B00C01803680F
:100EEC00074A13401C4304607EE7C0468F8F7F0780
:100EFC00C0800000BF8F7F078080000080C0000092
:100F0C008FBF7F074B78002B0CD00B789B00C01841
:100F1C0003680B4A1340102253400A4A13430360E0
:100F2C00002070470B789B00C0180368064A1340DA
:100F3C00802252015A40034B13430360F0E7C04632
:100F4C00BF8F7F07808000008FBF7F07826D80235B
:100F5C001B021343836500207047000070B5DC1C36
:100F6C00A408032005001D40184200D0013C114B81
:100F7C009C4662440CE008784B781B02034388784B
:100F8C0000041843CB781B06034308C20431013C10
:100F9C00002CF0D1002D0BD020000B78E600B340D4
:100FAC00184301340131013DADB2002DF5D1106073
:100FBC0070BDC0460098004070B505000C004B7821
:100FCC00012B33D08A7A002A00D0B7E38B690969E8
:100FDC008B4200D88DE35B1AA3612378DB00CC4AEB
:100FEC00944663445A681204120C5A60002900D0CB
:100FFC0083E32378DB0063445A68C6490A405A608D
:10100C002378DB0063445968802212060A435A6035
:10101C0023789B00ED182B68BF4A1340C022920125
:10102C005A40BE4B13432B60002070BD8E690A6979
:10103C00964200D91600A37A002B34D0E378022B09
:10104C0054D023789B00EB181968B54A1140B54A67
:10105C000A431A60236A9B1B236223789A00AA18FE
:10106C001268520600D48FE26278002A00D01CE28B
:10107C00DB00A74A944663445A681204120C5A6067
:10108C00002E00D0F0E12378DB0063445A68A149BC
:10109C000A405A602378DB006344596880221206A8
:1010AC000A435A6003E2B3B2A28861692800FFF7D1
:1010BC0055FF2378DB00964A944663441A68120461
:1010CC00120C1A602278D2006244116836040E4366
:1010DC00166023789B00EB181A6893490A4030215C
:1010EC004A408E490A431A6000209EE7236A9A42BE
:1010FC0000D399E123789B00EB181968884A1140BA
:10110C00884A0A431A60236A9B1B236223789A003D
:10111C00AA181268520600D4BBE06278002A3AD1B1
:10112C00DB007B4A944663445A681204120C5A60E2
:10113C00002E0FD12378DB0063445A6875490A40AE
:10114C005A602378DB0063445968802212060A43F4
:10115C005A6022E03E2E0DD87208F30700D50132FA
:10116C002378DB006A498C466344596892060A432B
:10117C005A6012E07209F30600D1013A2378DB00C1
:10118C0063498C46634459689206114380221206C7
:10119C000A435A6001E0012A2CD02289B3B261695A
:1011AC002800FFF7DBFE63699B196361236A2269E0
:1011BC0093422FD99B1B23626378002B4FD123784A
:1011CC00DB00534A944663441A681204120C1A60EA
:1011DC00002E23D12378DB0063441A684D490A4062
:1011EC001A602378DB0063441968802212060A43D4
:1011FC001A6036E0DB00464A944663445A6812048F
:10120C00120C5A602378DB0063445A6831040A4399
:10121C005A60C2E7002222621E00CDE73E2E0DD896
:10122C007208F30700D501322378DB0038498C466D
:10123C006344196892060A431A6012E07209F306B5
:10124C0000D1013A2378DB0031498C46634419689C
:10125C0092061143802212060A431A6001E0012B08
:10126C0006D0E288B3B261692800FFF777FE30E759
:10127C002378DB00264A944663441A681204120C45
:10128C001A602378DB0063441A6831040A431A603D
:10129C00E7E76278002A49D1DB001D4A9446634493
:1012AC001A681204120C1A60002E0FD12378DB007E
:1012BC0063441A6817490A401A602378DB006344B8
:1012CC001968802212060A431A6031E03E2E0DD8AE
:1012DC007208F30700D501322378DB000C498C46E9
:1012EC006344196892060A431A6021E07209F306F6
:1012FC0000D1013A2378DB0005498C466344196818
:10130C0092061143802212060A431A6010E0C0466E
:10131C0000980040FFFFFF838FBF7F078080000095
:10132C008F8F7F0780810000BF8F7F07012A2CD011
:10133C00E288B3B261692800FFF710FE63699B195C
:10134C006361236A226993422FD99B1B23626378C2
:10135C00002B4FD12378DB00CC4A944663445A6867
:10136C001204120C5A60002E23D12378DB00634444
:10137C005A68C7490A405A602378DB0063445968AD
:10138C00802212060A435A6036E0DB00BF4A9446BC
:10139C0063441A681204120C1A602378DB0063444D
:1013AC001A6831040A431A60C2E7002222621E0046
:1013BC00CDE73E2E0DD87208F30700D50132237805
:1013CC00DB00B2498C466344596892060A435A6062
:1013DC0012E07209F30600D1013A2378DB00AB4925
:1013EC008C466344596892061143802212060A43C4
:1013FC005A6001E0012B06D02289B3B26169280042
:10140C00FFF7ACFD65E62378DB00A04A9446634405
:10141C005A681204120C5A602378DB0063445A6831
:10142C0031040A435A60E7E722789200AA18106840
:10143C00984908409849014311602278D200934999
:10144C008C46624411680904090C11602278D200A0
:10145C0062441168180401431160E2889BB261690F
:10146C002800FFF77BFD34E63E2E0DD87208F307FB
:10147C0000D501322378DB0084498C4663445968DB
:10148C0092060A435A6012E07209F30600D1013A3F
:10149C002378DB007D498C466344596892061143DE
:1014AC00802212060A435A6001E0012A2DD02289BB
:1014BC00B3B261692800FFF751FD63699B19636141
:1014CC00236A2269934230D99B1B2362002E00D1E0
:1014DC00FFE56378002B3DD12378DB006B4A944603
:1014EC0063441A681204120C1A603E2E21D872083A
:1014FC00F30700D501322378DB0064498C46634442
:10150C00196892060A431A6026E0DB005F4A94468B
:10151C0063445A681204120C5A602378DB0063444B
:10152C005A6831040A435A60C1E7002222621E0045
:10153C00CCE77209F30600D1013A2378DB0053495A
:10154C008C466344196892061143802212060A43A2
:10155C001A6001E0012B06D0E288B3B26169280061
:10156C00FFF7FCFCB5E52378DB00484A944663445E
:10157C001A681204120C1A602378DB0063441A6890
:10158C0031040A431A60E7E76278002A3AD1DB009B
:10159C003E4A944663441A681204120C1A60002ED8
:1015AC000FD12378DB0063441A6839490A401A606A
:1015BC002378DB0063441968802212060A431A6000
:1015CC0022E03E2E0DD87208F30700D501322378A5
:1015DC00DB002E498C466344196892060A431A6054
:1015EC0012E07209F30600D1013A2378DB00274997
:1015FC008C466344196892061143802212060A43F2
:10160C001A6001E0012A2DD0E288B3B2616928008A
:10161C00FFF7A4FC63699B196361236A22699342F7
:10162C0030D99B1B2362002E00D152E56378002B2E
:10163C0045D12378DB00154A944663445A6812045A
:10164C00120C5A603E2E29D87208F30700D50132CD
:10165C002378DB000D498C466344596892060A4393
:10166C005A602EE0DB00094A944663441A6812045F
:10167C00120C1A602378DB0063441A6831040A43A5
:10168C001A60C1E7002222621E00CCE700980040DD
:10169C00FFFFFF838F8E7F07808000007209F306A7
:1016AC0000D1013A2378DB00D0498C466344596859
:1016BC0092061143802212060A435A6001E0012B64
:1016CC0006D02289B3B261692800FFF747FC00E518
:1016DC002378DB00C54A944663445A681204120C02
:1016EC005A602378DB0063445A6831040A435A6019
:1016FC00E7E70022A26119006FE43E290DD84A08E1
:10170C00C90700D501322378DB00B8498C46634405
:10171C00596892060A435A607AE44A09C90600D10C
:10172C00013A2378DB00B1498C4663445968920630
:10173C001143802212060A435A6069E4CA78022ACD
:10174C0047D0012A00D04DE189692269914200D825
:10175C00EAE0891AA161002B1AD12378DB00A34996
:10176C008C46634419680904090C1960002A00D0DE
:10177C00DEE02378DB00634419689D480140196062
:10178C002378DB0063441868802109060143196043
:10179C006378002B00D00FE12378DB0093498C4653
:1017AC00634459680904090C5960002A00D0E0E030
:1017BC002378DB0063445A688D490A405A602378C9
:1017CC00DB0063445968802212060A435A60FFF713
:1017DC001FFC002B1AD10B78DB00844A944663441F
:1017EC001A681204120C1A600B69002B2DD10B789D
:1017FC00DB0063441A687E490A401A602378DB00D8
:10180C0063441968802212060A431A606378002B1D
:10181C005DD12378DB00754A944663445A68120400
:10182C00120C5A602369002B30D12378DB006344FF
:10183C005A686F490A405A602378DB006344596840
:10184C00802212060A435A6043E03E2B0DD85A08F8
:10185C00DB0700D501322378DB0064498C466344F6
:10186C00196892060A431A60D0E75A09DB0600D1C0
:10187C00013A2378DB005D498C4663441968920673
:10188C001143802212060A431A60BFE73E2B0DD883
:10189C005A08DB0700D501322378DB0053498C460C
:1018AC006344596892060A435A6012E05A09DB06EF
:1018BC0000D1013A2378DB004C498C4663445968CB
:1018CC0092061143802212060A435A6001E0012B52
:1018DC0018D0E369002B01D1FFF79AFB23789B000A
:1018EC00EB181A6843490A408A4203D0002A01D0F7
:1018FC00FFF78EFB1968404A1140404A0A431A60B0
:10190C00FFF786FB2378DB00384A944663445A6819
:10191C001204120C5A602378DB0063445A68216964
:10192C0009040A435A60D4E70022A2610A0012E7B4
:10193C003E2A0DD85108D30700D501312378DB009E
:10194C002A488446634418688906014319601FE7D6
:10195C005109D30600D101392378DB002348844692
:10196C0063441868890608438021090601431960FD
:10197C000EE73E2A0ED85108D20700D50131237844
:10198C00DB001A4A944663445A6889060A435A6033
:10199C00FFF73EFB5109D20600D101392378DB0059
:1019AC00124A944663445A688906114380221206EF
:1019BC000A435A60FFF72CFB012B01D0FFF728FBE1
:1019CC002378DB0009498C46634459680904090CE7
:1019DC0059602378DB006344596812040A435A6047
:1019EC00FFF716FB0120FFF720FBC04600980040D4
:1019FC00FFFFFF83404000008F8F7F07C0800000F7
:101A0C0070B582B0041E00D161E20368DB0739D5E2
:101A1C00C14A916838230B40D16803220A40102B2D
:101A2C0026D0082B26D063688022520293427FD0A6
:101A3C00A022D202934200D181E0B74B1A68B74979
:101A4C000A401A601A68B6490A401A606368002B8B
:101A5C0000D180E000F08EFE0500AF4B1B689B03AD
:101A6C0010D400F087FE401B6428F6D903202FE227
:101A7C00032AD6D1A84B1B689B0303D56368002BA4
:101A8C0000D127E223689B0731D5A34A91683823FC
:101A9C000B40D16803220A40102B6AD0002B6BD16B
:101AAC009D4A1268520503D5E268002A00D113E260
:101ABC00994842689B490A40616909020A4342609D
:101ACC00002B0DD1036898490B4021690B4303602F
:101ADC000368DB0A07221A40944BD340944A1360E4
:101AEC00944B186800F0FAFD002800D0F6E123684A
:101AFC001B0700D481E0884B9A6838231340182BBD
:101B0C0073D0A369002B00D1B4E0834A136E01217A
:101B1C000B43136600F02EFE05007F4B1B6E9B07DC
:101B2C006BD400F027FE401B0228F6D90320CFE12E
:101B3C00794A116880235B020B43136086E7764B6E
:101B4C0019688022D2020A431A6019688022520254
:101B5C000A431A607AE700F00DFE05006E4B1B6815
:101B6C009B038FD500F006FE401B6428F6D903209A
:101B7C00AEE1022A92D193E7E368002B22D0664AA9
:101B8C00136869490B4021690B431360116880236A
:101B9C005B000B43136000F0EDFD05005E4B1B6812
:101BAC005B0506D400F0E6FD401B0228F6D90320A5
:101BBC008EE159494B685B4A134062691202134328
:101BCC004B6094E7544A13685B490B40136000F078
:101BDC00D1FD0500504B1B685B0588D500F0CAFD94
:101BEC00401B0228F6D9032072E14B4B1B6E9B075E
:101BFC0003D5A369002B00D172E123685B0700D4E5
:101C0C00A2E0454B9A6838231340202B45D0424B19
:101C1C00DB6BDB004AD4404BDA6B802149050A436D
:101C2C00DA63DB6B0B400193019B0125434B1B6873
:101C3C00DB053DD5A368012B4ED0052B52D0364B7E
:101C4C00DA6D01218A43DA65DA6D03318A43DA658C
:101C5C00A368002B50D000F08DFD06002E4BDB6DE1
:101C6C009B076FD400F086FD801B354B9842F5D94D
:101C7C0003202DE1284A136E01218B43136600F0DB
:101C8C0079FD0500244B1B6E9B07B6D500F072FD49
:101C9C00401B0228F6D903201AE11F4BDB6D9B0772
:101CAC0052D5A368002B4FD1012011E10025BDE7CF
:101CBC00224A116880235B000B43136000F05AFD2D
:101CCC0006001E4B1B68DB05B4D400F053FD801BD3
:101CDC000228F6D90320FBE00F4AD36D01210B43F8
:101CEC00D365B5E70C4BDA6D04210A43DA65DA6D7E
:101CFC0003390A43DA65ABE700F03CFD0600064BFE
:101D0C00DB6D9B071ED500F035FD801B0C4B9842FC
:101D1C00F5D90320DCE0C04600100240FFFFFEFFB7
:101D2C00FFFFFBFFFF80FFFFFFC7FFFF0024F40056
:101D3C005800002054000020FFFEFFFF0070004000
:101D4C0088130000012D19D023689B062FD5E36959
:101D5C00002B19D06B4A11688023DB030B431360F3
:101D6C0000F008FD0500674B1B681B021FD400F038
:101D7C0001FD401B0228F6D90320A9E0614AD36B70
:101D8C0061490B40D363DFE75E4A13685F490B4040
:101D9C00136000F0EFFC05005A4B1B681B0206D5C4
:101DAC0000F0E8FC401B0228F6D9032090E0236ADF
:101DBC00002B00D196E0534A916838220A40102A31
:101DCC005DD0022B1AD04F4B1A6851490A401A6049
:101DDC00DA6803218A43DA60DA684E490A40DA602D
:101DEC0000F0C8FC0400474B1B689B0145D500F074
:101DFC00C1FC001B0228F6D9032069E0414A136894
:101E0C0043490B40136000F0B5FC05003D4B1B68CB
:101E1C009B0106D500F0AEFC401B0228F6D903202E
:101E2C0056E0384AD3683C491940636AA06A0343B8
:101E3C00E06A00020343206B0343606B0343A06B17
:101E4C0003430B43D360116880235B040B43136083
:101E5C00D16880235B050B43D36000F08BFC04003E
:101E6C00284B1B689B0106D400F084FC001B022845
:101E7C00F6D903202CE000202AE0002028E0012BDA
:101E8C0032D0204BDA6803231340616A8B422DD188
:101E9C0070231340A16A8B422AD1FE21C901114043
:101EAC00E36A1B02994225D1F8239B031340216B53
:101EBC008B4221D1E0231B051340616B8B421DD15A
:101ECC00520F5207A36B9A421AD1002000E0012056
:101EDC0002B070BD0120FBE70120F9E70120F7E714
:101EEC000120F5E70020F3E70120F1E70120EFE7FF
:101EFC000120EDE70120EBE70120E9E70120E7E70E
:101F0C000120E5E700100240FFFFFFEFFFFFBFFFDE
:101F1C00FFFFFFFEFFFFFEEE8C80C11110B52A4BB8
:101F2C009B6838221A4207D1274B1A68D20A07231A
:101F3C0013402648D84010BD234B9A6838231340D1
:101F4C00082B3BD0204B9A6838231340102B0DD014
:101F5C001D4B9A6838231340202B31D01A4B9A68AA
:101F6C0038231340182B26D00020E4E7164AD168FA
:101F7C000D3B0B40D2681209072111400131032B94
:101F8C000FD01248FEF794F80F4BDA68120A7F2331
:101F9C00134058430C4BD968490F0131FEF788F8B0
:101FAC00C9E70B48FEF784F8074BDA68120A7F235F
:101FBC0013405843EEE7FA20C001BCE70448BAE7E7
:101FCC0080200002B7E7C046001002400024F40055
:101FDC0000127A0070B504000D00002800D1AAE0B0
:101FEC00574B1A68072313408B4221D323689A0757
:101FFC000ED55B0705D5534A9168E023DB010B43F3
:10200C009360504A936850490B40A1680B4393600E
:10201C002368DB0754D56368012B20D0022B3BD0FF
:10202C00002B3FD1474A126852051CD401206AE0AC
:10203C00434A136807218B432B43136000F09AFB30
:10204C0006003F4B1A6807231340AB42CED000F07A
:10205C0091FB801B3D4A9042F3D9032053E0394A4F
:10206C001268920369D537498A6807208243134363
:10207C008B6000F07FFB0600324B9B6838221A40C5
:10208C006368DB009A421BD000F074FB801B2F4B63
:10209C009842F1D9032036E02A4A12689201E2D420
:1020AC00012030E0032B05D0264AD26D9207DAD4FA
:1020BC00012028E0234A126E9207D4D4012022E09A
:1020CC001F4B1A6807231340AB421DD823685B07CC
:1020DC0006D51C4A93681E490B40E1680B4393607C
:1020EC00FFF71CFF174B9A68120A0F231340194A6B
:1020FC009B009A581F231340D840174B1860174B5E
:10210C00186800F0EBFA70BD0D4A136807218B4379
:10211C002B43136000F02EFB0600094B1A680723B3
:10212C001340AB42D2D000F025FB801B074B9842EA
:10213C00F3D90320E7E70120E5E70120E3E7C046F8
:10214C000020024000100240FFF0FFFF8813000047
:10215C00FF8FFFFF1C3500085800002054000020A2
:10216C00F0B583B0040003689B0362D5AE4BDB6B08
:10217C00DB001ED4AC4BDA6B802149050A43DA63D1
:10218C00DB6B0B400193019B0126A84A116880234D
:10219C005B000B43136000F0EDFA0500A34B1B68CA
:1021AC00DB0508D400F0E6FA401B0228F6D903251B
:1021BC0002E00026E9E70025002D23D19A4BD96DCA
:1021CC00C02292000B001340114210D0226C9A4294
:1021DC000DD0954AD36D96490B40D06D80214902A4
:1021EC000143D165D16D93480140D165D365DB07BF
:1021FC0010D4002D06D18C4AD36D8D490B40216C27
:10220C000B43D365012E15D1874AD36B8A490B40FA
:10221C00D3630FE000F0AEFA0700834BDB6D9B0736
:10222C00E7D400F0A7FAC01B844B9842F5D90325DC
:10223C00DFE700252368DB0706D57B4A536D0321B6
:10224C008B4361680B43536523689B0706D5764A1D
:10225C00536D0C218B43A1680B43536523685B07BB
:10226C0006D5714A536D30218B43E1680B4353659E
:10227C002368DB0606D56C4A536D71490B40216906
:10228C000B4353652368DB0406D5674A536D6849D5
:10229C000B4061690B43536523689B0506D5624A65
:1022AC00536D68490B40A16A0B43536523685B056A
:1022BC0006D55D4A536D64490B40E16A0B43536587
:1022CC0023689B0606D5584A536D60490B40A1699B
:1022DC000B43536523685B0606D5534A536D5C4923
:1022EC000B40E1690B43536523685B040BD54E4AE5
:1022FC00536D9B009B08216B0B435365226B802312
:10230C00DB059A4262D023681B0306D5464A536DFF
:10231C0040218B43616B0B43536523689B020BD5A8
:10232C00414A536D4B490B40A16B0B435365A26B58
:10233C008023DB039A4250D023685B020BD53A4AC8
:10234C00536D45490B40E16B0B435365E26B8023A6
:10235C005B049A4248D023681B0509D5324A936D19
:10236C0003218B43216A0B439365236A012B40D0D5
:10237C0023689B0409D52C4A936D0C218B43616A0D
:10238C000B439365636A042B39D02368DB010BD5AF
:10239C00254A936D2D490B40616C0B439365626C20
:1023AC0080239B019A4230D023689B010BD51E4A97
:1023BC00936D1F490B40A16C0B439365A26C80235A
:1023CC005B009A4228D0280003B0F0BD164AD168B1
:1023DC0080235B020B43D36095E7134AD1688023BB
:1023EC005B040B43D360A7E70F4AD1680B43D36060
:1023FC00B1E7D16880235B020B43D360B8E7D168A7
:10240C0080235B020B43D360BFE7074AD16880236C
:10241C005B040B43D360C7E7034AD16880235B049A
:10242C000B43D360CFE7C046001002400070004061
:10243C00FFFCFFFFFFFFFEFFFFFFFFEF8813000015
:10244C00FFF3FFFFFFFFF3FFFFFFCFFFFFCFFFFF08
:10245C00FF3FFFFFFFFFBFFFFFFFFFFEF0B50023B5
:10246C0059E086685F000324BC40A643CC68BC409E
:10247C0034438460446894434E68360901223240E8
:10248C009A402243426056E0DE080836B6003758C0
:10249C0005321A4092000F249440A7430C699440D3
:1024AC0022003A43325059E0042600E00026A640B0
:1024BC0034003C43444E1832920094518022B75859
:1024CC00EA433E00AE434C68E40301D53E002E4384
:1024DC003D4C8027E6518426A7593E0016404C6897
:1024EC00A40301D53E002E43374C8427E6512768C0
:1024FC003E0016404C68E40201D53E002E43324C9F
:10250C002660666832404C68A40201D52A0032432A
:10251C002D4C626001330C682200DA4053D001224A
:10252C009A40250015401442F4D04E6803243440E0
:10253C00013C012C95D94C6803222240032A08D077
:10254C00C4685E000322B24094438A68B2402243BE
:10255C00C2604C6803222240022A95D004685E00B7
:10256C0003221700B740BC434F683A40B2402243A5
:10257C0002604C68C02292021442CBD09A0814001C
:10258C001834A400104EA75903241C40E4000F2655
:10259C00A640B743A026F605B04287D00B4EB042FA
:1025AC000BD00B4EB0420AD00A4EB04209D00A4EA4
:1025BC00B04200D178E7052679E7012677E70226B5
:1025CC0075E7032673E7F0BD0018024000040050C5
:1025DC0000080050000C005000100050034A5168D5
:1025EC008023DB000B4353607047C04600700040F3
:1025FC0010B5104A136810490B4003431360802335
:10260C009B00984201D0002010BD0C4B1B68580059
:10261C00C01840000A49FDF74BFD0130054B5B69C2
:10262C005B0503D5002803D00138F7E70020EBE762
:10263C000320E9E700700040FFF9FFFF580000207D
:10264C0040420F0070B5002811DB8308134DC033D6
:10265C009B005C5903221040C000FC3216008640DF
:10266C00B44389010A40824022435A5170BD0F2362
:10267C000340083B9B0806339B00094A944663447D
:10268C005C6803221040C000FC3215008540AC434E
:10269C0089010A40824022435A60E7E700E100E0EA
:1026AC0000ED00E0013880235B0498420FD2094A08
:1026BC0050600948036A1B021B0AC02109060B4320
:1026CC0003620023936007331360002070470120DE
:1026DC00FCE7C04610E000E000ED00E010B504009F
:1026EC00114B1978002901D1012010BDFA2080006E
:1026FC00FDF7DEFC01000D4B1868FDF7D9FCFFF768
:10270C00D1FF00280DD1032C01D90120EDE70130B8
:10271C00002221004042FFF795FF054B1C60002072
:10272C00E3E70120E1E7C0465200002058000020FA
:10273C005400002010B5084A116880235B000B433D
:10274C0013600320FFF7CAFF041E02D001242000EF
:10275C0010BDFDF765FEFAE700200240034B1B7825
:10276C00034A11685B1813607047C0465200002082
:10277C00B4090020014B18687047C046B40900200A
:10278C00034A136803490B40034313607047C04668
:10279C0000000140FFF9FFFF026893699B0701D518
:1027AC000023936203689A69D20703D49A690121C2
:1027BC000A439A617047000070B504686068049D14
:1027CC006E0D8025ED002E40064D3543A84389053E
:1027DC00890D120411431943049B1943084360608B
:1027EC0070BDC046FF63FF03F8B506000F0015006F
:1027FC0002689369DB063BD553689B0104D451688E
:10280C008023DB010B4353603468A3699B0615D40A
:10281C007B1CF9D0FFF7AEFF401BB84201D8002F4C
:10282C00F2D1736C2022134373644123F2540023BE
:10283C002232B354023AB35401201AE01023E3615C
:10284C0033682024DC613000FFF7A6FF3268536840
:10285C0008490B405360736C042213437364412387
:10286C00F45400233E32B354023AB354012000E036
:10287C000020F8BD00E800FE70B504000D00160045
:10288C0023689B699B071CD4320029002000FFF7AA
:10289C00ABFF002817D16B1CF2D0FFF76BFF801B2E
:1028AC00A84201D8002DEBD1636C20221343636442
:1028BC004123E25400232232A354023AA3540120B0
:1028CC0000E0002070BD0120FCE7F0B5C64600B565
:1028DC0007000D0090461E003B689C692C40641B51
:1028EC0063425C41444516D1731CF5D0FFF742FF9F
:1028FC00069BC01AB04201D8002EEDD17B6C202271
:10290C0013437B644123FA5400232232BB54023A12
:10291C00BB54012000E0002080BCB846F0BD70B56F
:10292C0005000C0016002B689B699B061AD432001C
:10293C0021002800FFF758FF002815D1FFF71AFFD8
:10294C00801BA04201D8002CEDD16B6C20221343CC
:10295C006B644123EA5400232232AB54023AAB5449
:10296C00012070BD0020FCE70120FAE770B50400DF
:10297C000D00160023689B695B0733D432002900D5
:10298C002000FFF731FF00282ED1226893699B06A7
:10299C0011D4FFF7EFFE801BA84201D8002DE9D11E
:1029AC00636C2022134363644123E254013B0022F5
:1029BC00E254012070BD93695B0702D5238D002B77
:1029CC00F8D12021D1612268536808480340536034
:1029DC00002363644122A1540132A354023AA3544C
:1029EC000120E7E70020E5E70120E3E700E800FE2F
:1029FC0010B5041E59D04123C35C002B43D0412396
:102A0C002422E2542268136801218B43136063680B
:102A1C00226827490B4013612268936825490B40B3
:102A2C009360E368012B34D0A168226884231B02D5
:102A3C000B439360E368022B32D0226851681E4B23
:102A4C000B4353602268D3681A490B40D360236947
:102A5C0062691343A269120221681343CB60E369D4
:102A6C00216A22680B4313602268136801210B430F
:102A7C0013600023636441221F31A154236301328C
:102A8C00A354002010BD40330022C254FDF790FC2B
:102A9C00B5E7A168226880231B020B439360C9E74A
:102AAC002368802212015A60C7E70120EAE7C0467A
:102ABC00FFFFFFF0FF7FFFFF00800002F0B585B045
:102ACC0004000F00029203930A9D4123C35C202B48
:102ADC0000D09BE02033C35C012B00D199E0402354
:102AEC000122C254FFF746FE0600802100901923F4
:102AFC00012209022000FFF7E8FE002800D08AE03E
:102B0C0041232122E2540133113AE254002363643D
:102B1C00029A6262039A62856363638D9BB2FF2B98
:102B2C000BD9FF2323857F3B3F4A00925B04FF2296
:102B3C0039002000FFF740FE18E0628D92B222852A
:102B4C008023D2B2384900919B0439002000FFF752
:102B5C0033FE0BE0628D92B222858023D2B200212B
:102B6C0000919B0439002000FFF726FE638D9BB279
:102B7C00002B34D0320029002000FFF77DFE002806
:102B8C004BD1626A236812789A62636A013363627A
:102B9C00638D013B9BB26385238D013B9BB22385E7
:102BAC00628D92B2002AE1D0002BDFD100962B006F
:102BBC00002280212000FFF788FE00282FD1638D92
:102BCC009BB2FF2BC6D9FF2323857F3B00220092AB
:102BDC005B04FF3239002000FFF7EEFDC6E7320040
:102BEC0029002000FFF79BFE00281AD12368202221
:102BFC00DA6121684B680D4D2B404B604123E25448
:102C0C0000232232A354023AA35400E0022005B060
:102C1C00F0BD0220FBE70120F9E70120F7E70120D6
:102C2C00F5E70120F3E7C0460020008000E800FE35
:102C3C00F0B585B004000F00029203930A9D412366
:102C4C00C35C202B00D09BE02033C35C012B00D154
:102C5C0099E040230122C254FFF78CFD060080212D
:102C6C0000901923012209022000FFF72EFE0028F4
:102C7C0000D08AE041232222E2540133123AE2547A
:102C8C0000236364029A6262039A62856363638DB4
:102C9C009BB2FF2B0BD9FF2323857F3B3F4A00922E
:102CAC005B04FF2239002000FFF786FD18E0628DDF
:102CBC0092B222858023D2B2384900919B0439000C
:102CCC002000FFF779FD0BE0628D92B22285802304
:102CDC00D2B2002100919B0439002000FFF76CFD5B
:102CEC00638D9BB2002B34D0320029002000FFF7FB
:102CFC003DFE00284BD123685A6A636A1A70636AD6
:102D0C0001336362238D013B9BB22385628D013AB3
:102D1C0092B26285628D92B2002AE1D0002BDFD193
:102D2C0000962B00002280212000FFF7CEFD00280A
:102D3C002FD1638D9BB2FF2BC6D9FF2323857F3BFD
:102D4C00002200925B04FF3239002000FFF734FDB3
:102D5C00C6E7320029002000FFF7E1FD00281AD158
:102D6C0023682022DA6121684B680D4D2B404B60A3
:102D7C004123E25400232232A354023AA35400E02C
:102D8C00022005B0F0BD0220FBE70120F9E701208D
:102D9C00F7E70120F5E70120F3E7C04600240080A7
:102DAC0000E800FEF0B54123C35C202B20D120337A
:102DBC00C35C012B1ED04024012202554125242343
:102DCC0043550668336893433360066833680A4F8B
:102DDC003B403360066833680B43336001680B6813
:102DEC0013430B6020234355002303550020F0BDF3
:102DFC000220FCE70220FAE7FFEFFFFFF0B54123CA
:102E0C00C35C202B1ED12033C35C012B1CD040246F
:102E1C000122025541252423435506683368934308
:102E2C00336006683368094F3B400902194331602F
:102E3C0001680B6813430B60202343550023035593
:102E4C000020F0BD0220FCE70220FAE7FFF0FFFFB4
:102E5C00704710B5002814D00023AE24A4000351F1
:102E6C00083403510C340351002902D0AD239B00CC
:102E7C00C150A7239B000121C1540270FDF7E4FB54
:102E8C0010BD0320FCE710B582B004006B46002295
:102E9C00DA8000290ED0AE239B00C150CB6A002BE8
:102EAC000AD06A46901D9847B3239B00E05000203F
:102EBC0002B010BD0320FBE70020F9E710B5FDF7C9
:102ECC00FDFB10BD0300002002E00130C0B2013355
:102EDC001A78002AF9D1704710B504008021FDF74B
:102EEC000BFC00212000FDF707FC10BD70B50400A1
:102EFC000D001600002816D0FFF7E4FF0130430048
:102F0C009BB233802B7003236B70013B08E0EA54B7
:102F1C0001345A1CD2B2AA18002111700233DBB250
:102F2C002278002AF3D170BD10B51300A5229200AF
:102F3C00022484508361C3610A000021FDF7E5FB84
:102F4C00002010BD2223038000487047E0000020C1
:102F5C0022230380004870470401002022230380B1
:102F6C000048704740010020AF239B00C35800224B
:102F7C001A730020704700000A2303800048704732
:102F8C003401002070B582B0AF239B00C5586B464E
:102F9C000022DA80002D00D182E00B786032140020
:102FAC001C401A4224D0202C74D14B780A2B10D000
:102FBC0009D8022B12D0032B16D101222900FFF7BE
:102FCC00B3FF002469E00B2B0ED18B782B6000240F
:102FDC0063E04B881B0A6B6000245EE0291D012214
:102FEC00FFF7A2FF002458E0FFF776FF032454E01C
:102FFC004E780B2E4AD8B3002A4AD3589F46A723A3
:10300C009B00C35C032B03D0FFF766FF032444E053
:10301C0002226B46991DFFF787FF34003DE04B8879
:10302C001B0A222B0BD0212B11D1CB881A1C092B5C
:10303C0000D9092292B21C49FFF776FF2DE0CB880C
:10304C001A1C4A2B00D94A2292B21849F4E7FFF70E
:10305C0043FF032421E0A7239B00C35C032B03D075
:10306C00FFF73AFF032418E0290008310122FFF78B
:10307C005BFF12E0A7239B00C35C032B02D18B7870
:10308C00AB600AE0FFF728FF032406E0FFF724FFFC
:10309C00032402E0FFF720FF0324200002B070BDE0
:1030AC000324FAE75C350008280100205C000020AE
:1030BC0010B504008121FDF716FB002323876387DD
:1030CC00AF239B00E058002805D0FDF72BFBAF2366
:1030DC009B000022E250002010BD70B504001020AF
:1030EC00FDF71CFB051E13D0AF239B00E050237C87
:1030FC00002B13D107336387042303228121200083
:10310C00FDF7E5FA0123238700232B73002070BD04
:10311C00AF239B000022E2500220F8E70A236387CA
:10312C00EAE7000000B585B06B4618735973054883
:10313C00FA239B000093022303AA5221FFF7BEFC43
:10314C0005B000BD8001002010B584B00C000F222A
:10315C006A4410700A48FA239B0000930123522101
:10316C00FFF7ACFC002801D004B010BD0448FA23D2
:10317C009B000093062322005221FFF759FDF3E731
:10318C008001002030B583B05521F020FFF7CAFF35
:10319C00041E03D00024200003B030BD0021FB200E
:1031AC00FFF7C0FF051EF6D16946FA20FFF7CCFFEA
:1031BC00041E16D10E490622684600F065F9002857
:1031CC0011D00C490622684600F05EF900280CD09C
:1031DC0009490622684600F057F90028DBD1022481
:1031EC00D9E72C00D7E70124D5E70324D3E7C04661
:1031FC009C3500088C3500089435000882789200C4
:10320C0083799B079B0F13434B80C2789200837981
:10321C001B079B0F13438B800279920083799B06CB
:10322C009B0F1343CB800023C3560B700123C35653
:10323C004B7043799B07DB0F4B724379DB07DB0F3A
:10324C000B72704730B583B0050069460020FFF75C
:10325C007BFF041E02D0200003B030BD290068465D
:10326C00FFF7CCFFF7E703783F229343C02B35D011
:10327C0000238B7003789B069B0E0B7043789B0688
:10328C009B0E4B708378DB06DB0ECB70C378DB06B2
:10329C00DB0E0B7103795B07DB0F4B710379DB06DC
:1032AC00DB0F8B714379DB07DB0F0B7203795B064A
:1032BC00DB0FCB714379DB06DB0F4B7243795B067B
:1032CC00DB0F8B7243791B07DB0FCB7243799B06A9
:1032DC00DB0F0B734379DB094B73704743789343D4
:1032EC00C02B01D00023C4E70123C2E730B583B063
:1032FC00050069460020FFF727FF041E02D02000BE
:10330C0003B030BD29006846FFF7ADFFF7E703783F
:10331C009B069B0E0B7043789B069B0E4B700378A1
:10332C009B09DB0042789209520013438278D20940
:10333C0013438B708378DB06DB0ECB7083785B06D4
:10334C009B0FDB00C278520913430B71C378DB0669
:10335C00DB0E4B714379DB06DB0F8B7143795B061C
:10336C00DB0FCB7143791B07DB0F0B7243799B0689
:10337C00DB0F4B7203795B07DB0F8B7203791B0737
:10338C00DB0FCB720379DB06DB0F0B7303799B0628
:10339C00DB0F4B7303799B07DB0F8B734379DB09D3
:1033AC000B7443795B07DB0FCB7303795B06DB0F85
:1033BC004B740379DB098B744379DB07DB0FCB741C
:1033CC0043799B07DB0F0B75704730B583B0050055
:1033DC0069460020FFF7B8FE041E02D0200003B09F
:1033EC0030BD29006846FFF792FFF7E70D48854688
:1033FC00FFF72EFD0C480D490D4A002302E0D4586E
:10340C00C4500433C4188C42F9D30A4A0A4C002322
:10341C0001E013600432A242FBD300F011F8FCF778
:10342C000BFFFEE70040022000000020640100209A
:10343C00AC35000864010020B8090020FEE700004C
:10344C0070B500260C4D0D4C641BA410A64209D17E
:10345C00002600F02FF80A4D0A4C641BA410A6425B
:10346C0005D170BDB300EB5898470136EEE7B300B9
:10347C00EB5898470136F2E7A4350008A43500084C
:10348C00A4350008A835000830B500240139A24243
:10349C0001D1002005E0035D01340D5DAB42F6D097
:1034AC00581B30BD03008218934200D1704719702D
:1034BC000133F9E7F8B5C046F8BC08BC9E46704726
:0C34CC00F8B5C046F8BC08BC9E4670472E
:1034D8004E756E6368756B20555342204164617068
:1034E8007465720053544D6963726F656C656374DB
:1034F800726F6E696373000048494420436F6E66BB
:103508006967000048494420496E746572666163C2
:10351800650000000000000000000000000000003E
:103528000000000000000000000000000000000093
:10353800000000000100000002000000030000007D
:10354800040000000600000007000000080000005A
:10355800090000000A300008A6300008983000086A
:103568009830000898300008983000082A30000881
:103578009830000898300008983000086230000839
:1035880080300008010120A400010000030120A4EC
:0C35980000000000000020A40000000063
:0435A40075010008A5
:0435A8004D010008C9
:1035AC00AD040008B90400087105000849050008BD
:1035BC00350500088D050008B50500080000000061
:1035CC00120100020000004083042B57000201028C
:1035DC0003010000040309041A03000000000000AA
:1035EC0000000000000000000000000000000000CF
:1035FC0000000100040000000024F4000501090291
:10360C00A1010901A10005091901290315002501D2
:10361C00950375018102950175058101050109303C
:10362C00093109381581257F750895038106C00974
:10363C003C05FF09011500250175019502B12275A4
:10364C00069501B101C00000E7300008BD3000084C
:10365C00912F00080000000000000000752F0008EA
:10366C00000000000000000000000000000000004E
:10367C005D2F0008512F0008692F0008852F0008C6
:10368C0009022200010100E03209040000010301DB
:10369C000200092111010001224A000705810304DF
:1036AC00000A000009022200010100E032090400B6
:1036BC00000103010200092111010001224A000747
:1036CC000581030400070000092111010001224AB1
:1036DC00000000000A06000200000040010000008B
:1036EC0009022200010100E032090400000103017B
:1036FC000200092111010001224A0007058103047F
:04370C00000A0000AF
:04000005080033F9C3
:00000001FF
